{
  "address": "0xbD461af66b6f1F95F7EEFD22585434269BB7A0Fb",
  "abi": [
    {
      "inputs": [
        {
          "internalType": "address",
          "name": "_layerZeroEndpoint",
          "type": "address"
        },
        {
          "internalType": "address",
          "name": "_feeManager",
          "type": "address"
        },
        {
          "internalType": "address",
          "name": "_feeCollector",
          "type": "address"
        }
      ],
      "stateMutability": "nonpayable",
      "type": "constructor"
    },
    {
      "inputs": [],
      "name": "AccessControlBadConfirmation",
      "type": "error"
    },
    {
      "inputs": [
        {
          "internalType": "address",
          "name": "account",
          "type": "address"
        },
        {
          "internalType": "bytes32",
          "name": "neededRole",
          "type": "bytes32"
        }
      ],
      "name": "AccessControlUnauthorizedAccount",
      "type": "error"
    },
    {
      "inputs": [],
      "name": "InvalidDelegate",
      "type": "error"
    },
    {
      "inputs": [],
      "name": "InvalidEndpointCall",
      "type": "error"
    },
    {
      "inputs": [],
      "name": "LzTokenUnavailable",
      "type": "error"
    },
    {
      "inputs": [
        {
          "internalType": "uint32",
          "name": "eid",
          "type": "uint32"
        }
      ],
      "name": "NoPeer",
      "type": "error"
    },
    {
      "inputs": [
        {
          "internalType": "uint256",
          "name": "msgValue",
          "type": "uint256"
        }
      ],
      "name": "NotEnoughNative",
      "type": "error"
    },
    {
      "inputs": [
        {
          "internalType": "address",
          "name": "addr",
          "type": "address"
        }
      ],
      "name": "OnlyEndpoint",
      "type": "error"
    },
    {
      "inputs": [
        {
          "internalType": "uint32",
          "name": "eid",
          "type": "uint32"
        },
        {
          "internalType": "bytes32",
          "name": "sender",
          "type": "bytes32"
        }
      ],
      "name": "OnlyPeer",
      "type": "error"
    },
    {
      "inputs": [
        {
          "internalType": "address",
          "name": "owner",
          "type": "address"
        }
      ],
      "name": "OwnableInvalidOwner",
      "type": "error"
    },
    {
      "inputs": [
        {
          "internalType": "address",
          "name": "account",
          "type": "address"
        }
      ],
      "name": "OwnableUnauthorizedAccount",
      "type": "error"
    },
    {
      "inputs": [
        {
          "internalType": "address",
          "name": "token",
          "type": "address"
        }
      ],
      "name": "SafeERC20FailedOperation",
      "type": "error"
    },
    {
      "inputs": [],
      "name": "TokenBridgingPaused",
      "type": "error"
    },
    {
      "inputs": [],
      "name": "TokenNotAdded",
      "type": "error"
    },
    {
      "inputs": [],
      "name": "UnsupportedChain",
      "type": "error"
    },
    {
      "inputs": [],
      "name": "UnsupportedToken",
      "type": "error"
    },
    {
      "anonymous": false,
      "inputs": [
        {
          "indexed": true,
          "internalType": "bytes32",
          "name": "destination",
          "type": "bytes32"
        },
        {
          "indexed": true,
          "internalType": "address",
          "name": "token",
          "type": "address"
        },
        {
          "indexed": true,
          "internalType": "uint256",
          "name": "amount",
          "type": "uint256"
        }
      ],
      "name": "Bridge",
      "type": "event"
    },
    {
      "anonymous": false,
      "inputs": [
        {
          "indexed": true,
          "internalType": "address",
          "name": "previousOwner",
          "type": "address"
        },
        {
          "indexed": true,
          "internalType": "address",
          "name": "newOwner",
          "type": "address"
        }
      ],
      "name": "OwnershipTransferred",
      "type": "event"
    },
    {
      "anonymous": false,
      "inputs": [
        {
          "indexed": false,
          "internalType": "uint32",
          "name": "eid",
          "type": "uint32"
        },
        {
          "indexed": false,
          "internalType": "bytes32",
          "name": "peer",
          "type": "bytes32"
        }
      ],
      "name": "PeerSet",
      "type": "event"
    },
    {
      "anonymous": false,
      "inputs": [
        {
          "indexed": true,
          "internalType": "bytes32",
          "name": "role",
          "type": "bytes32"
        },
        {
          "indexed": true,
          "internalType": "bytes32",
          "name": "previousAdminRole",
          "type": "bytes32"
        },
        {
          "indexed": true,
          "internalType": "bytes32",
          "name": "newAdminRole",
          "type": "bytes32"
        }
      ],
      "name": "RoleAdminChanged",
      "type": "event"
    },
    {
      "anonymous": false,
      "inputs": [
        {
          "indexed": true,
          "internalType": "bytes32",
          "name": "role",
          "type": "bytes32"
        },
        {
          "indexed": true,
          "internalType": "address",
          "name": "account",
          "type": "address"
        },
        {
          "indexed": true,
          "internalType": "address",
          "name": "sender",
          "type": "address"
        }
      ],
      "name": "RoleGranted",
      "type": "event"
    },
    {
      "anonymous": false,
      "inputs": [
        {
          "indexed": true,
          "internalType": "bytes32",
          "name": "role",
          "type": "bytes32"
        },
        {
          "indexed": true,
          "internalType": "address",
          "name": "account",
          "type": "address"
        },
        {
          "indexed": true,
          "internalType": "address",
          "name": "sender",
          "type": "address"
        }
      ],
      "name": "RoleRevoked",
      "type": "event"
    },
    {
      "inputs": [],
      "name": "DEFAULT_ADMIN_ROLE",
      "outputs": [
        {
          "internalType": "bytes32",
          "name": "",
          "type": "bytes32"
        }
      ],
      "stateMutability": "view",
      "type": "function"
    },
    {
      "inputs": [],
      "name": "MANAGER_ROLE",
      "outputs": [
        {
          "internalType": "bytes32",
          "name": "",
          "type": "bytes32"
        }
      ],
      "stateMutability": "view",
      "type": "function"
    },
    {
      "inputs": [
        {
          "components": [
            {
              "internalType": "uint32",
              "name": "srcEid",
              "type": "uint32"
            },
            {
              "internalType": "bytes32",
              "name": "sender",
              "type": "bytes32"
            },
            {
              "internalType": "uint64",
              "name": "nonce",
              "type": "uint64"
            }
          ],
          "internalType": "struct Origin",
          "name": "origin",
          "type": "tuple"
        }
      ],
      "name": "allowInitializePath",
      "outputs": [
        {
          "internalType": "bool",
          "name": "",
          "type": "bool"
        }
      ],
      "stateMutability": "view",
      "type": "function"
    },
    {
      "inputs": [
        {
          "components": [
            {
              "internalType": "address",
              "name": "token",
              "type": "address"
            },
            {
              "internalType": "address",
              "name": "recipientAddress",
              "type": "address"
            },
            {
              "internalType": "bytes32",
              "name": "destination",
              "type": "bytes32"
            },
            {
              "internalType": "uint256",
              "name": "amount",
              "type": "uint256"
            }
          ],
          "internalType": "struct Station.TripDetails",
          "name": "tripDetails",
          "type": "tuple"
        },
        {
          "internalType": "bytes",
          "name": "options",
          "type": "bytes"
        }
      ],
      "name": "bridge",
      "outputs": [],
      "stateMutability": "payable",
      "type": "function"
    },
    {
      "inputs": [
        {
          "internalType": "bytes32",
          "name": "",
          "type": "bytes32"
        }
      ],
      "name": "chains",
      "outputs": [
        {
          "internalType": "string",
          "name": "chainName",
          "type": "string"
        },
        {
          "internalType": "bool",
          "name": "isSupported",
          "type": "bool"
        },
        {
          "internalType": "uint32",
          "name": "layerZeroDestinationId",
          "type": "uint32"
        }
      ],
      "stateMutability": "view",
      "type": "function"
    },
    {
      "inputs": [],
      "name": "endpoint",
      "outputs": [
        {
          "internalType": "contract ILayerZeroEndpointV2",
          "name": "",
          "type": "address"
        }
      ],
      "stateMutability": "view",
      "type": "function"
    },
    {
      "inputs": [],
      "name": "feeCollector",
      "outputs": [
        {
          "internalType": "address",
          "name": "",
          "type": "address"
        }
      ],
      "stateMutability": "view",
      "type": "function"
    },
    {
      "inputs": [],
      "name": "feeManager",
      "outputs": [
        {
          "internalType": "contract IFeeManager",
          "name": "",
          "type": "address"
        }
      ],
      "stateMutability": "view",
      "type": "function"
    },
    {
      "inputs": [
        {
          "internalType": "bytes32",
          "name": "role",
          "type": "bytes32"
        }
      ],
      "name": "getRoleAdmin",
      "outputs": [
        {
          "internalType": "bytes32",
          "name": "",
          "type": "bytes32"
        }
      ],
      "stateMutability": "view",
      "type": "function"
    },
    {
      "inputs": [
        {
          "internalType": "bytes32",
          "name": "role",
          "type": "bytes32"
        },
        {
          "internalType": "address",
          "name": "account",
          "type": "address"
        }
      ],
      "name": "grantRole",
      "outputs": [],
      "stateMutability": "nonpayable",
      "type": "function"
    },
    {
      "inputs": [
        {
          "internalType": "bytes32",
          "name": "role",
          "type": "bytes32"
        },
        {
          "internalType": "address",
          "name": "account",
          "type": "address"
        }
      ],
      "name": "hasRole",
      "outputs": [
        {
          "internalType": "bool",
          "name": "",
          "type": "bool"
        }
      ],
      "stateMutability": "view",
      "type": "function"
    },
    {
      "inputs": [
        {
          "components": [
            {
              "internalType": "uint32",
              "name": "srcEid",
              "type": "uint32"
            },
            {
              "internalType": "bytes32",
              "name": "sender",
              "type": "bytes32"
            },
            {
              "internalType": "uint64",
              "name": "nonce",
              "type": "uint64"
            }
          ],
          "internalType": "struct Origin",
          "name": "",
          "type": "tuple"
        },
        {
          "internalType": "bytes",
          "name": "",
          "type": "bytes"
        },
        {
          "internalType": "address",
          "name": "_sender",
          "type": "address"
        }
      ],
      "name": "isComposeMsgSender",
      "outputs": [
        {
          "internalType": "bool",
          "name": "",
          "type": "bool"
        }
      ],
      "stateMutability": "view",
      "type": "function"
    },
    {
      "inputs": [
        {
          "components": [
            {
              "internalType": "uint32",
              "name": "srcEid",
              "type": "uint32"
            },
            {
              "internalType": "bytes32",
              "name": "sender",
              "type": "bytes32"
            },
            {
              "internalType": "uint64",
              "name": "nonce",
              "type": "uint64"
            }
          ],
          "internalType": "struct Origin",
          "name": "_origin",
          "type": "tuple"
        },
        {
          "internalType": "bytes32",
          "name": "_guid",
          "type": "bytes32"
        },
        {
          "internalType": "bytes",
          "name": "_message",
          "type": "bytes"
        },
        {
          "internalType": "address",
          "name": "_executor",
          "type": "address"
        },
        {
          "internalType": "bytes",
          "name": "_extraData",
          "type": "bytes"
        }
      ],
      "name": "lzReceive",
      "outputs": [],
      "stateMutability": "payable",
      "type": "function"
    },
    {
      "inputs": [
        {
          "internalType": "uint32",
          "name": "",
          "type": "uint32"
        },
        {
          "internalType": "bytes32",
          "name": "",
          "type": "bytes32"
        }
      ],
      "name": "nextNonce",
      "outputs": [
        {
          "internalType": "uint64",
          "name": "nonce",
          "type": "uint64"
        }
      ],
      "stateMutability": "view",
      "type": "function"
    },
    {
      "inputs": [],
      "name": "oAppVersion",
      "outputs": [
        {
          "internalType": "uint64",
          "name": "senderVersion",
          "type": "uint64"
        },
        {
          "internalType": "uint64",
          "name": "receiverVersion",
          "type": "uint64"
        }
      ],
      "stateMutability": "pure",
      "type": "function"
    },
    {
      "inputs": [],
      "name": "owner",
      "outputs": [
        {
          "internalType": "address",
          "name": "",
          "type": "address"
        }
      ],
      "stateMutability": "view",
      "type": "function"
    },
    {
      "inputs": [
        {
          "internalType": "uint32",
          "name": "eid",
          "type": "uint32"
        }
      ],
      "name": "peers",
      "outputs": [
        {
          "internalType": "bytes32",
          "name": "peer",
          "type": "bytes32"
        }
      ],
      "stateMutability": "view",
      "type": "function"
    },
    {
      "inputs": [],
      "name": "renounceOwnership",
      "outputs": [],
      "stateMutability": "nonpayable",
      "type": "function"
    },
    {
      "inputs": [
        {
          "internalType": "bytes32",
          "name": "role",
          "type": "bytes32"
        },
        {
          "internalType": "address",
          "name": "callerConfirmation",
          "type": "address"
        }
      ],
      "name": "renounceRole",
      "outputs": [],
      "stateMutability": "nonpayable",
      "type": "function"
    },
    {
      "inputs": [
        {
          "internalType": "bytes32",
          "name": "role",
          "type": "bytes32"
        },
        {
          "internalType": "address",
          "name": "account",
          "type": "address"
        }
      ],
      "name": "revokeRole",
      "outputs": [],
      "stateMutability": "nonpayable",
      "type": "function"
    },
    {
      "inputs": [
        {
          "internalType": "address",
          "name": "_delegate",
          "type": "address"
        }
      ],
      "name": "setDelegate",
      "outputs": [],
      "stateMutability": "nonpayable",
      "type": "function"
    },
    {
      "inputs": [
        {
          "internalType": "uint32",
          "name": "_eid",
          "type": "uint32"
        },
        {
          "internalType": "bytes32",
          "name": "_peer",
          "type": "bytes32"
        }
      ],
      "name": "setPeer",
      "outputs": [],
      "stateMutability": "nonpayable",
      "type": "function"
    },
    {
      "inputs": [
        {
          "internalType": "bytes4",
          "name": "interfaceId",
          "type": "bytes4"
        }
      ],
      "name": "supportsInterface",
      "outputs": [
        {
          "internalType": "bool",
          "name": "",
          "type": "bool"
        }
      ],
      "stateMutability": "view",
      "type": "function"
    },
    {
      "inputs": [
        {
          "internalType": "address",
          "name": "",
          "type": "address"
        }
      ],
      "name": "tokens",
      "outputs": [
        {
          "internalType": "uint256",
          "name": "deposits",
          "type": "uint256"
        },
        {
          "internalType": "bool",
          "name": "isPaused",
          "type": "bool"
        },
        {
          "internalType": "bool",
          "name": "isActive",
          "type": "bool"
        },
        {
          "internalType": "bool",
          "name": "isStable",
          "type": "bool"
        }
      ],
      "stateMutability": "view",
      "type": "function"
    },
    {
      "inputs": [
        {
          "internalType": "address",
          "name": "newOwner",
          "type": "address"
        }
      ],
      "name": "transferOwnership",
      "outputs": [],
      "stateMutability": "nonpayable",
      "type": "function"
    },
    {
      "stateMutability": "payable",
      "type": "receive"
    }
  ],
  "transactionHash": "0x43aa4195c23575af42913d0d4c0d83b2029e5fb0c677a48e2f263228728bd764",
  "args": [
    "0x6EDCE65403992e310A62460808c4b910D972f10f",
    "0x09c40fd4b90cdE76E93091124283dbfDB5aaA95B",
    "0x49b30E1e0CaecF2D573d40AEFbb7f42Af2786b4a"
  ],
  "numDeployments": 1,
  "solcInputHash": "6fe44dfe6a0be0adb903fc3992d54f94",
  "bytecode": "0x60a06040527f241ecf16d79d0f8dbfb92cbc07fe17840425976cf0667f022fe9877caa831b0860075534801562000034575f80fd5b5060405162001a1338038062001a138339810160408190526200005791620001be565b8233818180806200008157604051631e4fbdf760e01b81525f600482015260240160405180910390fd5b6200008c8162000153565b506001600160a01b038083166080528116620000bb57604051632d618d8160e21b815260040160405180910390fd5b60805160405163ca5eb5e160e01b81526001600160a01b0383811660048301529091169063ca5eb5e1906024015f604051808303815f87803b15801562000100575f80fd5b505af115801562000113573d5f803e3d5ffd5b5050600380546001600160a01b03998a166001600160a01b0319918216179091556004805498909916971696909617909655506200020595505050505050565b5f80546001600160a01b038381166001600160a01b0319831681178455604051919092169283917f8be0079c531659141344cd1fd0a4f28419497f9722a3daafe3b4186f6b6457e09190a35050565b80516001600160a01b0381168114620001b9575f80fd5b919050565b5f805f60608486031215620001d1575f80fd5b620001dc84620001a2565b9250620001ec60208501620001a2565b9150620001fc60408501620001a2565b90509250925092565b6080516117d2620002415f395f81816102830152818161056a01528181610b5301528181610ef501528181611099015261115001526117d25ff3fe608060405260043610610164575f3560e01c806391d14854116100cd578063ca5eb5e111610087578063e486033911610062578063e48603391461046f578063ec87621c146104df578063f2fde38b146104f4578063ff7bd03d14610513575f80fd5b8063ca5eb5e114610412578063d0fb020314610431578063d547741f14610450575f80fd5b806391d14854146103555780639889cdf414610374578063a217fddf14610387578063bb0b6a531461039a578063c18de0ef146103c5578063c415b95c146103f3575f80fd5b806336568abe1161011e57806336568abe146102535780635e280f1114610272578063715018a6146102bd5780637d25a05e146102d157806382413eac1461030b5780638da5cb5b14610339575f80fd5b806301ffc9a71461016f57806313137d65146101a357806317442b70146101b8578063248a9ca3146101d95780632f2ff15d146102155780633400288b14610234575f80fd5b3661016b57005b5f80fd5b34801561017a575f80fd5b5061018e6101893660046111b9565b610532565b60405190151581526020015b60405180910390f35b6101b66101b1366004611256565b610568565b005b3480156101c3575f80fd5b506040805160018152600260208201520161019a565b3480156101e4575f80fd5b506102076101f33660046112ef565b5f9081526002602052604090206001015490565b60405190815260200161019a565b348015610220575f80fd5b506101b661022f366004611306565b610628565b34801561023f575f80fd5b506101b661024e36600461134c565b610652565b34801561025e575f80fd5b506101b661026d366004611306565b610668565b34801561027d575f80fd5b506102a57f000000000000000000000000000000000000000000000000000000000000000081565b6040516001600160a01b03909116815260200161019a565b3480156102c8575f80fd5b506101b66106a0565b3480156102dc575f80fd5b506102f26102eb36600461134c565b5f92915050565b60405167ffffffffffffffff909116815260200161019a565b348015610316575f80fd5b5061018e610325366004611374565b6001600160a01b0381163014949350505050565b348015610344575f80fd5b505f546001600160a01b03166102a5565b348015610360575f80fd5b5061018e61036f366004611306565b6106b3565b6101b6610382366004611491565b6106dd565b348015610392575f80fd5b506102075f81565b3480156103a5575f80fd5b506102076103b43660046114e1565b60016020525f908152604090205481565b3480156103d0575f80fd5b506103e46103df3660046112ef565b610a7b565b60405161019a9392919061153d565b3480156103fe575f80fd5b506004546102a5906001600160a01b031681565b34801561041d575f80fd5b506101b661042c36600461156c565b610b2c565b34801561043c575f80fd5b506003546102a5906001600160a01b031681565b34801561045b575f80fd5b506101b661046a366004611306565b610bad565b34801561047a575f80fd5b506104b761048936600461156c565b60066020525f90815260409020805460019091015460ff808216916101008104821691620100009091041684565b604080519485529215156020850152901515918301919091521515606082015260800161019a565b3480156104ea575f80fd5b5061020760075481565b3480156104ff575f80fd5b506101b661050e36600461156c565b610bd1565b34801561051e575f80fd5b5061018e61052d366004611587565b610c0e565b5f6001600160e01b03198216637965db0b60e01b148061056257506301ffc9a760e01b6001600160e01b03198316145b92915050565b7f00000000000000000000000000000000000000000000000000000000000000006001600160a01b031633146105b8576040516391ac5e4f60e01b81523360048201526024015b60405180910390fd5b602087018035906105d2906105cd908a6114e1565b610c42565b14610610576105e460208801886114e1565b60405163309afaf360e21b815263ffffffff9091166004820152602088013560248201526044016105af565b61061f87878787878787610c7d565b50505050505050565b5f8281526002602052604090206001015461064281610c95565b61064c8383610c9f565b50505050565b61065a610d30565b6106648282610d5c565b5050565b6001600160a01b03811633146106915760405163334bd91960e11b815260040160405180910390fd5b61069b8282610db0565b505050565b6106a8610d30565b6106b15f610e1b565b565b5f9182526002602090815260408084206001600160a01b0393909316845291905290205460ff1690565b6040808401515f9081526005602052206001015460ff166107115760405163d21eab3760e01b815260040160405180910390fd5b6040808401515f9081526005602090815282822086516001600160a01b031683526002019052205460ff166107595760405163350b944160e11b815260040160405180910390fd5b82516001600160a01b03165f90815260066020526040902060010154610100900460ff1661079a57604051630c76021160e01b815260040160405180910390fd5b82516001600160a01b03165f9081526006602052604090206001015460ff16156107d75760405163549cec7760e11b815260040160405180910390fd5b82516001600160a01b03165f9081526006602052604081206001015462010000900460ff1661087b57600354606085015160405163e1a4444b60e01b81526001600160a01b039092169163e1a4444b916108379160040190815260200190565b608060405180830381865afa158015610852573d5f803e3d5ffd5b505050506040513d601f19601f8201168201806040525081019061087691906115a1565b6108f1565b6003546060850151604051630105100360e71b81526001600160a01b03909216916382880180916108b29160040190815260200190565b608060405180830381865afa1580156108cd573d5f803e3d5ffd5b505050506040513d601f19601f820116820180604052508101906108f191906115a1565b90505f8160600151856060015161090891906115f9565b905061092c33600454606085015188516001600160a01b0390811693921690610e6a565b6109433386516001600160a01b0316903084610e6a565b84516001600160a01b03165f908152600660205260408120805483929061096b90849061160c565b909155505060608581018281526040805188516001600160a01b039081166020808401919091528a0151168183015290880151928101929092525160808201525f9060a00160408051601f19818403018152828252888201515f908152600560209081529083902060030154601f8901829004820285018201909352878452909350610a329263ffffffff90921691849189908990819084018382808284375f9201829052506040805180820190915234815260208101919091529250339150610ec49050565b506060860151865160408089015190516001600160a01b03909216917f1a42afa78fc1c591ca71b625637e126f94b742e4abaccc068b716aae5d90df77905f90a4505050505050565b60056020525f9081526040902080548190610a959061161f565b80601f0160208091040260200160405190810160405280929190818152602001828054610ac19061161f565b8015610b0c5780601f10610ae357610100808354040283529160200191610b0c565b820191905f5260205f20905b815481529060010190602001808311610aef57829003601f168201915b505050506001830154600390930154919260ff169163ffffffff16905083565b610b34610d30565b60405163ca5eb5e160e01b81526001600160a01b0382811660048301527f0000000000000000000000000000000000000000000000000000000000000000169063ca5eb5e1906024015f604051808303815f87803b158015610b94575f80fd5b505af1158015610ba6573d5f803e3d5ffd5b5050505050565b5f82815260026020526040902060010154610bc781610c95565b61064c8383610db0565b610bd9610d30565b6001600160a01b038116610c0257604051631e4fbdf760e01b81525f60048201526024016105af565b610c0b81610e1b565b50565b5f602082018035906001908390610c2590866114e1565b63ffffffff16815260208101919091526040015f20541492915050565b63ffffffff81165f90815260016020526040812054806105625760405163f6ff4fb760e01b815263ffffffff841660048201526024016105af565b5f610c8a85870187611651565b505050505050505050565b610c0b8133610fca565b5f610caa83836106b3565b610d29575f8381526002602090815260408083206001600160a01b03861684529091529020805460ff19166001179055610ce13390565b6001600160a01b0316826001600160a01b0316847f2f8788117e7eff1d82e926ec794901d17c78024a50270940304540a733656f0d60405160405180910390a4506001610562565b505f610562565b5f546001600160a01b031633146106b15760405163118cdaa760e01b81523360048201526024016105af565b63ffffffff82165f81815260016020908152604091829020849055815192835282018390527f238399d427b947898edb290f5ff0f9109849b1c3ba196a42e35f00c50a54b98b910160405180910390a15050565b5f610dbb83836106b3565b15610d29575f8381526002602090815260408083206001600160a01b0386168085529252808320805460ff1916905551339286917ff6391f5c32d9c69d2a47ea670b442974b53935d1edc7fd64eb21e047a839171b9190a4506001610562565b5f80546001600160a01b038381166001600160a01b0319831681178455604051919092169283917f8be0079c531659141344cd1fd0a4f28419497f9722a3daafe3b4186f6b6457e09190a35050565b604080516001600160a01b0385811660248301528416604482015260648082018490528251808303909101815260849091019091526020810180516001600160e01b03166323b872dd60e01b17905261064c908590611003565b610ecc611175565b5f610ed9845f015161106f565b602085015190915015610ef357610ef38460200151611096565b7f00000000000000000000000000000000000000000000000000000000000000006001600160a01b0316632637a450826040518060a001604052808b63ffffffff168152602001610f438c610c42565b81526020018a81526020018981526020015f8960200151111515815250866040518463ffffffff1660e01b8152600401610f7e92919061166b565b60806040518083038185885af1158015610f9a573d5f803e3d5ffd5b50505050506040513d601f19601f82011682018060405250810190610fbf91906116e3565b979650505050505050565b610fd482826106b3565b6106645760405163e2517d3f60e01b81526001600160a01b0382166004820152602481018390526044016105af565b5f8060205f8451602086015f885af180611022576040513d5f823e3d81fd5b50505f513d91508115611039578060011415611046565b6001600160a01b0384163b155b1561064c57604051635274afe760e01b81526001600160a01b03851660048201526024016105af565b5f813414611092576040516304fb820960e51b81523460048201526024016105af565b5090565b5f7f00000000000000000000000000000000000000000000000000000000000000006001600160a01b031663e4fe1d946040518163ffffffff1660e01b8152600401602060405180830381865afa1580156110f3573d5f803e3d5ffd5b505050506040513d601f19601f820116820180604052508101906111179190611781565b90506001600160a01b038116611140576040516329b99a9560e11b815260040160405180910390fd5b6106646001600160a01b038216337f000000000000000000000000000000000000000000000000000000000000000085610e6a565b60405180606001604052805f80191681526020015f67ffffffffffffffff1681526020016111b460405180604001604052805f81526020015f81525090565b905290565b5f602082840312156111c9575f80fd5b81356001600160e01b0319811681146111e0575f80fd5b9392505050565b5f606082840312156111f7575f80fd5b50919050565b5f8083601f84011261120d575f80fd5b50813567ffffffffffffffff811115611224575f80fd5b60208301915083602082850101111561123b575f80fd5b9250929050565b6001600160a01b0381168114610c0b575f80fd5b5f805f805f805f60e0888a03121561126c575f80fd5b61127689896111e7565b965060608801359550608088013567ffffffffffffffff80821115611299575f80fd5b6112a58b838c016111fd565b909750955060a08a013591506112ba82611242565b90935060c089013590808211156112cf575f80fd5b506112dc8a828b016111fd565b989b979a50959850939692959293505050565b5f602082840312156112ff575f80fd5b5035919050565b5f8060408385031215611317575f80fd5b82359150602083013561132981611242565b809150509250929050565b803563ffffffff81168114611347575f80fd5b919050565b5f806040838503121561135d575f80fd5b61136683611334565b946020939093013593505050565b5f805f8060a08587031215611387575f80fd5b61139186866111e7565b9350606085013567ffffffffffffffff8111156113ac575f80fd5b6113b8878288016111fd565b90945092505060808501356113cc81611242565b939692955090935050565b6040516080810167ffffffffffffffff8111828210171561140657634e487b7160e01b5f52604160045260245ffd5b60405290565b6040805190810167ffffffffffffffff8111828210171561140657634e487b7160e01b5f52604160045260245ffd5b5f6080828403121561144b575f80fd5b6114536113d7565b9050813561146081611242565b8152602082013561147081611242565b80602083015250604082013560408201526060820135606082015292915050565b5f805f60a084860312156114a3575f80fd5b6114ad858561143b565b9250608084013567ffffffffffffffff8111156114c8575f80fd5b6114d4868287016111fd565b9497909650939450505050565b5f602082840312156114f1575f80fd5b6111e082611334565b5f81518084525f5b8181101561151e57602081850181015186830182015201611502565b505f602082860101526020601f19601f83011685010191505092915050565b606081525f61154f60608301866114fa565b93151560208301525063ffffffff91909116604090910152919050565b5f6020828403121561157c575f80fd5b81356111e081611242565b5f60608284031215611597575f80fd5b6111e083836111e7565b5f608082840312156115b1575f80fd5b6115b96113d7565b825181526020830151602082015260408301516040820152606083015160608201528091505092915050565b634e487b7160e01b5f52601160045260245ffd5b81810381811115610562576105626115e5565b80820180821115610562576105626115e5565b600181811c9082168061163357607f821691505b6020821081036111f757634e487b7160e01b5f52602260045260245ffd5b5f60808284031215611661575f80fd5b6111e0838361143b565b6040815263ffffffff8351166040820152602083015160608201525f604084015160a060808401526116a060e08401826114fa565b90506060850151603f198483030160a08501526116bd82826114fa565b60809690960151151560c08501525050506001600160a01b039190911660209091015290565b5f81830360808112156116f4575f80fd5b6040516060810167ffffffffffffffff828210818311171561172457634e487b7160e01b5f52604160045260245ffd5b8160405285518352602086015191508082168214611740575f80fd5b5060208201526040603f1983011215611757575f80fd5b61175f61140c565b6040858101518252606090950151602082015293810193909352509092915050565b5f60208284031215611791575f80fd5b81516111e08161124256fea2646970667358221220ccfb4a5b8ce42420da2bec24ea846bb87ac09aa64a1cd74fe57f0261a941f8db64736f6c63430008180033",
  "devdoc": {
    "errors": {
      "AccessControlBadConfirmation()": [
        {
          "details": "The caller of a function is not the expected one. NOTE: Don't confuse with {AccessControlUnauthorizedAccount}."
        }
      ],
      "AccessControlUnauthorizedAccount(address,bytes32)": [
        {
          "details": "The `account` is missing a role."
        }
      ],
      "OwnableInvalidOwner(address)": [
        {
          "details": "The owner is not a valid owner account. (eg. `address(0)`)"
        }
      ],
      "OwnableUnauthorizedAccount(address)": [
        {
          "details": "The caller account is not authorized to perform an operation."
        }
      ],
      "SafeERC20FailedOperation(address)": [
        {
          "details": "An operation with an ERC-20 token failed."
        }
      ]
    },
    "events": {
      "RoleAdminChanged(bytes32,bytes32,bytes32)": {
        "details": "Emitted when `newAdminRole` is set as ``role``'s admin role, replacing `previousAdminRole` `DEFAULT_ADMIN_ROLE` is the starting admin for all roles, despite {RoleAdminChanged} not being emitted signaling this."
      },
      "RoleGranted(bytes32,address,address)": {
        "details": "Emitted when `account` is granted `role`. `sender` is the account that originated the contract call. This account bears the admin role (for the granted role). Expected in cases where the role was granted using the internal {AccessControl-_grantRole}."
      },
      "RoleRevoked(bytes32,address,address)": {
        "details": "Emitted when `account` is revoked `role`. `sender` is the account that originated the contract call:   - if using `revokeRole`, it is the admin role bearer   - if using `renounceRole`, it is the role bearer (i.e. `account`)"
      }
    },
    "kind": "dev",
    "methods": {
      "allowInitializePath((uint32,bytes32,uint64))": {
        "details": "This indicates to the endpoint that the OApp has enabled msgs for this particular path to be received.This defaults to assuming if a peer has been set, its initialized. Can be overridden by the OApp if there is other logic to determine this.",
        "params": {
          "origin": "The origin information containing the source endpoint and sender address."
        },
        "returns": {
          "_0": "Whether the path has been initialized."
        }
      },
      "getRoleAdmin(bytes32)": {
        "details": "Returns the admin role that controls `role`. See {grantRole} and {revokeRole}. To change a role's admin, use {_setRoleAdmin}."
      },
      "grantRole(bytes32,address)": {
        "details": "Grants `role` to `account`. If `account` had not been already granted `role`, emits a {RoleGranted} event. Requirements: - the caller must have ``role``'s admin role. May emit a {RoleGranted} event."
      },
      "hasRole(bytes32,address)": {
        "details": "Returns `true` if `account` has been granted `role`."
      },
      "isComposeMsgSender((uint32,bytes32,uint64),bytes,address)": {
        "details": "_origin The origin information containing the source endpoint and sender address.  - srcEid: The source chain endpoint ID.  - sender: The sender address on the src chain.  - nonce: The nonce of the message._message The lzReceive payload.Applications can optionally choose to implement separate composeMsg senders that are NOT the bridging layer.The default sender IS the OAppReceiver implementer.",
        "params": {
          "_sender": "The sender address."
        },
        "returns": {
          "_0": "isSender Is a valid sender."
        }
      },
      "lzReceive((uint32,bytes32,uint64),bytes32,bytes,address,bytes)": {
        "details": "Entry point for receiving messages or packets from the endpoint.Entry point for receiving msg/packet from the LayerZero endpoint.",
        "params": {
          "_executor": "The address of the executor for the received message.",
          "_extraData": "Additional arbitrary data provided by the corresponding executor.",
          "_guid": "The unique identifier for the received LayerZero message.",
          "_message": "The payload of the received message.",
          "_origin": "The origin information containing the source endpoint and sender address.  - srcEid: The source chain endpoint ID.  - sender: The sender address on the src chain.  - nonce: The nonce of the message."
        }
      },
      "nextNonce(uint32,bytes32)": {
        "details": "_srcEid The source endpoint ID._sender The sender address.The path nonce starts from 1. If 0 is returned it means that there is NO nonce ordered enforcement.Is required by the off-chain executor to determine the OApp expects msg execution is ordered.This is also enforced by the OApp.By default this is NOT enabled. ie. nextNonce is hardcoded to return 0.",
        "returns": {
          "nonce": "The next nonce."
        }
      },
      "oAppVersion()": {
        "returns": {
          "receiverVersion": "The version of the OAppReceiver.sol implementation.",
          "senderVersion": "The version of the OAppSender.sol implementation."
        }
      },
      "owner()": {
        "details": "Returns the address of the current owner."
      },
      "renounceOwnership()": {
        "details": "Leaves the contract without owner. It will not be possible to call `onlyOwner` functions. Can only be called by the current owner. NOTE: Renouncing ownership will leave the contract without an owner, thereby disabling any functionality that is only available to the owner."
      },
      "renounceRole(bytes32,address)": {
        "details": "Revokes `role` from the calling account. Roles are often managed via {grantRole} and {revokeRole}: this function's purpose is to provide a mechanism for accounts to lose their privileges if they are compromised (such as when a trusted device is misplaced). If the calling account had been revoked `role`, emits a {RoleRevoked} event. Requirements: - the caller must be `callerConfirmation`. May emit a {RoleRevoked} event."
      },
      "revokeRole(bytes32,address)": {
        "details": "Revokes `role` from `account`. If `account` had been granted `role`, emits a {RoleRevoked} event. Requirements: - the caller must have ``role``'s admin role. May emit a {RoleRevoked} event."
      },
      "setDelegate(address)": {
        "details": "Only the owner/admin of the OApp can call this function.Provides the ability for a delegate to set configs, on behalf of the OApp, directly on the Endpoint contract.",
        "params": {
          "_delegate": "The address of the delegate to be set."
        }
      },
      "setPeer(uint32,bytes32)": {
        "details": "Only the owner/admin of the OApp can call this function.Indicates that the peer is trusted to send LayerZero messages to this OApp.Set this to bytes32(0) to remove the peer address.Peer is a bytes32 to accommodate non-evm chains.",
        "params": {
          "_eid": "The endpoint ID.",
          "_peer": "The address of the peer to be associated with the corresponding endpoint."
        }
      },
      "supportsInterface(bytes4)": {
        "details": "See {IERC165-supportsInterface}."
      },
      "transferOwnership(address)": {
        "details": "Transfers ownership of the contract to a new account (`newOwner`). Can only be called by the current owner."
      }
    },
    "version": 1
  },
  "userdoc": {
    "kind": "user",
    "methods": {
      "allowInitializePath((uint32,bytes32,uint64))": {
        "notice": "Checks if the path initialization is allowed based on the provided origin."
      },
      "endpoint()": {
        "notice": "Retrieves the LayerZero endpoint associated with the OApp."
      },
      "isComposeMsgSender((uint32,bytes32,uint64),bytes,address)": {
        "notice": "Indicates whether an address is an approved composeMsg sender to the Endpoint."
      },
      "nextNonce(uint32,bytes32)": {
        "notice": "Retrieves the next nonce for a given source endpoint and sender address."
      },
      "oAppVersion()": {
        "notice": "Retrieves the OApp version information."
      },
      "peers(uint32)": {
        "notice": "Retrieves the peer (OApp) associated with a corresponding endpoint."
      },
      "setDelegate(address)": {
        "notice": "Sets the delegate address for the OApp."
      },
      "setPeer(uint32,bytes32)": {
        "notice": "Sets the peer address (OApp instance) for a corresponding endpoint."
      }
    },
    "version": 1
  },
  "storageLayout": {
    "storage": [
      {
        "astId": 4915,
        "contract": "contracts/evm/Station.sol:Station",
        "label": "_owner",
        "offset": 0,
        "slot": "0",
        "type": "t_address"
      },
      {
        "astId": 3994,
        "contract": "contracts/evm/Station.sol:Station",
        "label": "peers",
        "offset": 0,
        "slot": "1",
        "type": "t_mapping(t_uint32,t_bytes32)"
      },
      {
        "astId": 4554,
        "contract": "contracts/evm/Station.sol:Station",
        "label": "_roles",
        "offset": 0,
        "slot": "2",
        "type": "t_mapping(t_bytes32,t_struct(RoleData)4549_storage)"
      },
      {
        "astId": 7215,
        "contract": "contracts/evm/Station.sol:Station",
        "label": "feeManager",
        "offset": 0,
        "slot": "3",
        "type": "t_contract(IFeeManager)7566"
      },
      {
        "astId": 7217,
        "contract": "contracts/evm/Station.sol:Station",
        "label": "feeCollector",
        "offset": 0,
        "slot": "4",
        "type": "t_address"
      },
      {
        "astId": 7222,
        "contract": "contracts/evm/Station.sol:Station",
        "label": "chains",
        "offset": 0,
        "slot": "5",
        "type": "t_mapping(t_bytes32,t_struct(Chain)7194_storage)"
      },
      {
        "astId": 7227,
        "contract": "contracts/evm/Station.sol:Station",
        "label": "tokens",
        "offset": 0,
        "slot": "6",
        "type": "t_mapping(t_address,t_struct(Token)7203_storage)"
      },
      {
        "astId": 7232,
        "contract": "contracts/evm/Station.sol:Station",
        "label": "MANAGER_ROLE",
        "offset": 0,
        "slot": "7",
        "type": "t_bytes32"
      }
    ],
    "types": {
      "t_address": {
        "encoding": "inplace",
        "label": "address",
        "numberOfBytes": "20"
      },
      "t_bool": {
        "encoding": "inplace",
        "label": "bool",
        "numberOfBytes": "1"
      },
      "t_bytes32": {
        "encoding": "inplace",
        "label": "bytes32",
        "numberOfBytes": "32"
      },
      "t_contract(IFeeManager)7566": {
        "encoding": "inplace",
        "label": "contract IFeeManager",
        "numberOfBytes": "20"
      },
      "t_mapping(t_address,t_bool)": {
        "encoding": "mapping",
        "key": "t_address",
        "label": "mapping(address => bool)",
        "numberOfBytes": "32",
        "value": "t_bool"
      },
      "t_mapping(t_address,t_struct(Token)7203_storage)": {
        "encoding": "mapping",
        "key": "t_address",
        "label": "mapping(address => struct Station.Token)",
        "numberOfBytes": "32",
        "value": "t_struct(Token)7203_storage"
      },
      "t_mapping(t_bytes32,t_struct(Chain)7194_storage)": {
        "encoding": "mapping",
        "key": "t_bytes32",
        "label": "mapping(bytes32 => struct Station.Chain)",
        "numberOfBytes": "32",
        "value": "t_struct(Chain)7194_storage"
      },
      "t_mapping(t_bytes32,t_struct(RoleData)4549_storage)": {
        "encoding": "mapping",
        "key": "t_bytes32",
        "label": "mapping(bytes32 => struct AccessControl.RoleData)",
        "numberOfBytes": "32",
        "value": "t_struct(RoleData)4549_storage"
      },
      "t_mapping(t_uint32,t_bytes32)": {
        "encoding": "mapping",
        "key": "t_uint32",
        "label": "mapping(uint32 => bytes32)",
        "numberOfBytes": "32",
        "value": "t_bytes32"
      },
      "t_string_storage": {
        "encoding": "bytes",
        "label": "string",
        "numberOfBytes": "32"
      },
      "t_struct(Chain)7194_storage": {
        "encoding": "inplace",
        "label": "struct Station.Chain",
        "members": [
          {
            "astId": 7185,
            "contract": "contracts/evm/Station.sol:Station",
            "label": "chainName",
            "offset": 0,
            "slot": "0",
            "type": "t_string_storage"
          },
          {
            "astId": 7187,
            "contract": "contracts/evm/Station.sol:Station",
            "label": "isSupported",
            "offset": 0,
            "slot": "1",
            "type": "t_bool"
          },
          {
            "astId": 7191,
            "contract": "contracts/evm/Station.sol:Station",
            "label": "supportedTokens",
            "offset": 0,
            "slot": "2",
            "type": "t_mapping(t_address,t_bool)"
          },
          {
            "astId": 7193,
            "contract": "contracts/evm/Station.sol:Station",
            "label": "layerZeroDestinationId",
            "offset": 0,
            "slot": "3",
            "type": "t_uint32"
          }
        ],
        "numberOfBytes": "128"
      },
      "t_struct(RoleData)4549_storage": {
        "encoding": "inplace",
        "label": "struct AccessControl.RoleData",
        "members": [
          {
            "astId": 4546,
            "contract": "contracts/evm/Station.sol:Station",
            "label": "hasRole",
            "offset": 0,
            "slot": "0",
            "type": "t_mapping(t_address,t_bool)"
          },
          {
            "astId": 4548,
            "contract": "contracts/evm/Station.sol:Station",
            "label": "adminRole",
            "offset": 0,
            "slot": "1",
            "type": "t_bytes32"
          }
        ],
        "numberOfBytes": "64"
      },
      "t_struct(Token)7203_storage": {
        "encoding": "inplace",
        "label": "struct Station.Token",
        "members": [
          {
            "astId": 7196,
            "contract": "contracts/evm/Station.sol:Station",
            "label": "deposits",
            "offset": 0,
            "slot": "0",
            "type": "t_uint256"
          },
          {
            "astId": 7198,
            "contract": "contracts/evm/Station.sol:Station",
            "label": "isPaused",
            "offset": 0,
            "slot": "1",
            "type": "t_bool"
          },
          {
            "astId": 7200,
            "contract": "contracts/evm/Station.sol:Station",
            "label": "isActive",
            "offset": 1,
            "slot": "1",
            "type": "t_bool"
          },
          {
            "astId": 7202,
            "contract": "contracts/evm/Station.sol:Station",
            "label": "isStable",
            "offset": 2,
            "slot": "1",
            "type": "t_bool"
          }
        ],
        "numberOfBytes": "64"
      },
      "t_uint256": {
        "encoding": "inplace",
        "label": "uint256",
        "numberOfBytes": "32"
      },
      "t_uint32": {
        "encoding": "inplace",
        "label": "uint32",
        "numberOfBytes": "4"
      }
    }
  }
}