{
  "address": "0xEf49E2363e55162058bACd1E54364AB4231822c3",
  "abi": [
    {
      "inputs": [],
      "stateMutability": "nonpayable",
      "type": "constructor"
    },
    {
      "inputs": [],
      "name": "AccessControlBadConfirmation",
      "type": "error"
    },
    {
      "inputs": [
        {
          "internalType": "address",
          "name": "account",
          "type": "address"
        },
        {
          "internalType": "bytes32",
          "name": "neededRole",
          "type": "bytes32"
        }
      ],
      "name": "AccessControlUnauthorizedAccount",
      "type": "error"
    },
    {
      "anonymous": false,
      "inputs": [
        {
          "indexed": true,
          "internalType": "bytes32",
          "name": "role",
          "type": "bytes32"
        },
        {
          "indexed": true,
          "internalType": "bytes32",
          "name": "previousAdminRole",
          "type": "bytes32"
        },
        {
          "indexed": true,
          "internalType": "bytes32",
          "name": "newAdminRole",
          "type": "bytes32"
        }
      ],
      "name": "RoleAdminChanged",
      "type": "event"
    },
    {
      "anonymous": false,
      "inputs": [
        {
          "indexed": true,
          "internalType": "bytes32",
          "name": "role",
          "type": "bytes32"
        },
        {
          "indexed": true,
          "internalType": "address",
          "name": "account",
          "type": "address"
        },
        {
          "indexed": true,
          "internalType": "address",
          "name": "sender",
          "type": "address"
        }
      ],
      "name": "RoleGranted",
      "type": "event"
    },
    {
      "anonymous": false,
      "inputs": [
        {
          "indexed": true,
          "internalType": "bytes32",
          "name": "role",
          "type": "bytes32"
        },
        {
          "indexed": true,
          "internalType": "address",
          "name": "account",
          "type": "address"
        },
        {
          "indexed": true,
          "internalType": "address",
          "name": "sender",
          "type": "address"
        }
      ],
      "name": "RoleRevoked",
      "type": "event"
    },
    {
      "anonymous": false,
      "inputs": [
        {
          "indexed": false,
          "internalType": "address",
          "name": "tokenAddress",
          "type": "address"
        },
        {
          "indexed": false,
          "internalType": "uint256",
          "name": "customFee",
          "type": "uint256"
        },
        {
          "indexed": false,
          "internalType": "uint256",
          "name": "minThreshold",
          "type": "uint256"
        },
        {
          "indexed": false,
          "internalType": "uint8",
          "name": "tokenType",
          "type": "uint8"
        }
      ],
      "name": "TokenFeeConfigured",
      "type": "event"
    },
    {
      "anonymous": false,
      "inputs": [
        {
          "indexed": false,
          "internalType": "address",
          "name": "tokenAddress",
          "type": "address"
        }
      ],
      "name": "TokenRemoved",
      "type": "event"
    },
    {
      "inputs": [],
      "name": "DEFAULT_ADMIN_ROLE",
      "outputs": [
        {
          "internalType": "bytes32",
          "name": "",
          "type": "bytes32"
        }
      ],
      "stateMutability": "view",
      "type": "function"
    },
    {
      "inputs": [],
      "name": "DEFAULT_FEE",
      "outputs": [
        {
          "internalType": "uint256",
          "name": "",
          "type": "uint256"
        }
      ],
      "stateMutability": "view",
      "type": "function"
    },
    {
      "inputs": [],
      "name": "FEE_DENOMINATOR",
      "outputs": [
        {
          "internalType": "uint256",
          "name": "",
          "type": "uint256"
        }
      ],
      "stateMutability": "view",
      "type": "function"
    },
    {
      "inputs": [],
      "name": "MANAGER_ROLE",
      "outputs": [
        {
          "internalType": "bytes32",
          "name": "",
          "type": "bytes32"
        }
      ],
      "stateMutability": "view",
      "type": "function"
    },
    {
      "inputs": [
        {
          "internalType": "uint256",
          "name": "amount",
          "type": "uint256"
        },
        {
          "internalType": "address",
          "name": "user",
          "type": "address"
        },
        {
          "internalType": "uint8",
          "name": "decimals",
          "type": "uint8"
        }
      ],
      "name": "calculateFees",
      "outputs": [
        {
          "internalType": "uint256",
          "name": "userAmount",
          "type": "uint256"
        },
        {
          "internalType": "uint256",
          "name": "protocolFee",
          "type": "uint256"
        }
      ],
      "stateMutability": "view",
      "type": "function"
    },
    {
      "inputs": [
        {
          "internalType": "address",
          "name": "tokenAddress",
          "type": "address"
        },
        {
          "internalType": "uint256",
          "name": "customFee",
          "type": "uint256"
        },
        {
          "internalType": "uint256",
          "name": "minThreshold",
          "type": "uint256"
        },
        {
          "internalType": "uint256",
          "name": "tokenId",
          "type": "uint256"
        },
        {
          "internalType": "uint8",
          "name": "tokenType",
          "type": "uint8"
        }
      ],
      "name": "configureTokenFee",
      "outputs": [],
      "stateMutability": "nonpayable",
      "type": "function"
    },
    {
      "inputs": [
        {
          "internalType": "uint256",
          "name": "",
          "type": "uint256"
        }
      ],
      "name": "feeTokens",
      "outputs": [
        {
          "internalType": "uint256",
          "name": "fee",
          "type": "uint256"
        },
        {
          "internalType": "uint256",
          "name": "minThreshold",
          "type": "uint256"
        },
        {
          "internalType": "address",
          "name": "tokenAddress",
          "type": "address"
        },
        {
          "internalType": "uint8",
          "name": "tokenType",
          "type": "uint8"
        },
        {
          "internalType": "uint256",
          "name": "tokenId",
          "type": "uint256"
        }
      ],
      "stateMutability": "view",
      "type": "function"
    },
    {
      "inputs": [
        {
          "internalType": "address",
          "name": "user",
          "type": "address"
        }
      ],
      "name": "getApplicableFee",
      "outputs": [
        {
          "internalType": "uint256",
          "name": "",
          "type": "uint256"
        }
      ],
      "stateMutability": "view",
      "type": "function"
    },
    {
      "inputs": [
        {
          "internalType": "uint256",
          "name": "amount",
          "type": "uint256"
        },
        {
          "internalType": "address",
          "name": "user",
          "type": "address"
        },
        {
          "internalType": "uint8",
          "name": "decimals",
          "type": "uint8"
        }
      ],
      "name": "getFeeBreakdown",
      "outputs": [
        {
          "internalType": "uint256",
          "name": "userAmount",
          "type": "uint256"
        },
        {
          "internalType": "uint256",
          "name": "protocolFee",
          "type": "uint256"
        }
      ],
      "stateMutability": "view",
      "type": "function"
    },
    {
      "inputs": [
        {
          "internalType": "bytes32",
          "name": "role",
          "type": "bytes32"
        }
      ],
      "name": "getRoleAdmin",
      "outputs": [
        {
          "internalType": "bytes32",
          "name": "",
          "type": "bytes32"
        }
      ],
      "stateMutability": "view",
      "type": "function"
    },
    {
      "inputs": [
        {
          "internalType": "bytes32",
          "name": "role",
          "type": "bytes32"
        },
        {
          "internalType": "address",
          "name": "account",
          "type": "address"
        }
      ],
      "name": "grantRole",
      "outputs": [],
      "stateMutability": "nonpayable",
      "type": "function"
    },
    {
      "inputs": [
        {
          "internalType": "bytes32",
          "name": "role",
          "type": "bytes32"
        },
        {
          "internalType": "address",
          "name": "account",
          "type": "address"
        }
      ],
      "name": "hasRole",
      "outputs": [
        {
          "internalType": "bool",
          "name": "",
          "type": "bool"
        }
      ],
      "stateMutability": "view",
      "type": "function"
    },
    {
      "inputs": [
        {
          "internalType": "address",
          "name": "user",
          "type": "address"
        }
      ],
      "name": "meetsCustomFeeRequirement",
      "outputs": [
        {
          "internalType": "bool",
          "name": "",
          "type": "bool"
        }
      ],
      "stateMutability": "view",
      "type": "function"
    },
    {
      "inputs": [
        {
          "internalType": "address",
          "name": "tokenAddress",
          "type": "address"
        }
      ],
      "name": "removeToken",
      "outputs": [],
      "stateMutability": "nonpayable",
      "type": "function"
    },
    {
      "inputs": [
        {
          "internalType": "bytes32",
          "name": "role",
          "type": "bytes32"
        },
        {
          "internalType": "address",
          "name": "callerConfirmation",
          "type": "address"
        }
      ],
      "name": "renounceRole",
      "outputs": [],
      "stateMutability": "nonpayable",
      "type": "function"
    },
    {
      "inputs": [
        {
          "internalType": "bytes32",
          "name": "role",
          "type": "bytes32"
        },
        {
          "internalType": "address",
          "name": "account",
          "type": "address"
        }
      ],
      "name": "revokeRole",
      "outputs": [],
      "stateMutability": "nonpayable",
      "type": "function"
    },
    {
      "inputs": [
        {
          "internalType": "bytes4",
          "name": "interfaceId",
          "type": "bytes4"
        }
      ],
      "name": "supportsInterface",
      "outputs": [
        {
          "internalType": "bool",
          "name": "",
          "type": "bool"
        }
      ],
      "stateMutability": "view",
      "type": "function"
    }
  ],
  "transactionHash": "0x1b78c03fec2d0436e4231e5087dd2e1ac713c0d464c8607e6442558039a48816",
  "args": [],
  "numDeployments": 1,
  "solcInputHash": "5d334e1c7eb40a322fd4568852e851a9",
  "bytecode": "0x608060405234801561000f575f80fd5b5061001a5f33610020565b506100c9565b5f828152602081815260408083206001600160a01b038516845290915281205460ff166100c0575f838152602081815260408083206001600160a01b03861684529091529020805460ff191660011790556100783390565b6001600160a01b0316826001600160a01b0316847f2f8788117e7eff1d82e926ec794901d17c78024a50270940304540a733656f0d60405160405180910390a45060016100c3565b505f5b92915050565b611032806100d65f395ff3fe608060405234801561000f575f80fd5b5060043610610106575f3560e01c806391d148541161009e578063d542d5241161006e578063d542d52414610258578063d547741f1461026b578063d73792a91461027e578063df023aa214610287578063ec87621c1461029a575f80fd5b806391d1485414610218578063a217fddf1461022b578063ad10d49314610232578063cedaece714610245575f80fd5b80633a552ae6116100d95780633a552ae61461018a5780634fcc1def146101b25780635fa7b584146101ba5780638ef4403c146101cd575f80fd5b806301ffc9a71461010a578063248a9ca3146101325780632f2ff15d1461016257806336568abe14610177575b5f80fd5b61011d610118366004610d21565b6102c1565b60405190151581526020015b60405180910390f35b610154610140366004610d4f565b5f9081526020819052604090206001015490565b604051908152602001610129565b610175610170366004610d81565b6102f7565b005b610175610185366004610d81565b610321565b61019d610198366004610dbb565b610359565b60408051928352602083019190915201610129565b610154609681565b6101756101c8366004610df4565b6104a6565b6101e06101db366004610d4f565b6106fa565b6040805195865260208601949094526001600160a01b039092169284019290925260ff9091166060830152608082015260a001610129565b61011d610226366004610d81565b610748565b6101545f81565b610154610240366004610df4565b610770565b61011d610253366004610df4565b610977565b61019d610266366004610dbb565b61098b565b610175610279366004610d81565b6109a4565b61015461271081565b610175610295366004610e0d565b6109c8565b6101547f241ecf16d79d0f8dbfb92cbc07fe17840425976cf0667f022fe9877caa831b0881565b5f6001600160e01b03198216637965db0b60e01b14806102f157506301ffc9a760e01b6001600160e01b03198316145b92915050565b5f8281526020819052604090206001015461031181610bdf565b61031b8383610bec565b50505050565b6001600160a01b038116331461034a5760405163334bd91960e11b815260040160405180910390fd5b6103548282610c7b565b505050565b5f805f61036585610770565b90506127106103748288610e6d565b61037e9190610e84565b91508115801561038d57505f86115b1561044c5760128460ff1611156103eb5760405162461bcd60e51b815260206004820152601760248201527f546f6b656e20646563696d616c7320746f6f206869676800000000000000000060448201526064015b60405180910390fd5b5f8460ff16116104335760405162461bcd60e51b81526020600482015260136024820152720446563696d616c732043616e2774206265203606c1b60448201526064016103e2565b61043e846012610ea3565b61044990600a610f9c565b91505b858211156104915760405162461bcd60e51b815260206004820152601260248201527111995948195e18d959591cc8185b5bdd5b9d60721b60448201526064016103e2565b61049b8287610faa565b925050935093915050565b7f241ecf16d79d0f8dbfb92cbc07fe17840425976cf0667f022fe9877caa831b086104d081610bdf565b6001600160a01b03821661051e5760405162461bcd60e51b8152602060048201526015602482015274496e76616c696420746f6b656e206164647265737360581b60448201526064016103e2565b6001545f19905f5b8181101561057c57846001600160a01b03166001828154811061054b5761054b610fbd565b5f9182526020909120600260049092020101546001600160a01b0316036105745780925061057c565b600101610526565b505f1982036105bf5760405162461bcd60e51b815260206004820152600f60248201526e151bdad95b881b9bdd08199bdd5b99608a1b60448201526064016103e2565b600180546105ce908290610faa565b815481106105de576105de610fbd565b905f5260205f209060040201600183815481106105fd576105fd610fbd565b5f91825260209091208254600490920201908155600180830154818301556002808401805491840180546001600160a01b031981166001600160a01b039094169384178255915460ff600160a01b9182900416026001600160a81b0319909216909217179055600392830154929091019190915580548061068057610680610fd1565b5f828152602080822060045f199490940193840201828155600181018390556002810180546001600160a81b03191690556003019190915591556040516001600160a01b03861681527f4c910b69fe65a61f7531b9c5042b2329ca7179c77290aa7e2eb3afa3c8511fd3910160405180910390a150505050565b60018181548110610709575f80fd5b5f9182526020909120600490910201805460018201546002830154600390930154919350916001600160a01b03811691600160a01b90910460ff169085565b5f918252602082815260408084206001600160a01b0393909316845291905290205460ff1690565b6001545f90609690825b8181101561096e575f6001828154811061079657610796610fbd565b5f91825260208083206040805160a081018252600494909402909101805484526001808201549385019390935260028101546001600160a01b03811692850192909252600160a01b90910460ff166060840181905260039091015460808401529193500361087d5760408083015190516370a0823160e01b81526001600160a01b0389811660048301525f9216906370a08231906024015b602060405180830381865afa158015610849573d5f803e3d5ffd5b505050506040513d601f19601f8201168201806040525081019061086d9190610fe5565b6020840151111591506109559050565b816060015160ff166002036108c05760408083015190516370a0823160e01b81526001600160a01b0389811660048301525f9216906370a082319060240161082e565b816060015160ff166003036109555760408083015160808401519151627eeac760e11b81526001600160a01b038a8116600483015260248201939093525f929091169062fdd58e90604401602060405180830381865afa158015610926573d5f803e3d5ffd5b505050506040513d601f19601f8201168201806040525081019061094a9190610fe5565b602084015111159150505b8015610964575051925061096e565b505060010161077a565b50909392505050565b5f609661098383610770565b141592915050565b5f80610998858585610359565b91509150935093915050565b5f828152602081905260409020600101546109be81610bdf565b61031b8383610c7b565b7f241ecf16d79d0f8dbfb92cbc07fe17840425976cf0667f022fe9877caa831b086109f281610bdf565b6001600160a01b038616610a405760405162461bcd60e51b8152602060048201526015602482015274496e76616c696420746f6b656e206164647265737360581b60448201526064016103e2565b612710851115610a855760405162461bcd60e51b815260206004820152601060248201526f4665652065786365656473203130302560801b60448201526064016103e2565b6040805160a08101825286815260208082018781526001600160a01b038a811684860181815260ff89811660608089018281526080808b018f81526001805480820182555f919091529b516004909c027fb10e2d527612073b26eecdfd717e6a320cf44b4afac2b0732d9fcbe2b7fa0cf681019c909c5598517fb10e2d527612073b26eecdfd717e6a320cf44b4afac2b0732d9fcbe2b7fa0cf78c015594517fb10e2d527612073b26eecdfd717e6a320cf44b4afac2b0732d9fcbe2b7fa0cf88b0180549251909516600160a01b026001600160a81b03199092169716969096179590951790915593517fb10e2d527612073b26eecdfd717e6a320cf44b4afac2b0732d9fcbe2b7fa0cf99096019590955585519081529283018a905282850189905282015291517f4518af97d43d63290f200db96d6afec3152ac498d23eaaecd409fb5a8c2a8b399281900390910190a1505050505050565b610be98133610ce4565b50565b5f610bf78383610748565b610c74575f838152602081815260408083206001600160a01b03861684529091529020805460ff19166001179055610c2c3390565b6001600160a01b0316826001600160a01b0316847f2f8788117e7eff1d82e926ec794901d17c78024a50270940304540a733656f0d60405160405180910390a45060016102f1565b505f6102f1565b5f610c868383610748565b15610c74575f838152602081815260408083206001600160a01b0386168085529252808320805460ff1916905551339286917ff6391f5c32d9c69d2a47ea670b442974b53935d1edc7fd64eb21e047a839171b9190a45060016102f1565b610cee8282610748565b610d1d5760405163e2517d3f60e01b81526001600160a01b0382166004820152602481018390526044016103e2565b5050565b5f60208284031215610d31575f80fd5b81356001600160e01b031981168114610d48575f80fd5b9392505050565b5f60208284031215610d5f575f80fd5b5035919050565b80356001600160a01b0381168114610d7c575f80fd5b919050565b5f8060408385031215610d92575f80fd5b82359150610da260208401610d66565b90509250929050565b803560ff81168114610d7c575f80fd5b5f805f60608486031215610dcd575f80fd5b83359250610ddd60208501610d66565b9150610deb60408501610dab565b90509250925092565b5f60208284031215610e04575f80fd5b610d4882610d66565b5f805f805f60a08688031215610e21575f80fd5b610e2a86610d66565b9450602086013593506040860135925060608601359150610e4d60808701610dab565b90509295509295909350565b634e487b7160e01b5f52601160045260245ffd5b80820281158282048414176102f1576102f1610e59565b5f82610e9e57634e487b7160e01b5f52601260045260245ffd5b500490565b60ff82811682821603908111156102f1576102f1610e59565b600181815b80851115610ef657815f1904821115610edc57610edc610e59565b80851615610ee957918102915b93841c9390800290610ec1565b509250929050565b5f82610f0c575060016102f1565b81610f1857505f6102f1565b8160018114610f2e5760028114610f3857610f54565b60019150506102f1565b60ff841115610f4957610f49610e59565b50506001821b6102f1565b5060208310610133831016604e8410600b8410161715610f77575081810a6102f1565b610f818383610ebc565b805f1904821115610f9457610f94610e59565b029392505050565b5f610d4860ff841683610efe565b818103818111156102f1576102f1610e59565b634e487b7160e01b5f52603260045260245ffd5b634e487b7160e01b5f52603160045260245ffd5b5f60208284031215610ff5575f80fd5b505191905056fea26469706673582212205a707027ad2dcae804064986b77ef2e16d544deaa9f51a4d2fd7338cb3ae37ef64736f6c63430008180033",
  "devdoc": {
    "errors": {
      "AccessControlBadConfirmation()": [
        {
          "details": "The caller of a function is not the expected one. NOTE: Don't confuse with {AccessControlUnauthorizedAccount}."
        }
      ],
      "AccessControlUnauthorizedAccount(address,bytes32)": [
        {
          "details": "The `account` is missing a role."
        }
      ]
    },
    "events": {
      "RoleAdminChanged(bytes32,bytes32,bytes32)": {
        "details": "Emitted when `newAdminRole` is set as ``role``'s admin role, replacing `previousAdminRole` `DEFAULT_ADMIN_ROLE` is the starting admin for all roles, despite {RoleAdminChanged} not being emitted signaling this."
      },
      "RoleGranted(bytes32,address,address)": {
        "details": "Emitted when `account` is granted `role`. `sender` is the account that originated the contract call. This account bears the admin role (for the granted role). Expected in cases where the role was granted using the internal {AccessControl-_grantRole}."
      },
      "RoleRevoked(bytes32,address,address)": {
        "details": "Emitted when `account` is revoked `role`. `sender` is the account that originated the contract call:   - if using `revokeRole`, it is the admin role bearer   - if using `renounceRole`, it is the role bearer (i.e. `account`)"
      }
    },
    "kind": "dev",
    "methods": {
      "getRoleAdmin(bytes32)": {
        "details": "Returns the admin role that controls `role`. See {grantRole} and {revokeRole}. To change a role's admin, use {_setRoleAdmin}."
      },
      "grantRole(bytes32,address)": {
        "details": "Grants `role` to `account`. If `account` had not been already granted `role`, emits a {RoleGranted} event. Requirements: - the caller must have ``role``'s admin role. May emit a {RoleGranted} event."
      },
      "hasRole(bytes32,address)": {
        "details": "Returns `true` if `account` has been granted `role`."
      },
      "renounceRole(bytes32,address)": {
        "details": "Revokes `role` from the calling account. Roles are often managed via {grantRole} and {revokeRole}: this function's purpose is to provide a mechanism for accounts to lose their privileges if they are compromised (such as when a trusted device is misplaced). If the calling account had been revoked `role`, emits a {RoleRevoked} event. Requirements: - the caller must be `callerConfirmation`. May emit a {RoleRevoked} event."
      },
      "revokeRole(bytes32,address)": {
        "details": "Revokes `role` from `account`. If `account` had been granted `role`, emits a {RoleRevoked} event. Requirements: - the caller must have ``role``'s admin role. May emit a {RoleRevoked} event."
      },
      "supportsInterface(bytes4)": {
        "details": "See {IERC165-supportsInterface}."
      }
    },
    "version": 1
  },
  "userdoc": {
    "kind": "user",
    "methods": {},
    "version": 1
  },
  "storageLayout": {
    "storage": [
      {
        "astId": 26,
        "contract": "contracts/fees/FeeManager.sol:FeeManager",
        "label": "_roles",
        "offset": 0,
        "slot": "0",
        "type": "t_mapping(t_bytes32,t_struct(RoleData)21_storage)"
      },
      {
        "astId": 796,
        "contract": "contracts/fees/FeeManager.sol:FeeManager",
        "label": "feeTokens",
        "offset": 0,
        "slot": "1",
        "type": "t_array(t_struct(TokenConfig)792_storage)dyn_storage"
      }
    ],
    "types": {
      "t_address": {
        "encoding": "inplace",
        "label": "address",
        "numberOfBytes": "20"
      },
      "t_array(t_struct(TokenConfig)792_storage)dyn_storage": {
        "base": "t_struct(TokenConfig)792_storage",
        "encoding": "dynamic_array",
        "label": "struct FeeManager.TokenConfig[]",
        "numberOfBytes": "32"
      },
      "t_bool": {
        "encoding": "inplace",
        "label": "bool",
        "numberOfBytes": "1"
      },
      "t_bytes32": {
        "encoding": "inplace",
        "label": "bytes32",
        "numberOfBytes": "32"
      },
      "t_mapping(t_address,t_bool)": {
        "encoding": "mapping",
        "key": "t_address",
        "label": "mapping(address => bool)",
        "numberOfBytes": "32",
        "value": "t_bool"
      },
      "t_mapping(t_bytes32,t_struct(RoleData)21_storage)": {
        "encoding": "mapping",
        "key": "t_bytes32",
        "label": "mapping(bytes32 => struct AccessControl.RoleData)",
        "numberOfBytes": "32",
        "value": "t_struct(RoleData)21_storage"
      },
      "t_struct(RoleData)21_storage": {
        "encoding": "inplace",
        "label": "struct AccessControl.RoleData",
        "members": [
          {
            "astId": 18,
            "contract": "contracts/fees/FeeManager.sol:FeeManager",
            "label": "hasRole",
            "offset": 0,
            "slot": "0",
            "type": "t_mapping(t_address,t_bool)"
          },
          {
            "astId": 20,
            "contract": "contracts/fees/FeeManager.sol:FeeManager",
            "label": "adminRole",
            "offset": 0,
            "slot": "1",
            "type": "t_bytes32"
          }
        ],
        "numberOfBytes": "64"
      },
      "t_struct(TokenConfig)792_storage": {
        "encoding": "inplace",
        "label": "struct FeeManager.TokenConfig",
        "members": [
          {
            "astId": 783,
            "contract": "contracts/fees/FeeManager.sol:FeeManager",
            "label": "fee",
            "offset": 0,
            "slot": "0",
            "type": "t_uint256"
          },
          {
            "astId": 785,
            "contract": "contracts/fees/FeeManager.sol:FeeManager",
            "label": "minThreshold",
            "offset": 0,
            "slot": "1",
            "type": "t_uint256"
          },
          {
            "astId": 787,
            "contract": "contracts/fees/FeeManager.sol:FeeManager",
            "label": "tokenAddress",
            "offset": 0,
            "slot": "2",
            "type": "t_address"
          },
          {
            "astId": 789,
            "contract": "contracts/fees/FeeManager.sol:FeeManager",
            "label": "tokenType",
            "offset": 20,
            "slot": "2",
            "type": "t_uint8"
          },
          {
            "astId": 791,
            "contract": "contracts/fees/FeeManager.sol:FeeManager",
            "label": "tokenId",
            "offset": 0,
            "slot": "3",
            "type": "t_uint256"
          }
        ],
        "numberOfBytes": "128"
      },
      "t_uint256": {
        "encoding": "inplace",
        "label": "uint256",
        "numberOfBytes": "32"
      },
      "t_uint8": {
        "encoding": "inplace",
        "label": "uint8",
        "numberOfBytes": "1"
      }
    }
  }
}