{
  "address": "0x850D96eBc2b5D5e3C0FB6999259f5902c4F27e6D",
  "abi": [
    {
      "inputs": [
        {
          "internalType": "address",
          "name": "_feeCollector",
          "type": "address"
        },
        {
          "internalType": "contract IFeeManager",
          "name": "_feeManager",
          "type": "address"
        }
      ],
      "stateMutability": "nonpayable",
      "type": "constructor"
    },
    {
      "inputs": [],
      "name": "ReentrancyGuardReentrantCall",
      "type": "error"
    },
    {
      "inputs": [
        {
          "internalType": "address",
          "name": "token",
          "type": "address"
        }
      ],
      "name": "SafeERC20FailedOperation",
      "type": "error"
    },
    {
      "anonymous": false,
      "inputs": [
        {
          "indexed": true,
          "internalType": "address",
          "name": "sender",
          "type": "address"
        },
        {
          "indexed": true,
          "internalType": "uint32",
          "name": "dstChainId",
          "type": "uint32"
        },
        {
          "indexed": false,
          "internalType": "uint256",
          "name": "amount",
          "type": "uint256"
        },
        {
          "indexed": false,
          "internalType": "uint256",
          "name": "fee",
          "type": "uint256"
        }
      ],
      "name": "BridgeInitiated",
      "type": "event"
    },
    {
      "inputs": [
        {
          "internalType": "address",
          "name": "token",
          "type": "address"
        },
        {
          "components": [
            {
              "internalType": "uint32",
              "name": "dstEid",
              "type": "uint32"
            },
            {
              "internalType": "bytes32",
              "name": "to",
              "type": "bytes32"
            },
            {
              "internalType": "uint256",
              "name": "amountLD",
              "type": "uint256"
            },
            {
              "internalType": "uint256",
              "name": "minAmountLD",
              "type": "uint256"
            },
            {
              "internalType": "bytes",
              "name": "extraOptions",
              "type": "bytes"
            },
            {
              "internalType": "bytes",
              "name": "composeMsg",
              "type": "bytes"
            },
            {
              "internalType": "bytes",
              "name": "oftCmd",
              "type": "bytes"
            }
          ],
          "internalType": "struct SendParam",
          "name": "sendParam",
          "type": "tuple"
        },
        {
          "components": [
            {
              "internalType": "uint256",
              "name": "nativeFee",
              "type": "uint256"
            },
            {
              "internalType": "uint256",
              "name": "lzTokenFee",
              "type": "uint256"
            }
          ],
          "internalType": "struct MessagingFee",
          "name": "fee",
          "type": "tuple"
        }
      ],
      "name": "bridge",
      "outputs": [],
      "stateMutability": "payable",
      "type": "function"
    },
    {
      "inputs": [],
      "name": "feeCollector",
      "outputs": [
        {
          "internalType": "address",
          "name": "",
          "type": "address"
        }
      ],
      "stateMutability": "view",
      "type": "function"
    },
    {
      "inputs": [],
      "name": "feeManager",
      "outputs": [
        {
          "internalType": "contract IFeeManager",
          "name": "",
          "type": "address"
        }
      ],
      "stateMutability": "view",
      "type": "function"
    },
    {
      "stateMutability": "payable",
      "type": "receive"
    }
  ],
  "transactionHash": "0xeb171bdc7a832ae9fea3060ccbe1f902cdbc18786195eb232f9382fece87e905",
  "args": [
    "0x8965fc7537747Ff60FE141298Bc76563DF976030",
    "0xa94a2ABAB93a6bF9ad634110845eCC71e0825533"
  ],
  "numDeployments": 1,
  "solcInputHash": "8d85b86ba69b6297444f2b4fd7be4d4e",
  "bytecode": "0x608060405234801561000f575f80fd5b50604051610a3e380380610a3e83398101604081905261002e916100e0565b60015f556001600160a01b0382166100985760405162461bcd60e51b815260206004820152602360248201527f46656520436f6c6c6563746f722041646472657373204d757374204e6f74204260448201526206520360ec1b606482015260840160405180910390fd5b600280546001600160a01b039384166001600160a01b03199182161790915560018054929093169116179055610118565b6001600160a01b03811681146100dd575f80fd5b50565b5f80604083850312156100f1575f80fd5b82516100fc816100c9565b602084015190925061010d816100c9565b809150509250929050565b610919806101255f395ff3fe608060405260043610610036575f3560e01c80632401964614610041578063c415b95c14610056578063d0fb020314610091575f80fd5b3661003d57005b5f80fd5b61005461004f366004610589565b6100b0565b005b348015610061575f80fd5b50600254610075906001600160a01b031681565b6040516001600160a01b03909116815260200160405180910390f35b34801561009c575f80fd5b50600154610075906001600160a01b031681565b6100b8610324565b6001546040830151849182915f9182916001600160a01b039091169063d542d5249033866001600160a01b031663313ce5676040518163ffffffff1660e01b8152600401602060405180830381865afa158015610117573d5f803e3d5ffd5b505050506040513d601f19601f8201168201806040525081019061013b9190610696565b6040516001600160e01b031960e086901b16815260048101939093526001600160a01b03909116602483015260ff1660448201526064016040805180830381865afa15801561018c573d5f803e3d5ffd5b505050506040513d601f19601f820116820180604052508101906101b091906106bd565b915091506101d66101be3390565b60408801516001600160a01b0386169190309061034c565b6002546101f0906001600160a01b038581169116836103b9565b84516040805160e081018252885163ffffffff1681526020808a0151908201529081018490526001600160a01b0386169163c7c7f5b3916060810161271061023a8861251c6106df565b6102449190610708565b815260808b0151602082015260a08b0151604082015260c08b015160609091015288336040518563ffffffff1660e01b81526004016102859392919061076a565b60c06040518083038185885af11580156102a1573d5f803e3d5ffd5b50505050506040513d601f19601f820116820180604052508101906102c69190610853565b5050855160408088015181519081526020810184905263ffffffff9092169133917fec16253bd5b95ac254e45f114df826b85bb75317c2435e18b33afde7fe1d4799910160405180910390a35050505061031f60015f55565b505050565b60025f540361034657604051633ee5aeb560e01b815260040160405180910390fd5b60025f55565b6040516001600160a01b0384811660248301528381166044830152606482018390526103b39186918216906323b872dd906084015b604051602081830303815290604052915060e01b6020820180516001600160e01b0383818316178352505050506103ea565b50505050565b6040516001600160a01b0383811660248301526044820183905261031f91859182169063a9059cbb90606401610381565b5f8060205f8451602086015f885af180610409576040513d5f823e3d81fd5b50505f513d9150811561042057806001141561042d565b6001600160a01b0384163b155b156103b357604051635274afe760e01b81526001600160a01b038516600482015260240160405180910390fd5b634e487b7160e01b5f52604160045260245ffd5b6040805190810167ffffffffffffffff811182821017156104915761049161045a565b60405290565b60405160e0810167ffffffffffffffff811182821017156104915761049161045a565b803563ffffffff811681146104cd575f80fd5b919050565b5f82601f8301126104e1575f80fd5b813567ffffffffffffffff808211156104fc576104fc61045a565b604051601f8301601f19908116603f011681019082821181831017156105245761052461045a565b8160405283815286602085880101111561053c575f80fd5b836020870160208301375f602085830101528094505050505092915050565b5f6040828403121561056b575f80fd5b61057361046e565b9050813581526020820135602082015292915050565b5f805f6080848603121561059b575f80fd5b83356001600160a01b03811681146105b1575f80fd5b9250602084013567ffffffffffffffff808211156105cd575f80fd5b9085019060e082880312156105e0575f80fd5b6105e8610497565b6105f1836104ba565b8152602083013560208201526040830135604082015260608301356060820152608083013582811115610622575f80fd5b61062e898286016104d2565b60808301525060a083013582811115610645575f80fd5b610651898286016104d2565b60a08301525060c083013582811115610668575f80fd5b610674898286016104d2565b60c08301525080945050505061068d856040860161055b565b90509250925092565b5f602082840312156106a6575f80fd5b815160ff811681146106b6575f80fd5b9392505050565b5f80604083850312156106ce575f80fd5b505080516020909101519092909150565b808202811582820484141761070257634e487b7160e01b5f52601160045260245ffd5b92915050565b5f8261072257634e487b7160e01b5f52601260045260245ffd5b500490565b5f81518084525f5b8181101561074b5760208185018101518683018201520161072f565b505f602082860101526020601f19601f83011685010191505092915050565b6080815263ffffffff8451166080820152602084015160a0820152604084015160c0820152606084015160e08201525f608085015160e06101008401526107b5610160840182610727565b905060a0860151607f1980858403016101208601526107d48383610727565b925060c088015191508085840301610140860152506107f38282610727565b9250505061080e602083018580518252602090810151910152565b6001600160a01b0383166060830152949350505050565b5f60408284031215610835575f80fd5b61083d61046e565b9050815181526020820151602082015292915050565b5f8082840360c0811215610865575f80fd5b6080811215610872575f80fd5b506040516060810167ffffffffffffffff82821081831117156108975761089761045a565b81604052855183526020860151915080821682146108b3575f80fd5b5060208201526108c68560408601610825565b604082015291506108da8460808501610825565b9050925092905056fea2646970667358221220ac672d39b8741c4bfa81ad9da9b1402d81dd12e58a8e39e5849227a1f617210f64736f6c63430008180033",
  "libraries": {
    "LibTypesV1": "0x3C90579e9a93E5CDA2e5BC89e97F4860AdD2473c"
  },
  "devdoc": {
    "errors": {
      "ReentrancyGuardReentrantCall()": [
        {
          "details": "Unauthorized reentrant call."
        }
      ],
      "SafeERC20FailedOperation(address)": [
        {
          "details": "An operation with an ERC-20 token failed."
        }
      ]
    },
    "kind": "dev",
    "methods": {},
    "version": 1
  },
  "userdoc": {
    "kind": "user",
    "methods": {},
    "version": 1
  },
  "storageLayout": {
    "storage": [
      {
        "astId": 6268,
        "contract": "contracts/oft/OFTBridge.sol:OFTBridge",
        "label": "_status",
        "offset": 0,
        "slot": "0",
        "type": "t_uint256"
      },
      {
        "astId": 6447,
        "contract": "contracts/oft/OFTBridge.sol:OFTBridge",
        "label": "feeManager",
        "offset": 0,
        "slot": "1",
        "type": "t_contract(IFeeManager)6404"
      },
      {
        "astId": 6449,
        "contract": "contracts/oft/OFTBridge.sol:OFTBridge",
        "label": "feeCollector",
        "offset": 0,
        "slot": "2",
        "type": "t_address"
      }
    ],
    "types": {
      "t_address": {
        "encoding": "inplace",
        "label": "address",
        "numberOfBytes": "20"
      },
      "t_contract(IFeeManager)6404": {
        "encoding": "inplace",
        "label": "contract IFeeManager",
        "numberOfBytes": "20"
      },
      "t_uint256": {
        "encoding": "inplace",
        "label": "uint256",
        "numberOfBytes": "32"
      }
    }
  }
}