{
  "address": "0xbf895CD520e9B07069376CF9b7668EB503895305",
  "abi": [
    {
      "inputs": [
        {
          "internalType": "address",
          "name": "_layerZeroEndpoint",
          "type": "address"
        },
        {
          "internalType": "uint32",
          "name": "_skaleEndpointId",
          "type": "uint32"
        }
      ],
      "stateMutability": "nonpayable",
      "type": "constructor"
    },
    {
      "inputs": [],
      "name": "AccessControlBadConfirmation",
      "type": "error"
    },
    {
      "inputs": [
        {
          "internalType": "address",
          "name": "account",
          "type": "address"
        },
        {
          "internalType": "bytes32",
          "name": "neededRole",
          "type": "bytes32"
        }
      ],
      "name": "AccessControlUnauthorizedAccount",
      "type": "error"
    },
    {
      "inputs": [],
      "name": "InvalidDelegate",
      "type": "error"
    },
    {
      "inputs": [],
      "name": "InvalidEndpointCall",
      "type": "error"
    },
    {
      "inputs": [],
      "name": "LzTokenUnavailable",
      "type": "error"
    },
    {
      "inputs": [
        {
          "internalType": "uint32",
          "name": "eid",
          "type": "uint32"
        }
      ],
      "name": "NoPeer",
      "type": "error"
    },
    {
      "inputs": [
        {
          "internalType": "uint256",
          "name": "msgValue",
          "type": "uint256"
        }
      ],
      "name": "NotEnoughNative",
      "type": "error"
    },
    {
      "inputs": [
        {
          "internalType": "address",
          "name": "addr",
          "type": "address"
        }
      ],
      "name": "OnlyEndpoint",
      "type": "error"
    },
    {
      "inputs": [
        {
          "internalType": "uint32",
          "name": "eid",
          "type": "uint32"
        },
        {
          "internalType": "bytes32",
          "name": "sender",
          "type": "bytes32"
        }
      ],
      "name": "OnlyPeer",
      "type": "error"
    },
    {
      "inputs": [
        {
          "internalType": "address",
          "name": "owner",
          "type": "address"
        }
      ],
      "name": "OwnableInvalidOwner",
      "type": "error"
    },
    {
      "inputs": [
        {
          "internalType": "address",
          "name": "account",
          "type": "address"
        }
      ],
      "name": "OwnableUnauthorizedAccount",
      "type": "error"
    },
    {
      "inputs": [
        {
          "internalType": "address",
          "name": "token",
          "type": "address"
        }
      ],
      "name": "SafeERC20FailedOperation",
      "type": "error"
    },
    {
      "anonymous": false,
      "inputs": [
        {
          "indexed": true,
          "internalType": "address",
          "name": "token",
          "type": "address"
        }
      ],
      "name": "AddToken",
      "type": "event"
    },
    {
      "anonymous": false,
      "inputs": [
        {
          "indexed": true,
          "internalType": "address",
          "name": "skaleTokenAddress",
          "type": "address"
        },
        {
          "indexed": true,
          "internalType": "address",
          "name": "localTokenAddress",
          "type": "address"
        }
      ],
      "name": "AddToken",
      "type": "event"
    },
    {
      "anonymous": false,
      "inputs": [
        {
          "indexed": true,
          "internalType": "address",
          "name": "token",
          "type": "address"
        },
        {
          "indexed": true,
          "internalType": "uint256",
          "name": "amount",
          "type": "uint256"
        }
      ],
      "name": "Bridge",
      "type": "event"
    },
    {
      "anonymous": false,
      "inputs": [
        {
          "indexed": true,
          "internalType": "address",
          "name": "token",
          "type": "address"
        },
        {
          "indexed": true,
          "internalType": "address",
          "name": "to",
          "type": "address"
        },
        {
          "indexed": true,
          "internalType": "uint256",
          "name": "amount",
          "type": "uint256"
        }
      ],
      "name": "BridgeReceived",
      "type": "event"
    },
    {
      "anonymous": false,
      "inputs": [
        {
          "indexed": true,
          "internalType": "address",
          "name": "previousOwner",
          "type": "address"
        },
        {
          "indexed": true,
          "internalType": "address",
          "name": "newOwner",
          "type": "address"
        }
      ],
      "name": "OwnershipTransferred",
      "type": "event"
    },
    {
      "anonymous": false,
      "inputs": [
        {
          "indexed": false,
          "internalType": "uint32",
          "name": "eid",
          "type": "uint32"
        },
        {
          "indexed": false,
          "internalType": "bytes32",
          "name": "peer",
          "type": "bytes32"
        }
      ],
      "name": "PeerSet",
      "type": "event"
    },
    {
      "anonymous": false,
      "inputs": [
        {
          "indexed": true,
          "internalType": "bytes32",
          "name": "role",
          "type": "bytes32"
        },
        {
          "indexed": true,
          "internalType": "bytes32",
          "name": "previousAdminRole",
          "type": "bytes32"
        },
        {
          "indexed": true,
          "internalType": "bytes32",
          "name": "newAdminRole",
          "type": "bytes32"
        }
      ],
      "name": "RoleAdminChanged",
      "type": "event"
    },
    {
      "anonymous": false,
      "inputs": [
        {
          "indexed": true,
          "internalType": "bytes32",
          "name": "role",
          "type": "bytes32"
        },
        {
          "indexed": true,
          "internalType": "address",
          "name": "account",
          "type": "address"
        },
        {
          "indexed": true,
          "internalType": "address",
          "name": "sender",
          "type": "address"
        }
      ],
      "name": "RoleGranted",
      "type": "event"
    },
    {
      "anonymous": false,
      "inputs": [
        {
          "indexed": true,
          "internalType": "bytes32",
          "name": "role",
          "type": "bytes32"
        },
        {
          "indexed": true,
          "internalType": "address",
          "name": "account",
          "type": "address"
        },
        {
          "indexed": true,
          "internalType": "address",
          "name": "sender",
          "type": "address"
        }
      ],
      "name": "RoleRevoked",
      "type": "event"
    },
    {
      "inputs": [],
      "name": "DEFAULT_ADMIN_ROLE",
      "outputs": [
        {
          "internalType": "bytes32",
          "name": "",
          "type": "bytes32"
        }
      ],
      "stateMutability": "view",
      "type": "function"
    },
    {
      "inputs": [],
      "name": "MANAGER_ROLE",
      "outputs": [
        {
          "internalType": "bytes32",
          "name": "",
          "type": "bytes32"
        }
      ],
      "stateMutability": "view",
      "type": "function"
    },
    {
      "inputs": [
        {
          "internalType": "address",
          "name": "skaleTokenAddress",
          "type": "address"
        },
        {
          "internalType": "address",
          "name": "localTokenAddress",
          "type": "address"
        }
      ],
      "name": "addToken",
      "outputs": [],
      "stateMutability": "nonpayable",
      "type": "function"
    },
    {
      "inputs": [
        {
          "components": [
            {
              "internalType": "uint32",
              "name": "srcEid",
              "type": "uint32"
            },
            {
              "internalType": "bytes32",
              "name": "sender",
              "type": "bytes32"
            },
            {
              "internalType": "uint64",
              "name": "nonce",
              "type": "uint64"
            }
          ],
          "internalType": "struct Origin",
          "name": "origin",
          "type": "tuple"
        }
      ],
      "name": "allowInitializePath",
      "outputs": [
        {
          "internalType": "bool",
          "name": "",
          "type": "bool"
        }
      ],
      "stateMutability": "view",
      "type": "function"
    },
    {
      "inputs": [
        {
          "components": [
            {
              "internalType": "address",
              "name": "token",
              "type": "address"
            },
            {
              "internalType": "address",
              "name": "to",
              "type": "address"
            },
            {
              "internalType": "uint256",
              "name": "amount",
              "type": "uint256"
            }
          ],
          "internalType": "struct LibTypesV1.TripDetails",
          "name": "details",
          "type": "tuple"
        },
        {
          "internalType": "bytes",
          "name": "options",
          "type": "bytes"
        }
      ],
      "name": "bridge",
      "outputs": [
        {
          "components": [
            {
              "internalType": "bytes32",
              "name": "guid",
              "type": "bytes32"
            },
            {
              "internalType": "uint64",
              "name": "nonce",
              "type": "uint64"
            },
            {
              "components": [
                {
                  "internalType": "uint256",
                  "name": "nativeFee",
                  "type": "uint256"
                },
                {
                  "internalType": "uint256",
                  "name": "lzTokenFee",
                  "type": "uint256"
                }
              ],
              "internalType": "struct MessagingFee",
              "name": "fee",
              "type": "tuple"
            }
          ],
          "internalType": "struct MessagingReceipt",
          "name": "receipt",
          "type": "tuple"
        }
      ],
      "stateMutability": "payable",
      "type": "function"
    },
    {
      "inputs": [
        {
          "internalType": "contract IERC20",
          "name": "",
          "type": "address"
        }
      ],
      "name": "deposits",
      "outputs": [
        {
          "internalType": "uint256",
          "name": "",
          "type": "uint256"
        }
      ],
      "stateMutability": "view",
      "type": "function"
    },
    {
      "inputs": [],
      "name": "endpoint",
      "outputs": [
        {
          "internalType": "contract ILayerZeroEndpointV2",
          "name": "",
          "type": "address"
        }
      ],
      "stateMutability": "view",
      "type": "function"
    },
    {
      "inputs": [
        {
          "internalType": "bytes32",
          "name": "role",
          "type": "bytes32"
        }
      ],
      "name": "getRoleAdmin",
      "outputs": [
        {
          "internalType": "bytes32",
          "name": "",
          "type": "bytes32"
        }
      ],
      "stateMutability": "view",
      "type": "function"
    },
    {
      "inputs": [
        {
          "internalType": "bytes32",
          "name": "role",
          "type": "bytes32"
        },
        {
          "internalType": "address",
          "name": "account",
          "type": "address"
        }
      ],
      "name": "grantRole",
      "outputs": [],
      "stateMutability": "nonpayable",
      "type": "function"
    },
    {
      "inputs": [
        {
          "internalType": "bytes32",
          "name": "role",
          "type": "bytes32"
        },
        {
          "internalType": "address",
          "name": "account",
          "type": "address"
        }
      ],
      "name": "hasRole",
      "outputs": [
        {
          "internalType": "bool",
          "name": "",
          "type": "bool"
        }
      ],
      "stateMutability": "view",
      "type": "function"
    },
    {
      "inputs": [
        {
          "components": [
            {
              "internalType": "uint32",
              "name": "srcEid",
              "type": "uint32"
            },
            {
              "internalType": "bytes32",
              "name": "sender",
              "type": "bytes32"
            },
            {
              "internalType": "uint64",
              "name": "nonce",
              "type": "uint64"
            }
          ],
          "internalType": "struct Origin",
          "name": "",
          "type": "tuple"
        },
        {
          "internalType": "bytes",
          "name": "",
          "type": "bytes"
        },
        {
          "internalType": "address",
          "name": "_sender",
          "type": "address"
        }
      ],
      "name": "isComposeMsgSender",
      "outputs": [
        {
          "internalType": "bool",
          "name": "",
          "type": "bool"
        }
      ],
      "stateMutability": "view",
      "type": "function"
    },
    {
      "inputs": [
        {
          "components": [
            {
              "internalType": "uint32",
              "name": "srcEid",
              "type": "uint32"
            },
            {
              "internalType": "bytes32",
              "name": "sender",
              "type": "bytes32"
            },
            {
              "internalType": "uint64",
              "name": "nonce",
              "type": "uint64"
            }
          ],
          "internalType": "struct Origin",
          "name": "_origin",
          "type": "tuple"
        },
        {
          "internalType": "bytes32",
          "name": "_guid",
          "type": "bytes32"
        },
        {
          "internalType": "bytes",
          "name": "_message",
          "type": "bytes"
        },
        {
          "internalType": "address",
          "name": "_executor",
          "type": "address"
        },
        {
          "internalType": "bytes",
          "name": "_extraData",
          "type": "bytes"
        }
      ],
      "name": "lzReceive",
      "outputs": [],
      "stateMutability": "payable",
      "type": "function"
    },
    {
      "inputs": [
        {
          "internalType": "uint32",
          "name": "",
          "type": "uint32"
        },
        {
          "internalType": "bytes32",
          "name": "",
          "type": "bytes32"
        }
      ],
      "name": "nextNonce",
      "outputs": [
        {
          "internalType": "uint64",
          "name": "nonce",
          "type": "uint64"
        }
      ],
      "stateMutability": "view",
      "type": "function"
    },
    {
      "inputs": [],
      "name": "oAppVersion",
      "outputs": [
        {
          "internalType": "uint64",
          "name": "senderVersion",
          "type": "uint64"
        },
        {
          "internalType": "uint64",
          "name": "receiverVersion",
          "type": "uint64"
        }
      ],
      "stateMutability": "pure",
      "type": "function"
    },
    {
      "inputs": [],
      "name": "owner",
      "outputs": [
        {
          "internalType": "address",
          "name": "",
          "type": "address"
        }
      ],
      "stateMutability": "view",
      "type": "function"
    },
    {
      "inputs": [
        {
          "internalType": "uint32",
          "name": "eid",
          "type": "uint32"
        }
      ],
      "name": "peers",
      "outputs": [
        {
          "internalType": "bytes32",
          "name": "peer",
          "type": "bytes32"
        }
      ],
      "stateMutability": "view",
      "type": "function"
    },
    {
      "inputs": [
        {
          "components": [
            {
              "internalType": "address",
              "name": "token",
              "type": "address"
            },
            {
              "internalType": "address",
              "name": "to",
              "type": "address"
            },
            {
              "internalType": "uint256",
              "name": "amount",
              "type": "uint256"
            }
          ],
          "internalType": "struct LibTypesV1.TripDetails",
          "name": "tripDetails",
          "type": "tuple"
        },
        {
          "internalType": "bytes",
          "name": "options",
          "type": "bytes"
        },
        {
          "internalType": "bool",
          "name": "payInLzToken",
          "type": "bool"
        }
      ],
      "name": "quote",
      "outputs": [
        {
          "components": [
            {
              "internalType": "uint256",
              "name": "nativeFee",
              "type": "uint256"
            },
            {
              "internalType": "uint256",
              "name": "lzTokenFee",
              "type": "uint256"
            }
          ],
          "internalType": "struct MessagingFee",
          "name": "fee",
          "type": "tuple"
        }
      ],
      "stateMutability": "view",
      "type": "function"
    },
    {
      "inputs": [],
      "name": "renounceOwnership",
      "outputs": [],
      "stateMutability": "nonpayable",
      "type": "function"
    },
    {
      "inputs": [
        {
          "internalType": "bytes32",
          "name": "role",
          "type": "bytes32"
        },
        {
          "internalType": "address",
          "name": "callerConfirmation",
          "type": "address"
        }
      ],
      "name": "renounceRole",
      "outputs": [],
      "stateMutability": "nonpayable",
      "type": "function"
    },
    {
      "inputs": [
        {
          "internalType": "bytes32",
          "name": "role",
          "type": "bytes32"
        },
        {
          "internalType": "address",
          "name": "account",
          "type": "address"
        }
      ],
      "name": "revokeRole",
      "outputs": [],
      "stateMutability": "nonpayable",
      "type": "function"
    },
    {
      "inputs": [
        {
          "internalType": "address",
          "name": "_delegate",
          "type": "address"
        }
      ],
      "name": "setDelegate",
      "outputs": [],
      "stateMutability": "nonpayable",
      "type": "function"
    },
    {
      "inputs": [
        {
          "internalType": "uint32",
          "name": "_eid",
          "type": "uint32"
        },
        {
          "internalType": "bytes32",
          "name": "_peer",
          "type": "bytes32"
        }
      ],
      "name": "setPeer",
      "outputs": [],
      "stateMutability": "nonpayable",
      "type": "function"
    },
    {
      "inputs": [],
      "name": "skaleEndpointId",
      "outputs": [
        {
          "internalType": "uint32",
          "name": "",
          "type": "uint32"
        }
      ],
      "stateMutability": "view",
      "type": "function"
    },
    {
      "inputs": [
        {
          "internalType": "contract IERC20",
          "name": "",
          "type": "address"
        }
      ],
      "name": "supportedTokens",
      "outputs": [
        {
          "internalType": "bool",
          "name": "",
          "type": "bool"
        }
      ],
      "stateMutability": "view",
      "type": "function"
    },
    {
      "inputs": [
        {
          "internalType": "bytes4",
          "name": "interfaceId",
          "type": "bytes4"
        }
      ],
      "name": "supportsInterface",
      "outputs": [
        {
          "internalType": "bool",
          "name": "",
          "type": "bool"
        }
      ],
      "stateMutability": "view",
      "type": "function"
    },
    {
      "inputs": [
        {
          "internalType": "address",
          "name": "",
          "type": "address"
        }
      ],
      "name": "tokenMappings",
      "outputs": [
        {
          "internalType": "address",
          "name": "",
          "type": "address"
        }
      ],
      "stateMutability": "view",
      "type": "function"
    },
    {
      "inputs": [
        {
          "internalType": "address",
          "name": "newOwner",
          "type": "address"
        }
      ],
      "name": "transferOwnership",
      "outputs": [],
      "stateMutability": "nonpayable",
      "type": "function"
    },
    {
      "stateMutability": "payable",
      "type": "receive"
    }
  ],
  "transactionHash": "0x7e0474cbda624c85c32e68dad11eb416e5c13f746a6e26442841bbd8bd5145c3",
  "args": [
    "0x6EDCE65403992e310A62460808c4b910D972f10f",
    40273
  ],
  "numDeployments": 1,
  "solcInputHash": "b79a7c11dbe0e9f8aa58c99df371e46c",
  "bytecode": "0x60c060405234801562000010575f80fd5b5060405162001e1f38038062001e1f83398101604081905262000033916200025e565b8133818180806200005d57604051631e4fbdf760e01b81525f600482015260240160405180910390fd5b62000068816200015f565b506001600160a01b0380831660805281166200009757604051632d618d8160e21b815260040160405180910390fd5b60805160405163ca5eb5e160e01b81526001600160a01b0383811660048301529091169063ca5eb5e1906024015f604051808303815f87803b158015620000dc575f80fd5b505af1158015620000ef573d5f803e3d5ffd5b5050505050505050620001145f801b6200010e6200015b60201b60201c565b620001ae565b506200012f5f8051602062001dff83398151915233620001ae565b506200014a5f8051602062001dff83398151915233620001ae565b5063ffffffff1660a05250620002ac565b3390565b5f80546001600160a01b038381166001600160a01b0319831681178455604051919092169283917f8be0079c531659141344cd1fd0a4f28419497f9722a3daafe3b4186f6b6457e09190a35050565b5f8281526002602090815260408083206001600160a01b038516845290915281205460ff1662000255575f8381526002602090815260408083206001600160a01b03861684529091529020805460ff191660011790556200020c3390565b6001600160a01b0316826001600160a01b0316847f2f8788117e7eff1d82e926ec794901d17c78024a50270940304540a733656f0d60405160405180910390a450600162000258565b505f5b92915050565b5f806040838503121562000270575f80fd5b82516001600160a01b038116811462000287575f80fd5b602084015190925063ffffffff81168114620002a1575f80fd5b809150509250929050565b60805160a051611af9620003065f395f8181610397015281816108e00152610b3501525f81816103220152818161060d0152818161093701528181610fd60152818161112e0152818161130301526113ba0152611af95ff3fe608060405260043610610198575f3560e01c80637d25a05e116100e7578063ca5eb5e111610087578063ec87621c11610062578063ec87621c14610539578063f2fde38b1461056c578063fc7e286d1461058b578063ff7bd03d146105b6575f80fd5b8063ca5eb5e1146104db578063cb52adfe146104fa578063d547741f1461051a575f80fd5b806391d14854116100c257806391d1485414610452578063a217fddf14610471578063af04527f14610484578063bb0b6a53146104b0575f80fd5b80637d25a05e146103ce57806382413eac146104085780638da5cb5b14610436575f80fd5b806336568abe116101525780635e280f111161012d5780635e280f111461031157806368c4ac2614610344578063715018a6146103725780637d01561a14610386575f80fd5b806336568abe14610287578063508d0a5f146102a65780635476bd72146102f2575f80fd5b806301ffc9a7146101a357806313137d65146101d757806317442b70146101ec578063248a9ca31461020d5780632f2ff15d146102495780633400288b14610268575f80fd5b3661019f57005b5f80fd5b3480156101ae575f80fd5b506101c26101bd366004611423565b6105d5565b60405190151581526020015b60405180910390f35b6101ea6101e53660046114c0565b61060b565b005b3480156101f7575f80fd5b50604080516001815260026020820152016101ce565b348015610218575f80fd5b5061023b610227366004611559565b5f9081526002602052604090206001015490565b6040519081526020016101ce565b348015610254575f80fd5b506101ea610263366004611570565b6106cb565b348015610273575f80fd5b506101ea6102823660046115b6565b6106f5565b348015610292575f80fd5b506101ea6102a1366004611570565b61070b565b3480156102b1575f80fd5b506102da6102c03660046115de565b60036020525f90815260409020546001600160a01b031681565b6040516001600160a01b0390911681526020016101ce565b3480156102fd575f80fd5b506101ea61030c3660046115f9565b610743565b34801561031c575f80fd5b506102da7f000000000000000000000000000000000000000000000000000000000000000081565b34801561034f575f80fd5b506101c261035e3660046115de565b60046020525f908152604090205460ff1681565b34801561037d575f80fd5b506101ea61084a565b348015610391575f80fd5b506103b97f000000000000000000000000000000000000000000000000000000000000000081565b60405163ffffffff90911681526020016101ce565b3480156103d9575f80fd5b506103ef6103e83660046115b6565b5f92915050565b60405167ffffffffffffffff90911681526020016101ce565b348015610413575f80fd5b506101c2610422366004611625565b6001600160a01b0381163014949350505050565b348015610441575f80fd5b505f546001600160a01b03166102da565b34801561045d575f80fd5b506101c261046c366004611570565b61085d565b34801561047c575f80fd5b5061023b5f81565b34801561048f575f80fd5b506104a361049e366004611751565b610887565b6040516101ce9190611802565b3480156104bb575f80fd5b5061023b6104ca366004611819565b60016020525f908152604090205481565b3480156104e6575f80fd5b506101ea6104f53660046115de565b610910565b61050d610508366004611832565b610991565b6040516101ce9190611882565b348015610525575f80fd5b506101ea610534366004611570565b610b8e565b348015610544575f80fd5b5061023b7f241ecf16d79d0f8dbfb92cbc07fe17840425976cf0667f022fe9877caa831b0881565b348015610577575f80fd5b506101ea6105863660046115de565b610bb2565b348015610596575f80fd5b5061023b6105a53660046115de565b60056020525f908152604090205481565b3480156105c1575f80fd5b506101c26105d03660046118c4565b610bef565b5f6001600160e01b03198216637965db0b60e01b148061060557506301ffc9a760e01b6001600160e01b03198316145b92915050565b7f00000000000000000000000000000000000000000000000000000000000000006001600160a01b0316331461065b576040516391ac5e4f60e01b81523360048201526024015b60405180910390fd5b6020870180359061067590610670908a611819565b610c23565b146106b3576106876020880188611819565b60405163309afaf360e21b815263ffffffff909116600482015260208801356024820152604401610652565b6106c287878787878787610c5e565b50505050505050565b5f828152600260205260409020600101546106e581610dec565b6106ef8383610df6565b50505050565b6106fd610e87565b6107078282610eb3565b5050565b6001600160a01b03811633146107345760405163334bd91960e11b815260040160405180910390fd5b61073e8282610f07565b505050565b7f241ecf16d79d0f8dbfb92cbc07fe17840425976cf0667f022fe9877caa831b0861076d81610dec565b6001600160a01b0382165f90815260046020526040902054829060ff16156107d75760405162461bcd60e51b815260206004820152601c60248201527f546f6b656e20416c7265616479204164646564202b20416374697665000000006044820152606401610652565b6001600160a01b038481165f81815260036020908152604080832080546001600160a01b03191689871690811790915594861683526004909152808220805460ff19166001179055517fdbf34b45b47a653cf4940cccbec765f72d4d63de3237306905bfc0ee288323629190a350505050565b610852610e87565b61085b5f610f72565b565b5f9182526002602090815260408084206001600160a01b0393909316845291905290205460ff1690565b604080518082019091525f80825260208201526040805185516001600160a01b0390811660208084019190915287015116818301529085015160608201525f9060800160405160208183030381529060405290506109077f0000000000000000000000000000000000000000000000000000000000000000828686610fc1565b95945050505050565b610918610e87565b60405163ca5eb5e160e01b81526001600160a01b0382811660048301527f0000000000000000000000000000000000000000000000000000000000000000169063ca5eb5e1906024015f604051808303815f87803b158015610978575f80fd5b505af115801561098a573d5f803e3d5ffd5b5050505050565b6109996113df565b83516001600160a01b03165f9081526004602052604090205460ff166109f55760405162461bcd60e51b81526020600482015260116024820152702ab739bab83837b93a32b2102a37b5b2b760791b6044820152606401610652565b60208401516001600160a01b0316610a4f5760405162461bcd60e51b815260206004820152601960248201527f546f206d757374206e6f742062652061646472657373283029000000000000006044820152606401610652565b6040808501518551915190916001600160a01b0316907f22e3f162fca16dc0fcfb65eddf406531a0c555a2c24c58cf5d10fc2d202a882e905f90a3610aa733604086015186516001600160a01b031691903090611096565b60408085015185516001600160a01b03165f9081526005602052918220805491929091610ad59084906118f2565b9091555050835160208086015160408088015181516001600160a01b039586168186015294909216848201526060808501929092528051808503909201825260a0601f8701849004909302840183019052608083018581529092610907927f00000000000000000000000000000000000000000000000000000000000000009285929091899189918291018382808284375f92018290525060408051808201909152348152602081019190915292503391506110fd9050565b5f82815260026020526040902060010154610ba881610dec565b6106ef8383610f07565b610bba610e87565b6001600160a01b038116610be357604051631e4fbdf760e01b81525f6004820152602401610652565b610bec81610f72565b50565b5f602082018035906001908390610c069086611819565b63ffffffff16815260208101919091526040015f20541492915050565b63ffffffff81165f90815260016020526040812054806106055760405163f6ff4fb760e01b815263ffffffff84166004820152602401610652565b5f610c6b85870187611905565b80516001600160a01b039081165f9081526003602052604090205491925016610cc65760405162461bcd60e51b815260206004820152600d60248201526c24b73b30b634b2102a37b5b2b760991b6044820152606401610652565b80516001600160a01b039081165f9081526003602090815260408083205481860151941680845260059092529091205490911115610d465760405162461bcd60e51b815260206004820152601c60248201527f496e73756666696369656e742046756e647320696e20427269646765000000006044820152606401610652565b60208201516040830151610d64916001600160a01b03841691611203565b6040808301516001600160a01b0383165f9081526005602052918220805491929091610d9190849061191f565b92505081905550816040015182602001516001600160a01b0316826001600160a01b03167f2b4dfcf6979a5be540753cff4a1659978fe221d7917e1eb53fa02435eda739ce60405160405180910390a4505050505050505050565b610bec8133611234565b5f610e01838361085d565b610e80575f8381526002602090815260408083206001600160a01b03861684529091529020805460ff19166001179055610e383390565b6001600160a01b0316826001600160a01b0316847f2f8788117e7eff1d82e926ec794901d17c78024a50270940304540a733656f0d60405160405180910390a4506001610605565b505f610605565b5f546001600160a01b0316331461085b5760405163118cdaa760e01b8152336004820152602401610652565b63ffffffff82165f81815260016020908152604091829020849055815192835282018390527f238399d427b947898edb290f5ff0f9109849b1c3ba196a42e35f00c50a54b98b910160405180910390a15050565b5f610f12838361085d565b15610e80575f8381526002602090815260408083206001600160a01b0386168085529252808320805460ff1916905551339286917ff6391f5c32d9c69d2a47ea670b442974b53935d1edc7fd64eb21e047a839171b9190a4506001610605565b5f80546001600160a01b038381166001600160a01b0319831681178455604051919092169283917f8be0079c531659141344cd1fd0a4f28419497f9722a3daafe3b4186f6b6457e09190a35050565b604080518082019091525f80825260208201527f00000000000000000000000000000000000000000000000000000000000000006001600160a01b031663ddc28c586040518060a001604052808863ffffffff16815260200161102389610c23565b8152602001878152602001868152602001851515815250306040518363ffffffff1660e01b8152600401611058929190611975565b6040805180830381865afa158015611072573d5f803e3d5ffd5b505050506040513d601f19601f820116820180604052508101906109079190611a3a565b6040516001600160a01b0384811660248301528381166044830152606482018390526106ef9186918216906323b872dd906084015b604051602081830303815290604052915060e01b6020820180516001600160e01b03838183161783525050505061126d565b6111056113df565b5f611112845f01516112d9565b60208501519091501561112c5761112c8460200151611300565b7f00000000000000000000000000000000000000000000000000000000000000006001600160a01b0316632637a450826040518060a001604052808b63ffffffff16815260200161117c8c610c23565b81526020018a81526020018981526020015f8960200151111515815250866040518463ffffffff1660e01b81526004016111b7929190611975565b60806040518083038185885af11580156111d3573d5f803e3d5ffd5b50505050506040513d601f19601f820116820180604052508101906111f89190611a54565b979650505050505050565b6040516001600160a01b0383811660248301526044820183905261073e91859182169063a9059cbb906064016110cb565b61123e828261085d565b6107075760405163e2517d3f60e01b81526001600160a01b038216600482015260248101839052604401610652565b5f8060205f8451602086015f885af18061128c576040513d5f823e3d81fd5b50505f513d915081156112a35780600114156112b0565b6001600160a01b0384163b155b156106ef57604051635274afe760e01b81526001600160a01b0385166004820152602401610652565b5f8134146112fc576040516304fb820960e51b8152346004820152602401610652565b5090565b5f7f00000000000000000000000000000000000000000000000000000000000000006001600160a01b031663e4fe1d946040518163ffffffff1660e01b8152600401602060405180830381865afa15801561135d573d5f803e3d5ffd5b505050506040513d601f19601f820116820180604052508101906113819190611aa8565b90506001600160a01b0381166113aa576040516329b99a9560e11b815260040160405180910390fd5b6107076001600160a01b038216337f000000000000000000000000000000000000000000000000000000000000000085611096565b60405180606001604052805f80191681526020015f67ffffffffffffffff16815260200161141e60405180604001604052805f81526020015f81525090565b905290565b5f60208284031215611433575f80fd5b81356001600160e01b03198116811461144a575f80fd5b9392505050565b5f60608284031215611461575f80fd5b50919050565b5f8083601f840112611477575f80fd5b50813567ffffffffffffffff81111561148e575f80fd5b6020830191508360208285010111156114a5575f80fd5b9250929050565b6001600160a01b0381168114610bec575f80fd5b5f805f805f805f60e0888a0312156114d6575f80fd5b6114e08989611451565b965060608801359550608088013567ffffffffffffffff80821115611503575f80fd5b61150f8b838c01611467565b909750955060a08a01359150611524826114ac565b90935060c08901359080821115611539575f80fd5b506115468a828b01611467565b989b979a50959850939692959293505050565b5f60208284031215611569575f80fd5b5035919050565b5f8060408385031215611581575f80fd5b823591506020830135611593816114ac565b809150509250929050565b803563ffffffff811681146115b1575f80fd5b919050565b5f80604083850312156115c7575f80fd5b6115d08361159e565b946020939093013593505050565b5f602082840312156115ee575f80fd5b813561144a816114ac565b5f806040838503121561160a575f80fd5b8235611615816114ac565b91506020830135611593816114ac565b5f805f8060a08587031215611638575f80fd5b6116428686611451565b9350606085013567ffffffffffffffff81111561165d575f80fd5b61166987828801611467565b909450925050608085013561167d816114ac565b939692955090935050565b634e487b7160e01b5f52604160045260245ffd5b6040516060810167ffffffffffffffff811182821017156116bf576116bf611688565b60405290565b604051601f8201601f1916810167ffffffffffffffff811182821017156116ee576116ee611688565b604052919050565b5f60608284031215611706575f80fd5b61170e61169c565b9050813561171b816114ac565b8152602082013561172b816114ac565b806020830152506040820135604082015292915050565b803580151581146115b1575f80fd5b5f805f60a08486031215611763575f80fd5b61176d85856116f6565b9250606084013567ffffffffffffffff80821115611789575f80fd5b818601915086601f83011261179c575f80fd5b8135818111156117ae576117ae611688565b6117c1601f8201601f19166020016116c5565b91508082528760208285010111156117d7575f80fd5b806020840160208401375f9082016020015292506117f9905060808501611742565b90509250925092565b815181526020808301519082015260408101610605565b5f60208284031215611829575f80fd5b61144a8261159e565b5f805f60808486031215611844575f80fd5b61184e85856116f6565b9250606084013567ffffffffffffffff811115611869575f80fd5b61187586828701611467565b9497909650939450505050565b5f6080820190508251825267ffffffffffffffff602084015116602083015260408301516118bd604084018280518252602090810151910152565b5092915050565b5f606082840312156118d4575f80fd5b61144a8383611451565b634e487b7160e01b5f52601160045260245ffd5b80820180821115610605576106056118de565b5f60608284031215611915575f80fd5b61144a83836116f6565b81810381811115610605576106056118de565b5f81518084525f5b818110156119565760208185018101518683018201520161193a565b505f602082860101526020601f19601f83011685010191505092915050565b6040815263ffffffff8351166040820152602083015160608201525f604084015160a060808401526119aa60e0840182611932565b90506060850151603f198483030160a08501526119c78282611932565b60809690960151151560c08501525050506001600160a01b039190911660209091015290565b5f604082840312156119fd575f80fd5b6040516040810181811067ffffffffffffffff82111715611a2057611a20611688565b604052825181526020928301519281019290925250919050565b5f60408284031215611a4a575f80fd5b61144a83836119ed565b5f60808284031215611a64575f80fd5b611a6c61169c565b82518152602083015167ffffffffffffffff81168114611a8a575f80fd5b6020820152611a9c84604085016119ed565b60408201529392505050565b5f60208284031215611ab8575f80fd5b815161144a816114ac56fea26469706673582212208d0ee88ca5589783e2d572874bcab1dfe789b69d8d17d9f69b808caa6094aaa364736f6c63430008180033241ecf16d79d0f8dbfb92cbc07fe17840425976cf0667f022fe9877caa831b08",
  "libraries": {
    "LibTypesV1": "0x2a8cF5CA5fB813D1D0e8701C8eea16D41514C65d"
  },
  "devdoc": {
    "errors": {
      "AccessControlBadConfirmation()": [
        {
          "details": "The caller of a function is not the expected one. NOTE: Don't confuse with {AccessControlUnauthorizedAccount}."
        }
      ],
      "AccessControlUnauthorizedAccount(address,bytes32)": [
        {
          "details": "The `account` is missing a role."
        }
      ],
      "OwnableInvalidOwner(address)": [
        {
          "details": "The owner is not a valid owner account. (eg. `address(0)`)"
        }
      ],
      "OwnableUnauthorizedAccount(address)": [
        {
          "details": "The caller account is not authorized to perform an operation."
        }
      ],
      "SafeERC20FailedOperation(address)": [
        {
          "details": "An operation with an ERC-20 token failed."
        }
      ]
    },
    "events": {
      "RoleAdminChanged(bytes32,bytes32,bytes32)": {
        "details": "Emitted when `newAdminRole` is set as ``role``'s admin role, replacing `previousAdminRole` `DEFAULT_ADMIN_ROLE` is the starting admin for all roles, despite {RoleAdminChanged} not being emitted signaling this."
      },
      "RoleGranted(bytes32,address,address)": {
        "details": "Emitted when `account` is granted `role`. `sender` is the account that originated the contract call. This account bears the admin role (for the granted role). Expected in cases where the role was granted using the internal {AccessControl-_grantRole}."
      },
      "RoleRevoked(bytes32,address,address)": {
        "details": "Emitted when `account` is revoked `role`. `sender` is the account that originated the contract call:   - if using `revokeRole`, it is the admin role bearer   - if using `renounceRole`, it is the role bearer (i.e. `account`)"
      }
    },
    "kind": "dev",
    "methods": {
      "allowInitializePath((uint32,bytes32,uint64))": {
        "details": "This indicates to the endpoint that the OApp has enabled msgs for this particular path to be received.This defaults to assuming if a peer has been set, its initialized. Can be overridden by the OApp if there is other logic to determine this.",
        "params": {
          "origin": "The origin information containing the source endpoint and sender address."
        },
        "returns": {
          "_0": "Whether the path has been initialized."
        }
      },
      "getRoleAdmin(bytes32)": {
        "details": "Returns the admin role that controls `role`. See {grantRole} and {revokeRole}. To change a role's admin, use {_setRoleAdmin}."
      },
      "grantRole(bytes32,address)": {
        "details": "Grants `role` to `account`. If `account` had not been already granted `role`, emits a {RoleGranted} event. Requirements: - the caller must have ``role``'s admin role. May emit a {RoleGranted} event."
      },
      "hasRole(bytes32,address)": {
        "details": "Returns `true` if `account` has been granted `role`."
      },
      "isComposeMsgSender((uint32,bytes32,uint64),bytes,address)": {
        "details": "_origin The origin information containing the source endpoint and sender address.  - srcEid: The source chain endpoint ID.  - sender: The sender address on the src chain.  - nonce: The nonce of the message._message The lzReceive payload.Applications can optionally choose to implement separate composeMsg senders that are NOT the bridging layer.The default sender IS the OAppReceiver implementer.",
        "params": {
          "_sender": "The sender address."
        },
        "returns": {
          "_0": "isSender Is a valid sender."
        }
      },
      "lzReceive((uint32,bytes32,uint64),bytes32,bytes,address,bytes)": {
        "details": "Entry point for receiving messages or packets from the endpoint.Entry point for receiving msg/packet from the LayerZero endpoint.",
        "params": {
          "_executor": "The address of the executor for the received message.",
          "_extraData": "Additional arbitrary data provided by the corresponding executor.",
          "_guid": "The unique identifier for the received LayerZero message.",
          "_message": "The payload of the received message.",
          "_origin": "The origin information containing the source endpoint and sender address.  - srcEid: The source chain endpoint ID.  - sender: The sender address on the src chain.  - nonce: The nonce of the message."
        }
      },
      "nextNonce(uint32,bytes32)": {
        "details": "_srcEid The source endpoint ID._sender The sender address.The path nonce starts from 1. If 0 is returned it means that there is NO nonce ordered enforcement.Is required by the off-chain executor to determine the OApp expects msg execution is ordered.This is also enforced by the OApp.By default this is NOT enabled. ie. nextNonce is hardcoded to return 0.",
        "returns": {
          "nonce": "The next nonce."
        }
      },
      "oAppVersion()": {
        "returns": {
          "receiverVersion": "The version of the OAppReceiver.sol implementation.",
          "senderVersion": "The version of the OAppSender.sol implementation."
        }
      },
      "owner()": {
        "details": "Returns the address of the current owner."
      },
      "renounceOwnership()": {
        "details": "Leaves the contract without owner. It will not be possible to call `onlyOwner` functions. Can only be called by the current owner. NOTE: Renouncing ownership will leave the contract without an owner, thereby disabling any functionality that is only available to the owner."
      },
      "renounceRole(bytes32,address)": {
        "details": "Revokes `role` from the calling account. Roles are often managed via {grantRole} and {revokeRole}: this function's purpose is to provide a mechanism for accounts to lose their privileges if they are compromised (such as when a trusted device is misplaced). If the calling account had been revoked `role`, emits a {RoleRevoked} event. Requirements: - the caller must be `callerConfirmation`. May emit a {RoleRevoked} event."
      },
      "revokeRole(bytes32,address)": {
        "details": "Revokes `role` from `account`. If `account` had been granted `role`, emits a {RoleRevoked} event. Requirements: - the caller must have ``role``'s admin role. May emit a {RoleRevoked} event."
      },
      "setDelegate(address)": {
        "details": "Only the owner/admin of the OApp can call this function.Provides the ability for a delegate to set configs, on behalf of the OApp, directly on the Endpoint contract.",
        "params": {
          "_delegate": "The address of the delegate to be set."
        }
      },
      "setPeer(uint32,bytes32)": {
        "details": "Only the owner/admin of the OApp can call this function.Indicates that the peer is trusted to send LayerZero messages to this OApp.Set this to bytes32(0) to remove the peer address.Peer is a bytes32 to accommodate non-evm chains.",
        "params": {
          "_eid": "The endpoint ID.",
          "_peer": "The address of the peer to be associated with the corresponding endpoint."
        }
      },
      "supportsInterface(bytes4)": {
        "details": "See {IERC165-supportsInterface}."
      },
      "transferOwnership(address)": {
        "details": "Transfers ownership of the contract to a new account (`newOwner`). Can only be called by the current owner."
      }
    },
    "version": 1
  },
  "userdoc": {
    "kind": "user",
    "methods": {
      "allowInitializePath((uint32,bytes32,uint64))": {
        "notice": "Checks if the path initialization is allowed based on the provided origin."
      },
      "endpoint()": {
        "notice": "Retrieves the LayerZero endpoint associated with the OApp."
      },
      "isComposeMsgSender((uint32,bytes32,uint64),bytes,address)": {
        "notice": "Indicates whether an address is an approved composeMsg sender to the Endpoint."
      },
      "nextNonce(uint32,bytes32)": {
        "notice": "Retrieves the next nonce for a given source endpoint and sender address."
      },
      "oAppVersion()": {
        "notice": "Retrieves the OApp version information."
      },
      "peers(uint32)": {
        "notice": "Retrieves the peer (OApp) associated with a corresponding endpoint."
      },
      "setDelegate(address)": {
        "notice": "Sets the delegate address for the OApp."
      },
      "setPeer(uint32,bytes32)": {
        "notice": "Sets the peer address (OApp instance) for a corresponding endpoint."
      }
    },
    "version": 1
  },
  "storageLayout": {
    "storage": [
      {
        "astId": 5059,
        "contract": "contracts/evm/SatelliteStation.sol:SatelliteStation",
        "label": "_owner",
        "offset": 0,
        "slot": "0",
        "type": "t_address"
      },
      {
        "astId": 3994,
        "contract": "contracts/evm/SatelliteStation.sol:SatelliteStation",
        "label": "peers",
        "offset": 0,
        "slot": "1",
        "type": "t_mapping(t_uint32,t_bytes32)"
      },
      {
        "astId": 4698,
        "contract": "contracts/evm/SatelliteStation.sol:SatelliteStation",
        "label": "_roles",
        "offset": 0,
        "slot": "2",
        "type": "t_mapping(t_bytes32,t_struct(RoleData)4693_storage)"
      },
      {
        "astId": 7557,
        "contract": "contracts/evm/SatelliteStation.sol:SatelliteStation",
        "label": "tokenMappings",
        "offset": 0,
        "slot": "3",
        "type": "t_mapping(t_address,t_address)"
      },
      {
        "astId": 7562,
        "contract": "contracts/evm/SatelliteStation.sol:SatelliteStation",
        "label": "supportedTokens",
        "offset": 0,
        "slot": "4",
        "type": "t_mapping(t_contract(IERC20)6018,t_bool)"
      },
      {
        "astId": 7567,
        "contract": "contracts/evm/SatelliteStation.sol:SatelliteStation",
        "label": "deposits",
        "offset": 0,
        "slot": "5",
        "type": "t_mapping(t_contract(IERC20)6018,t_uint256)"
      }
    ],
    "types": {
      "t_address": {
        "encoding": "inplace",
        "label": "address",
        "numberOfBytes": "20"
      },
      "t_bool": {
        "encoding": "inplace",
        "label": "bool",
        "numberOfBytes": "1"
      },
      "t_bytes32": {
        "encoding": "inplace",
        "label": "bytes32",
        "numberOfBytes": "32"
      },
      "t_contract(IERC20)6018": {
        "encoding": "inplace",
        "label": "contract IERC20",
        "numberOfBytes": "20"
      },
      "t_mapping(t_address,t_address)": {
        "encoding": "mapping",
        "key": "t_address",
        "label": "mapping(address => address)",
        "numberOfBytes": "32",
        "value": "t_address"
      },
      "t_mapping(t_address,t_bool)": {
        "encoding": "mapping",
        "key": "t_address",
        "label": "mapping(address => bool)",
        "numberOfBytes": "32",
        "value": "t_bool"
      },
      "t_mapping(t_bytes32,t_struct(RoleData)4693_storage)": {
        "encoding": "mapping",
        "key": "t_bytes32",
        "label": "mapping(bytes32 => struct AccessControl.RoleData)",
        "numberOfBytes": "32",
        "value": "t_struct(RoleData)4693_storage"
      },
      "t_mapping(t_contract(IERC20)6018,t_bool)": {
        "encoding": "mapping",
        "key": "t_contract(IERC20)6018",
        "label": "mapping(contract IERC20 => bool)",
        "numberOfBytes": "32",
        "value": "t_bool"
      },
      "t_mapping(t_contract(IERC20)6018,t_uint256)": {
        "encoding": "mapping",
        "key": "t_contract(IERC20)6018",
        "label": "mapping(contract IERC20 => uint256)",
        "numberOfBytes": "32",
        "value": "t_uint256"
      },
      "t_mapping(t_uint32,t_bytes32)": {
        "encoding": "mapping",
        "key": "t_uint32",
        "label": "mapping(uint32 => bytes32)",
        "numberOfBytes": "32",
        "value": "t_bytes32"
      },
      "t_struct(RoleData)4693_storage": {
        "encoding": "inplace",
        "label": "struct AccessControl.RoleData",
        "members": [
          {
            "astId": 4690,
            "contract": "contracts/evm/SatelliteStation.sol:SatelliteStation",
            "label": "hasRole",
            "offset": 0,
            "slot": "0",
            "type": "t_mapping(t_address,t_bool)"
          },
          {
            "astId": 4692,
            "contract": "contracts/evm/SatelliteStation.sol:SatelliteStation",
            "label": "adminRole",
            "offset": 0,
            "slot": "1",
            "type": "t_bytes32"
          }
        ],
        "numberOfBytes": "64"
      },
      "t_uint256": {
        "encoding": "inplace",
        "label": "uint256",
        "numberOfBytes": "32"
      },
      "t_uint32": {
        "encoding": "inplace",
        "label": "uint32",
        "numberOfBytes": "4"
      }
    }
  }
}