{
  "address": "0x8566E2f222A6e60A4F70d06Afc5DAB3e8F5E9969",
  "abi": [
    {
      "inputs": [],
      "stateMutability": "nonpayable",
      "type": "constructor"
    },
    {
      "inputs": [],
      "name": "AccessControlBadConfirmation",
      "type": "error"
    },
    {
      "inputs": [
        {
          "internalType": "address",
          "name": "account",
          "type": "address"
        },
        {
          "internalType": "bytes32",
          "name": "neededRole",
          "type": "bytes32"
        }
      ],
      "name": "AccessControlUnauthorizedAccount",
      "type": "error"
    },
    {
      "anonymous": false,
      "inputs": [
        {
          "indexed": true,
          "internalType": "bytes32",
          "name": "role",
          "type": "bytes32"
        },
        {
          "indexed": true,
          "internalType": "bytes32",
          "name": "previousAdminRole",
          "type": "bytes32"
        },
        {
          "indexed": true,
          "internalType": "bytes32",
          "name": "newAdminRole",
          "type": "bytes32"
        }
      ],
      "name": "RoleAdminChanged",
      "type": "event"
    },
    {
      "anonymous": false,
      "inputs": [
        {
          "indexed": true,
          "internalType": "bytes32",
          "name": "role",
          "type": "bytes32"
        },
        {
          "indexed": true,
          "internalType": "address",
          "name": "account",
          "type": "address"
        },
        {
          "indexed": true,
          "internalType": "address",
          "name": "sender",
          "type": "address"
        }
      ],
      "name": "RoleGranted",
      "type": "event"
    },
    {
      "anonymous": false,
      "inputs": [
        {
          "indexed": true,
          "internalType": "bytes32",
          "name": "role",
          "type": "bytes32"
        },
        {
          "indexed": true,
          "internalType": "address",
          "name": "account",
          "type": "address"
        },
        {
          "indexed": true,
          "internalType": "address",
          "name": "sender",
          "type": "address"
        }
      ],
      "name": "RoleRevoked",
      "type": "event"
    },
    {
      "inputs": [],
      "name": "ADMIN_ROLE",
      "outputs": [
        {
          "internalType": "bytes32",
          "name": "",
          "type": "bytes32"
        }
      ],
      "stateMutability": "view",
      "type": "function"
    },
    {
      "inputs": [],
      "name": "DEFAULT_ADMIN_ROLE",
      "outputs": [
        {
          "internalType": "bytes32",
          "name": "",
          "type": "bytes32"
        }
      ],
      "stateMutability": "view",
      "type": "function"
    },
    {
      "inputs": [],
      "name": "FEE_MANAGER_ROLE",
      "outputs": [
        {
          "internalType": "bytes32",
          "name": "",
          "type": "bytes32"
        }
      ],
      "stateMutability": "view",
      "type": "function"
    },
    {
      "inputs": [
        {
          "internalType": "uint256",
          "name": "amount",
          "type": "uint256"
        }
      ],
      "name": "calculateNonStableTokenFees",
      "outputs": [
        {
          "components": [
            {
              "internalType": "uint256",
              "name": "baseFee",
              "type": "uint256"
            },
            {
              "internalType": "uint256",
              "name": "variableFee",
              "type": "uint256"
            },
            {
              "internalType": "uint256",
              "name": "liquidityFee",
              "type": "uint256"
            },
            {
              "internalType": "uint256",
              "name": "totalFee",
              "type": "uint256"
            }
          ],
          "internalType": "struct FeeManager.Fees",
          "name": "",
          "type": "tuple"
        }
      ],
      "stateMutability": "view",
      "type": "function"
    },
    {
      "inputs": [
        {
          "internalType": "uint256",
          "name": "amount",
          "type": "uint256"
        }
      ],
      "name": "calculateStablecoinFees",
      "outputs": [
        {
          "components": [
            {
              "internalType": "uint256",
              "name": "baseFee",
              "type": "uint256"
            },
            {
              "internalType": "uint256",
              "name": "variableFee",
              "type": "uint256"
            },
            {
              "internalType": "uint256",
              "name": "liquidityFee",
              "type": "uint256"
            },
            {
              "internalType": "uint256",
              "name": "totalFee",
              "type": "uint256"
            }
          ],
          "internalType": "struct FeeManager.Fees",
          "name": "",
          "type": "tuple"
        }
      ],
      "stateMutability": "view",
      "type": "function"
    },
    {
      "inputs": [
        {
          "internalType": "uint256",
          "name": "",
          "type": "uint256"
        }
      ],
      "name": "feeThresholds",
      "outputs": [
        {
          "internalType": "uint256",
          "name": "",
          "type": "uint256"
        }
      ],
      "stateMutability": "view",
      "type": "function"
    },
    {
      "inputs": [
        {
          "internalType": "bytes32",
          "name": "role",
          "type": "bytes32"
        }
      ],
      "name": "getRoleAdmin",
      "outputs": [
        {
          "internalType": "bytes32",
          "name": "",
          "type": "bytes32"
        }
      ],
      "stateMutability": "view",
      "type": "function"
    },
    {
      "inputs": [
        {
          "internalType": "uint256",
          "name": "amount",
          "type": "uint256"
        }
      ],
      "name": "getStablecoinFeeRates",
      "outputs": [
        {
          "components": [
            {
              "internalType": "uint256",
              "name": "baseFee",
              "type": "uint256"
            },
            {
              "internalType": "uint256",
              "name": "variableRate",
              "type": "uint256"
            },
            {
              "internalType": "uint256",
              "name": "liquidityRate",
              "type": "uint256"
            }
          ],
          "internalType": "struct FeeManager.FeeRates",
          "name": "",
          "type": "tuple"
        }
      ],
      "stateMutability": "view",
      "type": "function"
    },
    {
      "inputs": [
        {
          "internalType": "bytes32",
          "name": "role",
          "type": "bytes32"
        },
        {
          "internalType": "address",
          "name": "account",
          "type": "address"
        }
      ],
      "name": "grantRole",
      "outputs": [],
      "stateMutability": "nonpayable",
      "type": "function"
    },
    {
      "inputs": [
        {
          "internalType": "bytes32",
          "name": "role",
          "type": "bytes32"
        },
        {
          "internalType": "address",
          "name": "account",
          "type": "address"
        }
      ],
      "name": "hasRole",
      "outputs": [
        {
          "internalType": "bool",
          "name": "",
          "type": "bool"
        }
      ],
      "stateMutability": "view",
      "type": "function"
    },
    {
      "inputs": [],
      "name": "nonStableTokenFees",
      "outputs": [
        {
          "internalType": "uint256",
          "name": "baseFee",
          "type": "uint256"
        },
        {
          "internalType": "uint256",
          "name": "variableRate",
          "type": "uint256"
        },
        {
          "internalType": "uint256",
          "name": "liquidityRate",
          "type": "uint256"
        }
      ],
      "stateMutability": "view",
      "type": "function"
    },
    {
      "inputs": [
        {
          "internalType": "uint256",
          "name": "threshold",
          "type": "uint256"
        }
      ],
      "name": "removeFeeTier",
      "outputs": [],
      "stateMutability": "nonpayable",
      "type": "function"
    },
    {
      "inputs": [
        {
          "internalType": "bytes32",
          "name": "role",
          "type": "bytes32"
        },
        {
          "internalType": "address",
          "name": "callerConfirmation",
          "type": "address"
        }
      ],
      "name": "renounceRole",
      "outputs": [],
      "stateMutability": "nonpayable",
      "type": "function"
    },
    {
      "inputs": [
        {
          "internalType": "bytes32",
          "name": "role",
          "type": "bytes32"
        },
        {
          "internalType": "address",
          "name": "account",
          "type": "address"
        }
      ],
      "name": "revokeRole",
      "outputs": [],
      "stateMutability": "nonpayable",
      "type": "function"
    },
    {
      "inputs": [
        {
          "internalType": "uint256",
          "name": "",
          "type": "uint256"
        }
      ],
      "name": "stablecoinFeeTiers",
      "outputs": [
        {
          "internalType": "uint256",
          "name": "baseFee",
          "type": "uint256"
        },
        {
          "internalType": "uint256",
          "name": "variableRate",
          "type": "uint256"
        },
        {
          "internalType": "uint256",
          "name": "liquidityRate",
          "type": "uint256"
        }
      ],
      "stateMutability": "view",
      "type": "function"
    },
    {
      "inputs": [
        {
          "internalType": "bytes4",
          "name": "interfaceId",
          "type": "bytes4"
        }
      ],
      "name": "supportsInterface",
      "outputs": [
        {
          "internalType": "bool",
          "name": "",
          "type": "bool"
        }
      ],
      "stateMutability": "view",
      "type": "function"
    },
    {
      "inputs": [
        {
          "internalType": "uint256",
          "name": "threshold",
          "type": "uint256"
        },
        {
          "components": [
            {
              "internalType": "uint256",
              "name": "baseFee",
              "type": "uint256"
            },
            {
              "internalType": "uint256",
              "name": "variableRate",
              "type": "uint256"
            },
            {
              "internalType": "uint256",
              "name": "liquidityRate",
              "type": "uint256"
            }
          ],
          "internalType": "struct FeeManager.FeeRates",
          "name": "rates",
          "type": "tuple"
        }
      ],
      "name": "updateFeeTier",
      "outputs": [],
      "stateMutability": "nonpayable",
      "type": "function"
    },
    {
      "inputs": [
        {
          "components": [
            {
              "internalType": "uint256",
              "name": "baseFee",
              "type": "uint256"
            },
            {
              "internalType": "uint256",
              "name": "variableRate",
              "type": "uint256"
            },
            {
              "internalType": "uint256",
              "name": "liquidityRate",
              "type": "uint256"
            }
          ],
          "internalType": "struct FeeManager.FeeRates",
          "name": "rates",
          "type": "tuple"
        }
      ],
      "name": "updateNonStableTokenFees",
      "outputs": [],
      "stateMutability": "nonpayable",
      "type": "function"
    }
  ],
  "transactionHash": "0xf3ee60d17e4f9127da1c7892277734b0aa3dbaa83a83d46ea48bb74651075f05",
  "args": [],
  "numDeployments": 1,
  "solcInputHash": "6fe44dfe6a0be0adb903fc3992d54f94",
  "bytecode": "0x608060405234801562000010575f80fd5b506200001d5f33620003b5565b50620000385f805160206200127783398151915233620003b5565b50620000737f6c0757dc3e6b28b2580c03fd9e96c274acf4f99d91fbec9b418fa1d70604ff1c5f805160206200127783398151915262000461565b6040518060a001604052806103e881526020016127108152602001620186a08152602001620f424081526020015f198152506002906005620000b7929190620004ab565b506040805160608082018352620f4240808352603260208085018281528587018381526103e85f908152600180855297517f0790f8f5f10ef420d1a97e2b257888a110d70632898b2fc5c5bea6575f303f8a5591517f0790f8f5f10ef420d1a97e2b257888a110d70632898b2fc5c5bea6575f303f8b55517f0790f8f5f10ef420d1a97e2b257888a110d70632898b2fc5c5bea6575f303f8c5586518086018852624c4b4081528083018481526028828a01818152612710855289865292517f1ca239af1d44623dfaa87ee0cbbbe4bbeb2112df36e66deedafd694350d045cd5590517f1ca239af1d44623dfaa87ee0cbbbe4bbeb2112df36e66deedafd694350d045ce5590517f1ca239af1d44623dfaa87ee0cbbbe4bbeb2112df36e66deedafd694350d045cf55875180870189526302faf0808152808401828152818a01928352620186a0845288855290517fbd72d0b4bcb79f7a3a7340d6fe4523157eec2b282aa578003e2d3b1b56dd2f8c55517fbd72d0b4bcb79f7a3a7340d6fe4523157eec2b282aa578003e2d3b1b56dd2f8d55517fbd72d0b4bcb79f7a3a7340d6fe4523157eec2b282aa578003e2d3b1b56dd2f8e55865180860188526305f5e10081526023818401908152601e828a0181815296845288855291517f51c8e99b8ade159b002e96707e266747f24fd3b39e99e749d353c3919b147db955517f51c8e99b8ade159b002e96707e266747f24fd3b39e99e749d353c3919b147dba5593517f51c8e99b8ade159b002e96707e266747f24fd3b39e99e749d353c3919b147dbb5586518086018852631dcd6500815280830194855260148189019081525f198352968352517fc39d774f18115b85b81494d65e588b565d73abc969333d1da7b0a0eb0729accd5592517fc39d774f18115b85b81494d65e588b565d73abc969333d1da7b0a0eb0729acce5593517fc39d774f18115b85b81494d65e588b565d73abc969333d1da7b0a0eb0729accf55845192830185528183526064938301849052919093018190526003929092556004556005556200050f565b5f828152602081815260408083206001600160a01b038516845290915281205460ff1662000458575f838152602081815260408083206001600160a01b03861684529091529020805460ff191660011790556200040f3390565b6001600160a01b0316826001600160a01b0316847f2f8788117e7eff1d82e926ec794901d17c78024a50270940304540a733656f0d60405160405180910390a45060016200045b565b505f5b92915050565b5f82815260208190526040808220600101805490849055905190918391839186917fbd79b86ffe0ab8e8776151514217cd7cacd52c909f66475c3af44e129f0b00ff9190a4505050565b828054828255905f5260205f20908101928215620004e7579160200282015b82811115620004e7578251825591602001919060010190620004ca565b50620004f5929150620004f9565b5090565b5b80821115620004f5575f8155600101620004fa565b610d5a806200051d5f395ff3fe608060405234801561000f575f80fd5b5060043610610111575f3560e01c80636570721e1161009e57806390293d341161006e57806390293d34146102de57806391d14854146102f1578063a217fddf14610304578063d547741f1461030b578063e1a4444b1461031e575f80fd5b80636570721e1461023157806369c5b5e61461025e57806375b238fc146102715780638288018014610298575f80fd5b80632f2ff15d116100e45780632f2ff15d146101b657806336568abe146101cb57806342b53e5f146101de5780635c7b043d146101f1578063620591631461021e575f80fd5b806301ffc9a71461011557806305db2f411461013d578063248a9ca31461015f5780632af8ba4814610181575b5f80fd5b610128610123366004610b4a565b610331565b60405190151581526020015b60405180910390f35b6101515f80516020610d0583398151915281565b604051908152602001610134565b61015161016d366004610b71565b5f9081526020819052604090206001015490565b61019461018f366004610b71565b610367565b6040805182518152602080840151908201529181015190820152606001610134565b6101c96101c4366004610b88565b610479565b005b6101c96101d9366004610b88565b6104a3565b6101c96101ec366004610b71565b6104db565b60035460045460055461020392919083565b60408051938452602084019290925290820152606001610134565b6101c961022c366004610c27565b610617565b61020361023f366004610b71565b600160208190525f918252604090912080549181015460029091015483565b61015161026c366004610b71565b6106fc565b6101517fa49807205ce4d355092ef5a8a18f56e8913cf4a201fbe287825b095693c2177581565b6102ab6102a6366004610b71565b61071b565b60405161013491908151815260208083015190820152604080830151908201526060918201519181019190915260800190565b6101c96102ec366004610c52565b61075f565b6101286102ff366004610b88565b61078d565b6101515f81565b6101c9610319366004610b88565b6107b5565b6102ab61032c366004610b71565b6107d9565b5f6001600160e01b03198216637965db0b60e01b148061036157506301ffc9a760e01b6001600160e01b03198316145b92915050565b61038860405180606001604052805f81526020015f81526020015f81525090565b5f5b60025481101561041a57600281815481106103a7576103a7610c6c565b905f5260205f20015483116104125760015f600283815481106103cc576103cc610c6c565b905f5260205f20015481526020019081526020015f206040518060600160405290815f820154815260200160018201548152602001600282015481525050915050919050565b60010161038a565b5060405162461bcd60e51b815260206004820152602860248201527f466565207261746573206e6f7420666f756e6420666f722074686520676976656044820152671b88185b5bdd5b9d60c21b60648201526084015b60405180910390fd5b5f828152602081905260409020600101546104938161082c565b61049d8383610839565b50505050565b6001600160a01b03811633146104cc5760405163334bd91960e11b815260040160405180910390fd5b6104d682826108c8565b505050565b5f80516020610d058339815191526104f28161082c565b6104fb82610931565b6105475760405162461bcd60e51b815260206004820152601860248201527f5468726573686f6c6420646f6573206e6f7420657869737400000000000000006044820152606401610470565b5f82815260016020819052604082208281559081018290556002018190555b60025481101561060a57826002828154811061058457610584610c6c565b905f5260205f2001540361060257600280546105a290600190610c94565b815481106105b2576105b2610c6c565b905f5260205f200154600282815481106105ce576105ce610c6c565b5f9182526020909120015560028054806105ea576105ea610ca7565b600190038181905f5260205f20015f9055905561060a565b600101610566565b50610613610979565b5050565b5f80516020610d0583398151915261062e8161082c565b5f83116106895760405162461bcd60e51b815260206004820152602360248201527f5468726573686f6c64206d7573742062652067726561746572207468616e207a60448201526265726f60e81b6064820152608401610470565b5f83815260016020818152604092839020855181559085015191810191909155908301516002909101556106bc83610931565b6104d657600280546001810182555f919091527f405787fa12a823e0f2b7631cc41b3ba8828b3321ca811111fa75cd3aa3bb5ace018390556104d6610979565b6002818154811061070b575f80fd5b5f91825260209091200154905081565b61074260405180608001604052805f81526020015f81526020015f81526020015f81525090565b5f61074c83610367565b90506107588382610a68565b9392505050565b5f80516020610d058339815191526107768161082c565b508051600355602081015160045560400151600555565b5f918252602082815260408084206001600160a01b0393909316845291905290205460ff1690565b5f828152602081905260409020600101546107cf8161082c565b61049d83836108c8565b61080060405180608001604052805f81526020015f81526020015f81526020015f81525090565b604080516060810182526003548152600454602082015260055491810191909152610361908390610a68565b6108368133610b11565b50565b5f610844838361078d565b6108c1575f838152602081815260408083206001600160a01b03861684529091529020805460ff191660011790556108793390565b6001600160a01b0316826001600160a01b0316847f2f8788117e7eff1d82e926ec794901d17c78024a50270940304540a733656f0d60405160405180910390a4506001610361565b505f610361565b5f6108d3838361078d565b156108c1575f838152602081815260408083206001600160a01b0386168085529252808320805460ff1916905551339286917ff6391f5c32d9c69d2a47ea670b442974b53935d1edc7fd64eb21e047a839171b9190a4506001610361565b5f805b60025481101561097157826002828154811061095257610952610c6c565b905f5260205f200154036109695750600192915050565b600101610934565b505f92915050565b5f5b600254811015610836575f610991826001610cbb565b90505b600254811015610a5f57600281815481106109b1576109b1610c6c565b905f5260205f200154600283815481106109cd576109cd610c6c565b905f5260205f2001541115610a57575f600283815481106109f0576109f0610c6c565b905f5260205f200154905060028281548110610a0e57610a0e610c6c565b905f5260205f20015460028481548110610a2a57610a2a610c6c565b905f5260205f2001819055508060028381548110610a4a57610a4a610c6c565b5f91825260209091200155505b600101610994565b5060010161097b565b610a8f60405180608001604052805f81526020015f81526020015f81526020015f81525090565b815160208301515f9061271090610aa69087610cce565b610ab09190610ce5565b90505f612710856040015187610ac69190610cce565b610ad09190610ce5565b90505f81610ade8486610cbb565b610ae89190610cbb565b604080516080810182529586526020860194909452928401919091525060608201529392505050565b610b1b828261078d565b6106135760405163e2517d3f60e01b81526001600160a01b038216600482015260248101839052604401610470565b5f60208284031215610b5a575f80fd5b81356001600160e01b031981168114610758575f80fd5b5f60208284031215610b81575f80fd5b5035919050565b5f8060408385031215610b99575f80fd5b8235915060208301356001600160a01b0381168114610bb6575f80fd5b809150509250929050565b5f60608284031215610bd1575f80fd5b6040516060810181811067ffffffffffffffff82111715610c0057634e487b7160e01b5f52604160045260245ffd5b80604052508091508235815260208301356020820152604083013560408201525092915050565b5f8060808385031215610c38575f80fd5b82359150610c498460208501610bc1565b90509250929050565b5f60608284031215610c62575f80fd5b6107588383610bc1565b634e487b7160e01b5f52603260045260245ffd5b634e487b7160e01b5f52601160045260245ffd5b8181038181111561036157610361610c80565b634e487b7160e01b5f52603160045260245ffd5b8082018082111561036157610361610c80565b808202811582820484141761036157610361610c80565b5f82610cff57634e487b7160e01b5f52601260045260245ffd5b50049056fe6c0757dc3e6b28b2580c03fd9e96c274acf4f99d91fbec9b418fa1d70604ff1ca26469706673582212208a6fc0d0b95597c17ddfbc618a93841c362c1ca91078d7205ed20cee77d1910b64736f6c63430008180033a49807205ce4d355092ef5a8a18f56e8913cf4a201fbe287825b095693c21775",
  "devdoc": {
    "errors": {
      "AccessControlBadConfirmation()": [
        {
          "details": "The caller of a function is not the expected one. NOTE: Don't confuse with {AccessControlUnauthorizedAccount}."
        }
      ],
      "AccessControlUnauthorizedAccount(address,bytes32)": [
        {
          "details": "The `account` is missing a role."
        }
      ]
    },
    "events": {
      "RoleAdminChanged(bytes32,bytes32,bytes32)": {
        "details": "Emitted when `newAdminRole` is set as ``role``'s admin role, replacing `previousAdminRole` `DEFAULT_ADMIN_ROLE` is the starting admin for all roles, despite {RoleAdminChanged} not being emitted signaling this."
      },
      "RoleGranted(bytes32,address,address)": {
        "details": "Emitted when `account` is granted `role`. `sender` is the account that originated the contract call. This account bears the admin role (for the granted role). Expected in cases where the role was granted using the internal {AccessControl-_grantRole}."
      },
      "RoleRevoked(bytes32,address,address)": {
        "details": "Emitted when `account` is revoked `role`. `sender` is the account that originated the contract call:   - if using `revokeRole`, it is the admin role bearer   - if using `renounceRole`, it is the role bearer (i.e. `account`)"
      }
    },
    "kind": "dev",
    "methods": {
      "getRoleAdmin(bytes32)": {
        "details": "Returns the admin role that controls `role`. See {grantRole} and {revokeRole}. To change a role's admin, use {_setRoleAdmin}."
      },
      "grantRole(bytes32,address)": {
        "details": "Grants `role` to `account`. If `account` had not been already granted `role`, emits a {RoleGranted} event. Requirements: - the caller must have ``role``'s admin role. May emit a {RoleGranted} event."
      },
      "hasRole(bytes32,address)": {
        "details": "Returns `true` if `account` has been granted `role`."
      },
      "renounceRole(bytes32,address)": {
        "details": "Revokes `role` from the calling account. Roles are often managed via {grantRole} and {revokeRole}: this function's purpose is to provide a mechanism for accounts to lose their privileges if they are compromised (such as when a trusted device is misplaced). If the calling account had been revoked `role`, emits a {RoleRevoked} event. Requirements: - the caller must be `callerConfirmation`. May emit a {RoleRevoked} event."
      },
      "revokeRole(bytes32,address)": {
        "details": "Revokes `role` from `account`. If `account` had been granted `role`, emits a {RoleRevoked} event. Requirements: - the caller must have ``role``'s admin role. May emit a {RoleRevoked} event."
      },
      "supportsInterface(bytes4)": {
        "details": "See {IERC165-supportsInterface}."
      }
    },
    "version": 1
  },
  "userdoc": {
    "kind": "user",
    "methods": {},
    "version": 1
  },
  "storageLayout": {
    "storage": [
      {
        "astId": 4554,
        "contract": "contracts/evm/FeeManager.sol:FeeManager",
        "label": "_roles",
        "offset": 0,
        "slot": "0",
        "type": "t_mapping(t_bytes32,t_struct(RoleData)4549_storage)"
      },
      {
        "astId": 6684,
        "contract": "contracts/evm/FeeManager.sol:FeeManager",
        "label": "stablecoinFeeTiers",
        "offset": 0,
        "slot": "1",
        "type": "t_mapping(t_uint256,t_struct(FeeRates)6670_storage)"
      },
      {
        "astId": 6687,
        "contract": "contracts/evm/FeeManager.sol:FeeManager",
        "label": "feeThresholds",
        "offset": 0,
        "slot": "2",
        "type": "t_array(t_uint256)dyn_storage"
      },
      {
        "astId": 6690,
        "contract": "contracts/evm/FeeManager.sol:FeeManager",
        "label": "nonStableTokenFees",
        "offset": 0,
        "slot": "3",
        "type": "t_struct(FeeRates)6670_storage"
      }
    ],
    "types": {
      "t_address": {
        "encoding": "inplace",
        "label": "address",
        "numberOfBytes": "20"
      },
      "t_array(t_uint256)dyn_storage": {
        "base": "t_uint256",
        "encoding": "dynamic_array",
        "label": "uint256[]",
        "numberOfBytes": "32"
      },
      "t_bool": {
        "encoding": "inplace",
        "label": "bool",
        "numberOfBytes": "1"
      },
      "t_bytes32": {
        "encoding": "inplace",
        "label": "bytes32",
        "numberOfBytes": "32"
      },
      "t_mapping(t_address,t_bool)": {
        "encoding": "mapping",
        "key": "t_address",
        "label": "mapping(address => bool)",
        "numberOfBytes": "32",
        "value": "t_bool"
      },
      "t_mapping(t_bytes32,t_struct(RoleData)4549_storage)": {
        "encoding": "mapping",
        "key": "t_bytes32",
        "label": "mapping(bytes32 => struct AccessControl.RoleData)",
        "numberOfBytes": "32",
        "value": "t_struct(RoleData)4549_storage"
      },
      "t_mapping(t_uint256,t_struct(FeeRates)6670_storage)": {
        "encoding": "mapping",
        "key": "t_uint256",
        "label": "mapping(uint256 => struct FeeManager.FeeRates)",
        "numberOfBytes": "32",
        "value": "t_struct(FeeRates)6670_storage"
      },
      "t_struct(FeeRates)6670_storage": {
        "encoding": "inplace",
        "label": "struct FeeManager.FeeRates",
        "members": [
          {
            "astId": 6665,
            "contract": "contracts/evm/FeeManager.sol:FeeManager",
            "label": "baseFee",
            "offset": 0,
            "slot": "0",
            "type": "t_uint256"
          },
          {
            "astId": 6667,
            "contract": "contracts/evm/FeeManager.sol:FeeManager",
            "label": "variableRate",
            "offset": 0,
            "slot": "1",
            "type": "t_uint256"
          },
          {
            "astId": 6669,
            "contract": "contracts/evm/FeeManager.sol:FeeManager",
            "label": "liquidityRate",
            "offset": 0,
            "slot": "2",
            "type": "t_uint256"
          }
        ],
        "numberOfBytes": "96"
      },
      "t_struct(RoleData)4549_storage": {
        "encoding": "inplace",
        "label": "struct AccessControl.RoleData",
        "members": [
          {
            "astId": 4546,
            "contract": "contracts/evm/FeeManager.sol:FeeManager",
            "label": "hasRole",
            "offset": 0,
            "slot": "0",
            "type": "t_mapping(t_address,t_bool)"
          },
          {
            "astId": 4548,
            "contract": "contracts/evm/FeeManager.sol:FeeManager",
            "label": "adminRole",
            "offset": 0,
            "slot": "1",
            "type": "t_bytes32"
          }
        ],
        "numberOfBytes": "64"
      },
      "t_uint256": {
        "encoding": "inplace",
        "label": "uint256",
        "numberOfBytes": "32"
      }
    }
  }
}