{
  "address": "0x0307656F05A586DFCcBb1106BDE3890ca7dA0a96",
  "abi": [
    {
      "inputs": [],
      "stateMutability": "nonpayable",
      "type": "constructor"
    },
    {
      "inputs": [],
      "name": "AccessControlBadConfirmation",
      "type": "error"
    },
    {
      "inputs": [
        {
          "internalType": "address",
          "name": "account",
          "type": "address"
        },
        {
          "internalType": "bytes32",
          "name": "neededRole",
          "type": "bytes32"
        }
      ],
      "name": "AccessControlUnauthorizedAccount",
      "type": "error"
    },
    {
      "anonymous": false,
      "inputs": [
        {
          "indexed": true,
          "internalType": "bytes32",
          "name": "role",
          "type": "bytes32"
        },
        {
          "indexed": true,
          "internalType": "bytes32",
          "name": "previousAdminRole",
          "type": "bytes32"
        },
        {
          "indexed": true,
          "internalType": "bytes32",
          "name": "newAdminRole",
          "type": "bytes32"
        }
      ],
      "name": "RoleAdminChanged",
      "type": "event"
    },
    {
      "anonymous": false,
      "inputs": [
        {
          "indexed": true,
          "internalType": "bytes32",
          "name": "role",
          "type": "bytes32"
        },
        {
          "indexed": true,
          "internalType": "address",
          "name": "account",
          "type": "address"
        },
        {
          "indexed": true,
          "internalType": "address",
          "name": "sender",
          "type": "address"
        }
      ],
      "name": "RoleGranted",
      "type": "event"
    },
    {
      "anonymous": false,
      "inputs": [
        {
          "indexed": true,
          "internalType": "bytes32",
          "name": "role",
          "type": "bytes32"
        },
        {
          "indexed": true,
          "internalType": "address",
          "name": "account",
          "type": "address"
        },
        {
          "indexed": true,
          "internalType": "address",
          "name": "sender",
          "type": "address"
        }
      ],
      "name": "RoleRevoked",
      "type": "event"
    },
    {
      "anonymous": false,
      "inputs": [
        {
          "indexed": false,
          "internalType": "address",
          "name": "tokenAddress",
          "type": "address"
        },
        {
          "indexed": false,
          "internalType": "uint256",
          "name": "customFee",
          "type": "uint256"
        },
        {
          "indexed": false,
          "internalType": "uint256",
          "name": "minThreshold",
          "type": "uint256"
        },
        {
          "indexed": false,
          "internalType": "uint8",
          "name": "tokenType",
          "type": "uint8"
        }
      ],
      "name": "TokenFeeConfigured",
      "type": "event"
    },
    {
      "anonymous": false,
      "inputs": [
        {
          "indexed": false,
          "internalType": "address",
          "name": "tokenAddress",
          "type": "address"
        }
      ],
      "name": "TokenRemoved",
      "type": "event"
    },
    {
      "inputs": [],
      "name": "DEFAULT_ADMIN_ROLE",
      "outputs": [
        {
          "internalType": "bytes32",
          "name": "",
          "type": "bytes32"
        }
      ],
      "stateMutability": "view",
      "type": "function"
    },
    {
      "inputs": [],
      "name": "DEFAULT_FEE",
      "outputs": [
        {
          "internalType": "uint256",
          "name": "",
          "type": "uint256"
        }
      ],
      "stateMutability": "view",
      "type": "function"
    },
    {
      "inputs": [],
      "name": "FEE_DENOMINATOR",
      "outputs": [
        {
          "internalType": "uint256",
          "name": "",
          "type": "uint256"
        }
      ],
      "stateMutability": "view",
      "type": "function"
    },
    {
      "inputs": [],
      "name": "MANAGER_ROLE",
      "outputs": [
        {
          "internalType": "bytes32",
          "name": "",
          "type": "bytes32"
        }
      ],
      "stateMutability": "view",
      "type": "function"
    },
    {
      "inputs": [
        {
          "internalType": "address",
          "name": "tokenAddress",
          "type": "address"
        },
        {
          "internalType": "uint256",
          "name": "amount",
          "type": "uint256"
        },
        {
          "internalType": "address",
          "name": "user",
          "type": "address"
        }
      ],
      "name": "calculateFees",
      "outputs": [
        {
          "internalType": "uint256",
          "name": "userAmount",
          "type": "uint256"
        },
        {
          "internalType": "uint256",
          "name": "protocolFee",
          "type": "uint256"
        }
      ],
      "stateMutability": "view",
      "type": "function"
    },
    {
      "inputs": [
        {
          "internalType": "address",
          "name": "tokenAddress",
          "type": "address"
        },
        {
          "internalType": "uint256",
          "name": "customFee",
          "type": "uint256"
        },
        {
          "internalType": "uint256",
          "name": "minThreshold",
          "type": "uint256"
        },
        {
          "internalType": "uint256",
          "name": "tokenId",
          "type": "uint256"
        },
        {
          "internalType": "uint8",
          "name": "tokenType",
          "type": "uint8"
        }
      ],
      "name": "configureTokenFee",
      "outputs": [],
      "stateMutability": "nonpayable",
      "type": "function"
    },
    {
      "inputs": [
        {
          "internalType": "uint256",
          "name": "",
          "type": "uint256"
        }
      ],
      "name": "feeTokens",
      "outputs": [
        {
          "internalType": "uint256",
          "name": "fee",
          "type": "uint256"
        },
        {
          "internalType": "uint256",
          "name": "minThreshold",
          "type": "uint256"
        },
        {
          "internalType": "address",
          "name": "tokenAddress",
          "type": "address"
        },
        {
          "internalType": "uint8",
          "name": "tokenType",
          "type": "uint8"
        },
        {
          "internalType": "uint256",
          "name": "tokenId",
          "type": "uint256"
        }
      ],
      "stateMutability": "view",
      "type": "function"
    },
    {
      "inputs": [
        {
          "internalType": "address",
          "name": "user",
          "type": "address"
        }
      ],
      "name": "getApplicableFee",
      "outputs": [
        {
          "internalType": "uint256",
          "name": "",
          "type": "uint256"
        }
      ],
      "stateMutability": "view",
      "type": "function"
    },
    {
      "inputs": [
        {
          "internalType": "address",
          "name": "tokenAddress",
          "type": "address"
        },
        {
          "internalType": "uint256",
          "name": "amount",
          "type": "uint256"
        },
        {
          "internalType": "address",
          "name": "user",
          "type": "address"
        }
      ],
      "name": "getFeeBreakdown",
      "outputs": [
        {
          "internalType": "uint256",
          "name": "userAmount",
          "type": "uint256"
        },
        {
          "internalType": "uint256",
          "name": "protocolFee",
          "type": "uint256"
        }
      ],
      "stateMutability": "view",
      "type": "function"
    },
    {
      "inputs": [
        {
          "internalType": "bytes32",
          "name": "role",
          "type": "bytes32"
        }
      ],
      "name": "getRoleAdmin",
      "outputs": [
        {
          "internalType": "bytes32",
          "name": "",
          "type": "bytes32"
        }
      ],
      "stateMutability": "view",
      "type": "function"
    },
    {
      "inputs": [
        {
          "internalType": "bytes32",
          "name": "role",
          "type": "bytes32"
        },
        {
          "internalType": "address",
          "name": "account",
          "type": "address"
        }
      ],
      "name": "grantRole",
      "outputs": [],
      "stateMutability": "nonpayable",
      "type": "function"
    },
    {
      "inputs": [
        {
          "internalType": "bytes32",
          "name": "role",
          "type": "bytes32"
        },
        {
          "internalType": "address",
          "name": "account",
          "type": "address"
        }
      ],
      "name": "hasRole",
      "outputs": [
        {
          "internalType": "bool",
          "name": "",
          "type": "bool"
        }
      ],
      "stateMutability": "view",
      "type": "function"
    },
    {
      "inputs": [
        {
          "internalType": "address",
          "name": "user",
          "type": "address"
        }
      ],
      "name": "meetsCustomFeeRequirement",
      "outputs": [
        {
          "internalType": "bool",
          "name": "",
          "type": "bool"
        }
      ],
      "stateMutability": "view",
      "type": "function"
    },
    {
      "inputs": [
        {
          "internalType": "address",
          "name": "tokenAddress",
          "type": "address"
        }
      ],
      "name": "removeToken",
      "outputs": [],
      "stateMutability": "nonpayable",
      "type": "function"
    },
    {
      "inputs": [
        {
          "internalType": "bytes32",
          "name": "role",
          "type": "bytes32"
        },
        {
          "internalType": "address",
          "name": "callerConfirmation",
          "type": "address"
        }
      ],
      "name": "renounceRole",
      "outputs": [],
      "stateMutability": "nonpayable",
      "type": "function"
    },
    {
      "inputs": [
        {
          "internalType": "bytes32",
          "name": "role",
          "type": "bytes32"
        },
        {
          "internalType": "address",
          "name": "account",
          "type": "address"
        }
      ],
      "name": "revokeRole",
      "outputs": [],
      "stateMutability": "nonpayable",
      "type": "function"
    },
    {
      "inputs": [
        {
          "internalType": "bytes4",
          "name": "interfaceId",
          "type": "bytes4"
        }
      ],
      "name": "supportsInterface",
      "outputs": [
        {
          "internalType": "bool",
          "name": "",
          "type": "bool"
        }
      ],
      "stateMutability": "view",
      "type": "function"
    }
  ],
  "transactionHash": "0xef2205df4106f87a3a3d7f065a1df4b3c9c4d586ede7bb9367950247e8bb2bdb",
  "args": [],
  "numDeployments": 1,
  "solcInputHash": "cbeef7799891e55e5430b85d124fb29e",
  "bytecode": "0x608060405234801561000f575f80fd5b5061001a5f33610020565b506100c9565b5f828152602081815260408083206001600160a01b038516845290915281205460ff166100c0575f838152602081815260408083206001600160a01b03861684529091529020805460ff191660011790556100783390565b6001600160a01b0316826001600160a01b0316847f2f8788117e7eff1d82e926ec794901d17c78024a50270940304540a733656f0d60405160405180910390a45060016100c3565b505f5b92915050565b611066806100d65f395ff3fe608060405234801561000f575f80fd5b5060043610610106575f3560e01c80638ef4403c1161009e578063cedaece71161006e578063cedaece714610258578063d547741f1461026b578063d73792a91461027e578063df023aa214610287578063ec87621c1461029a575f80fd5b80638ef4403c146101e057806391d148541461022b578063a217fddf1461023e578063ad10d49314610245575f80fd5b80634fcc1def116100d95780634fcc1def1461018a5780635c8aa8e7146101925780635fa7b584146101ba57806360d262c0146101cd575f80fd5b806301ffc9a71461010a578063248a9ca3146101325780632f2ff15d1461016257806336568abe14610177575b5f80fd5b61011d610118366004610d38565b6102c1565b60405190151581526020015b60405180910390f35b610154610140366004610d66565b5f9081526020819052604090206001015490565b604051908152602001610129565b610175610170366004610d98565b6102f7565b005b610175610185366004610d98565b610321565b610154609681565b6101a56101a0366004610dc2565b610359565b60408051928352602083019190915201610129565b6101756101c8366004610dfb565b610372565b6101a56101db366004610dc2565b6105cb565b6101f36101ee366004610d66565b61072f565b6040805195865260208601949094526001600160a01b039092169284019290925260ff9091166060830152608082015260a001610129565b61011d610239366004610d98565b61077d565b6101545f81565b610154610253366004610dfb565b6107a5565b61011d610266366004610dfb565b6109a7565b610175610279366004610d98565b6109bb565b61015461271081565b610175610295366004610e22565b6109df565b6101547f241ecf16d79d0f8dbfb92cbc07fe17840425976cf0667f022fe9877caa831b0881565b5f6001600160e01b03198216637965db0b60e01b14806102f157506301ffc9a760e01b6001600160e01b03198316145b92915050565b5f8281526020819052604090206001015461031181610bf6565b61031b8383610c03565b50505050565b6001600160a01b038116331461034a5760405163334bd91960e11b815260040160405180910390fd5b6103548282610c92565b505050565b5f806103668585856105cb565b91509150935093915050565b7f241ecf16d79d0f8dbfb92cbc07fe17840425976cf0667f022fe9877caa831b0861039c81610bf6565b6001600160a01b0382166103ef5760405162461bcd60e51b8152602060048201526015602482015274496e76616c696420746f6b656e206164647265737360581b60448201526064015b60405180910390fd5b6001545f19905f5b8181101561044d57846001600160a01b03166001828154811061041c5761041c610e72565b5f9182526020909120600260049092020101546001600160a01b0316036104455780925061044d565b6001016103f7565b505f1982036104905760405162461bcd60e51b815260206004820152600f60248201526e151bdad95b881b9bdd08199bdd5b99608a1b60448201526064016103e6565b6001805461049f908290610e9a565b815481106104af576104af610e72565b905f5260205f209060040201600183815481106104ce576104ce610e72565b5f91825260209091208254600490920201908155600180830154818301556002808401805491840180546001600160a01b031981166001600160a01b039094169384178255915460ff600160a01b9182900416026001600160a81b0319909216909217179055600392830154929091019190915580548061055157610551610ead565b5f828152602080822060045f199490940193840201828155600181018390556002810180546001600160a81b03191690556003019190915591556040516001600160a01b03861681527f4c910b69fe65a61f7531b9c5042b2329ca7179c77290aa7e2eb3afa3c8511fd3910160405180910390a150505050565b5f805f6105d7846107a5565b90506127106105e68287610ec1565b6105f09190610ed8565b9150811580156105ff57505f85115b156106d5575f866001600160a01b031663313ce5676040518163ffffffff1660e01b8152600401602060405180830381865afa158015610641573d5f803e3d5ffd5b505050506040513d601f19601f820116820180604052508101906106659190610ef7565b905060128160ff1611156106bb5760405162461bcd60e51b815260206004820152601760248201527f546f6b656e20646563696d616c7320746f6f206869676800000000000000000060448201526064016103e6565b6106c6816012610f12565b6106d190600a61100b565b9250505b8482111561071a5760405162461bcd60e51b815260206004820152601260248201527111995948195e18d959591cc8185b5bdd5b9d60721b60448201526064016103e6565b6107248286610e9a565b925050935093915050565b6001818154811061073e575f80fd5b5f9182526020909120600490910201805460018201546002830154600390930154919350916001600160a01b03811691600160a01b90910460ff169085565b5f918252602082815260408084206001600160a01b0393909316845291905290205460ff1690565b5f6096815b6001548110156109a0575f600182815481106107c8576107c8610e72565b5f91825260208083206040805160a081018252600494909402909101805484526001808201549385019390935260028101546001600160a01b03811692850192909252600160a01b90910460ff16606084018190526003909101546080840152919350036108af5760408083015190516370a0823160e01b81526001600160a01b0388811660048301525f9216906370a08231906024015b602060405180830381865afa15801561087b573d5f803e3d5ffd5b505050506040513d601f19601f8201168201806040525081019061089f9190611019565b6020840151111591506109879050565b816060015160ff166002036108f25760408083015190516370a0823160e01b81526001600160a01b0388811660048301525f9216906370a0823190602401610860565b816060015160ff166003036109875760408083015160808401519151627eeac760e11b81526001600160a01b03898116600483015260248201939093525f929091169062fdd58e90604401602060405180830381865afa158015610958573d5f803e3d5ffd5b505050506040513d601f19601f8201168201806040525081019061097c9190611019565b602084015111159150505b801561099657505191506109a0565b50506001016107aa565b5092915050565b5f60966109b3836107a5565b141592915050565b5f828152602081905260409020600101546109d581610bf6565b61031b8383610c92565b7f241ecf16d79d0f8dbfb92cbc07fe17840425976cf0667f022fe9877caa831b08610a0981610bf6565b6001600160a01b038616610a575760405162461bcd60e51b8152602060048201526015602482015274496e76616c696420746f6b656e206164647265737360581b60448201526064016103e6565b612710851115610a9c5760405162461bcd60e51b815260206004820152601060248201526f4665652065786365656473203130302560801b60448201526064016103e6565b6040805160a08101825286815260208082018781526001600160a01b038a811684860181815260ff89811660608089018281526080808b018f81526001805480820182555f919091529b516004909c027fb10e2d527612073b26eecdfd717e6a320cf44b4afac2b0732d9fcbe2b7fa0cf681019c909c5598517fb10e2d527612073b26eecdfd717e6a320cf44b4afac2b0732d9fcbe2b7fa0cf78c015594517fb10e2d527612073b26eecdfd717e6a320cf44b4afac2b0732d9fcbe2b7fa0cf88b0180549251909516600160a01b026001600160a81b03199092169716969096179590951790915593517fb10e2d527612073b26eecdfd717e6a320cf44b4afac2b0732d9fcbe2b7fa0cf99096019590955585519081529283018a905282850189905282015291517f4518af97d43d63290f200db96d6afec3152ac498d23eaaecd409fb5a8c2a8b399281900390910190a1505050505050565b610c008133610cfb565b50565b5f610c0e838361077d565b610c8b575f838152602081815260408083206001600160a01b03861684529091529020805460ff19166001179055610c433390565b6001600160a01b0316826001600160a01b0316847f2f8788117e7eff1d82e926ec794901d17c78024a50270940304540a733656f0d60405160405180910390a45060016102f1565b505f6102f1565b5f610c9d838361077d565b15610c8b575f838152602081815260408083206001600160a01b0386168085529252808320805460ff1916905551339286917ff6391f5c32d9c69d2a47ea670b442974b53935d1edc7fd64eb21e047a839171b9190a45060016102f1565b610d05828261077d565b610d345760405163e2517d3f60e01b81526001600160a01b0382166004820152602481018390526044016103e6565b5050565b5f60208284031215610d48575f80fd5b81356001600160e01b031981168114610d5f575f80fd5b9392505050565b5f60208284031215610d76575f80fd5b5035919050565b80356001600160a01b0381168114610d93575f80fd5b919050565b5f8060408385031215610da9575f80fd5b82359150610db960208401610d7d565b90509250929050565b5f805f60608486031215610dd4575f80fd5b610ddd84610d7d565b925060208401359150610df260408501610d7d565b90509250925092565b5f60208284031215610e0b575f80fd5b610d5f82610d7d565b60ff81168114610c00575f80fd5b5f805f805f60a08688031215610e36575f80fd5b610e3f86610d7d565b94506020860135935060408601359250606086013591506080860135610e6481610e14565b809150509295509295909350565b634e487b7160e01b5f52603260045260245ffd5b634e487b7160e01b5f52601160045260245ffd5b818103818111156102f1576102f1610e86565b634e487b7160e01b5f52603160045260245ffd5b80820281158282048414176102f1576102f1610e86565b5f82610ef257634e487b7160e01b5f52601260045260245ffd5b500490565b5f60208284031215610f07575f80fd5b8151610d5f81610e14565b60ff82811682821603908111156102f1576102f1610e86565b600181815b80851115610f6557815f1904821115610f4b57610f4b610e86565b80851615610f5857918102915b93841c9390800290610f30565b509250929050565b5f82610f7b575060016102f1565b81610f8757505f6102f1565b8160018114610f9d5760028114610fa757610fc3565b60019150506102f1565b60ff841115610fb857610fb8610e86565b50506001821b6102f1565b5060208310610133831016604e8410600b8410161715610fe6575081810a6102f1565b610ff08383610f2b565b805f190482111561100357611003610e86565b029392505050565b5f610d5f60ff841683610f6d565b5f60208284031215611029575f80fd5b505191905056fea2646970667358221220547673f038c26f6c2a0dd5197a488c1f8a6207d96cdb860d918fd934603f5ad564736f6c63430008180033",
  "devdoc": {
    "errors": {
      "AccessControlBadConfirmation()": [
        {
          "details": "The caller of a function is not the expected one. NOTE: Don't confuse with {AccessControlUnauthorizedAccount}."
        }
      ],
      "AccessControlUnauthorizedAccount(address,bytes32)": [
        {
          "details": "The `account` is missing a role."
        }
      ]
    },
    "events": {
      "RoleAdminChanged(bytes32,bytes32,bytes32)": {
        "details": "Emitted when `newAdminRole` is set as ``role``'s admin role, replacing `previousAdminRole` `DEFAULT_ADMIN_ROLE` is the starting admin for all roles, despite {RoleAdminChanged} not being emitted signaling this."
      },
      "RoleGranted(bytes32,address,address)": {
        "details": "Emitted when `account` is granted `role`. `sender` is the account that originated the contract call. This account bears the admin role (for the granted role). Expected in cases where the role was granted using the internal {AccessControl-_grantRole}."
      },
      "RoleRevoked(bytes32,address,address)": {
        "details": "Emitted when `account` is revoked `role`. `sender` is the account that originated the contract call:   - if using `revokeRole`, it is the admin role bearer   - if using `renounceRole`, it is the role bearer (i.e. `account`)"
      }
    },
    "kind": "dev",
    "methods": {
      "getRoleAdmin(bytes32)": {
        "details": "Returns the admin role that controls `role`. See {grantRole} and {revokeRole}. To change a role's admin, use {_setRoleAdmin}."
      },
      "grantRole(bytes32,address)": {
        "details": "Grants `role` to `account`. If `account` had not been already granted `role`, emits a {RoleGranted} event. Requirements: - the caller must have ``role``'s admin role. May emit a {RoleGranted} event."
      },
      "hasRole(bytes32,address)": {
        "details": "Returns `true` if `account` has been granted `role`."
      },
      "renounceRole(bytes32,address)": {
        "details": "Revokes `role` from the calling account. Roles are often managed via {grantRole} and {revokeRole}: this function's purpose is to provide a mechanism for accounts to lose their privileges if they are compromised (such as when a trusted device is misplaced). If the calling account had been revoked `role`, emits a {RoleRevoked} event. Requirements: - the caller must be `callerConfirmation`. May emit a {RoleRevoked} event."
      },
      "revokeRole(bytes32,address)": {
        "details": "Revokes `role` from `account`. If `account` had been granted `role`, emits a {RoleRevoked} event. Requirements: - the caller must have ``role``'s admin role. May emit a {RoleRevoked} event."
      },
      "supportsInterface(bytes4)": {
        "details": "See {IERC165-supportsInterface}."
      }
    },
    "version": 1
  },
  "userdoc": {
    "kind": "user",
    "methods": {},
    "version": 1
  },
  "storageLayout": {
    "storage": [
      {
        "astId": 4698,
        "contract": "contracts/fees/FeeManager.sol:FeeManager",
        "label": "_roles",
        "offset": 0,
        "slot": "0",
        "type": "t_mapping(t_bytes32,t_struct(RoleData)4693_storage)"
      },
      {
        "astId": 7330,
        "contract": "contracts/fees/FeeManager.sol:FeeManager",
        "label": "feeTokens",
        "offset": 0,
        "slot": "1",
        "type": "t_array(t_struct(TokenConfig)7326_storage)dyn_storage"
      }
    ],
    "types": {
      "t_address": {
        "encoding": "inplace",
        "label": "address",
        "numberOfBytes": "20"
      },
      "t_array(t_struct(TokenConfig)7326_storage)dyn_storage": {
        "base": "t_struct(TokenConfig)7326_storage",
        "encoding": "dynamic_array",
        "label": "struct FeeManager.TokenConfig[]",
        "numberOfBytes": "32"
      },
      "t_bool": {
        "encoding": "inplace",
        "label": "bool",
        "numberOfBytes": "1"
      },
      "t_bytes32": {
        "encoding": "inplace",
        "label": "bytes32",
        "numberOfBytes": "32"
      },
      "t_mapping(t_address,t_bool)": {
        "encoding": "mapping",
        "key": "t_address",
        "label": "mapping(address => bool)",
        "numberOfBytes": "32",
        "value": "t_bool"
      },
      "t_mapping(t_bytes32,t_struct(RoleData)4693_storage)": {
        "encoding": "mapping",
        "key": "t_bytes32",
        "label": "mapping(bytes32 => struct AccessControl.RoleData)",
        "numberOfBytes": "32",
        "value": "t_struct(RoleData)4693_storage"
      },
      "t_struct(RoleData)4693_storage": {
        "encoding": "inplace",
        "label": "struct AccessControl.RoleData",
        "members": [
          {
            "astId": 4690,
            "contract": "contracts/fees/FeeManager.sol:FeeManager",
            "label": "hasRole",
            "offset": 0,
            "slot": "0",
            "type": "t_mapping(t_address,t_bool)"
          },
          {
            "astId": 4692,
            "contract": "contracts/fees/FeeManager.sol:FeeManager",
            "label": "adminRole",
            "offset": 0,
            "slot": "1",
            "type": "t_bytes32"
          }
        ],
        "numberOfBytes": "64"
      },
      "t_struct(TokenConfig)7326_storage": {
        "encoding": "inplace",
        "label": "struct FeeManager.TokenConfig",
        "members": [
          {
            "astId": 7317,
            "contract": "contracts/fees/FeeManager.sol:FeeManager",
            "label": "fee",
            "offset": 0,
            "slot": "0",
            "type": "t_uint256"
          },
          {
            "astId": 7319,
            "contract": "contracts/fees/FeeManager.sol:FeeManager",
            "label": "minThreshold",
            "offset": 0,
            "slot": "1",
            "type": "t_uint256"
          },
          {
            "astId": 7321,
            "contract": "contracts/fees/FeeManager.sol:FeeManager",
            "label": "tokenAddress",
            "offset": 0,
            "slot": "2",
            "type": "t_address"
          },
          {
            "astId": 7323,
            "contract": "contracts/fees/FeeManager.sol:FeeManager",
            "label": "tokenType",
            "offset": 20,
            "slot": "2",
            "type": "t_uint8"
          },
          {
            "astId": 7325,
            "contract": "contracts/fees/FeeManager.sol:FeeManager",
            "label": "tokenId",
            "offset": 0,
            "slot": "3",
            "type": "t_uint256"
          }
        ],
        "numberOfBytes": "128"
      },
      "t_uint256": {
        "encoding": "inplace",
        "label": "uint256",
        "numberOfBytes": "32"
      },
      "t_uint8": {
        "encoding": "inplace",
        "label": "uint8",
        "numberOfBytes": "1"
      }
    }
  }
}