{
  "address": "0x8573A2a2c93eC1E1b2e16227C3448E7861F0EE36",
  "abi": [
    {
      "inputs": [
        {
          "internalType": "uint256",
          "name": "amount",
          "type": "uint256"
        },
        {
          "internalType": "uint8",
          "name": "decimals",
          "type": "uint8"
        }
      ],
      "name": "calculateFees",
      "outputs": [
        {
          "components": [
            {
              "internalType": "uint256",
              "name": "userAmount",
              "type": "uint256"
            },
            {
              "internalType": "uint256",
              "name": "protocolFee",
              "type": "uint256"
            }
          ],
          "internalType": "struct LibFeeCalculatorV1.FeeBreakdown",
          "name": "",
          "type": "tuple"
        }
      ],
      "stateMutability": "pure",
      "type": "function"
    }
  ],
  "transactionHash": "0x3fdb9128c88579a737b17c65a07ae893e2c29e677708635a127e6a1b370deb10",
  "args": [],
  "numDeployments": 1,
  "solcInputHash": "2777c456c7d9963977718441f3316314",
  "bytecode": "0x61036e610035600b8282823980515f1a60731461002957634e487b7160e01b5f525f60045260245ffd5b305f52607381538281f3fe7300000000000000000000000000000000000000003014608060405260043610610034575f3560e01c8063dc03d93214610038575b5f80fd5b61004b61004636600461019a565b61006a565b6040805182518152602092830151928101929092520160405180910390f35b604080518082019091525f80825260208201525f83116100d15760405162461bcd60e51b815260206004820181905260248201527f416d6f756e74206d7573742062652067726561746572207468616e207a65726f60448201526064015b60405180910390fd5b60018260ff16101580156100e9575060128260ff1611155b6101355760405162461bcd60e51b815260206004820152601a60248201527f556e737570706f7274656420746f6b656e20646563696d616c7300000000000060448201526064016100c8565b5f6127106101448560646101e1565b61014e91906101f8565b9050805f0361017057610162836012610217565b61016d90600a610310565b90505b5f61017b8286610325565b6040805180820190915290815260208101929092525090505b92915050565b5f80604083850312156101ab575f80fd5b82359150602083013560ff811681146101c2575f80fd5b809150509250929050565b634e487b7160e01b5f52601160045260245ffd5b8082028115828204841417610194576101946101cd565b5f8261021257634e487b7160e01b5f52601260045260245ffd5b500490565b60ff8281168282160390811115610194576101946101cd565b600181815b8085111561026a57815f1904821115610250576102506101cd565b8085161561025d57918102915b93841c9390800290610235565b509250929050565b5f8261028057506001610194565b8161028c57505f610194565b81600181146102a257600281146102ac576102c8565b6001915050610194565b60ff8411156102bd576102bd6101cd565b50506001821b610194565b5060208310610133831016604e8410600b84101617156102eb575081810a610194565b6102f58383610230565b805f1904821115610308576103086101cd565b029392505050565b5f61031e60ff841683610272565b9392505050565b81810381811115610194576101946101cd56fea26469706673582212202fd790959a3be2b6de1bbb1974045dfd92b5588b0b51eabb7db8ae571ad358fa64736f6c63430008180033",
  "devdoc": {
    "kind": "dev",
    "methods": {},
    "version": 1
  },
  "userdoc": {
    "kind": "user",
    "methods": {},
    "version": 1
  },
  "storageLayout": {
    "storage": [],
    "types": null
  }
}