{
  "address": "0x2a8cF5CA5fB813D1D0e8701C8eea16D41514C65d",
  "abi": [
    {
      "inputs": [
        {
          "internalType": "uint256",
          "name": "amount",
          "type": "uint256"
        },
        {
          "internalType": "uint8",
          "name": "decimals",
          "type": "uint8"
        }
      ],
      "name": "calculateFees",
      "outputs": [
        {
          "components": [
            {
              "internalType": "uint256",
              "name": "userAmount",
              "type": "uint256"
            },
            {
              "internalType": "uint256",
              "name": "platformFee",
              "type": "uint256"
            },
            {
              "internalType": "uint256",
              "name": "liquidityFee",
              "type": "uint256"
            }
          ],
          "internalType": "struct LibFeeCalculatorV1.FeeBreakdown",
          "name": "",
          "type": "tuple"
        }
      ],
      "stateMutability": "view",
      "type": "function"
    }
  ],
  "transactionHash": "0xeedd47ce288f677e5a368a994102d6bd52cf7010919979ca5f583d7c45d8bfa4",
  "args": [],
  "numDeployments": 1,
  "solcInputHash": "b79a7c11dbe0e9f8aa58c99df371e46c",
  "bytecode": "0x610450610035600b8282823980515f1a60731461002957634e487b7160e01b5f525f60045260245ffd5b305f52607381538281f3fe7300000000000000000000000000000000000000003014608060405260043610610034575f3560e01c8063dc03d93214610038575b5f80fd5b61004b610046366004610269565b610071565b604080518251815260208084015190820152918101519082015260600160405180910390f35b61009260405180606001604052805f81526020015f81526020015f81525090565b5f83116100e65760405162461bcd60e51b815260206004820181905260248201527f416d6f756e74206d7573742062652067726561746572207468616e207a65726f60448201526064015b60405180910390fd5b60068260ff16101580156100fe575060128260ff1611155b61014a5760405162461bcd60e51b815260206004820152601a60248201527f556e737570706f7274656420746f6b656e20646563696d616c7300000000000060448201526064016100dd565b5f6127106101596064826102b0565b61016390866102c3565b61016d91906102da565b90505f61271061017e8660506102c3565b61018891906102da565b90505f6127106101998760146102c3565b6101a391906102da565b905060128560ff1610156101ec575f6101bd8660126102f9565b6101c890600a6103f2565b905082156101d657826101d8565b805b925081156101e657816101e8565b805b9150505b85816101f88486610407565b6102029190610407565b146102475760405162461bcd60e51b81526020600482015260156024820152742332b29031b0b631bab630ba34b7b71032b93937b960591b60448201526064016100dd565b6040805160608101825293845260208401929092529082015290505b92915050565b5f806040838503121561027a575f80fd5b82359150602083013560ff81168114610291575f80fd5b809150509250929050565b634e487b7160e01b5f52601160045260245ffd5b818103818111156102635761026361029c565b80820281158282048414176102635761026361029c565b5f826102f457634e487b7160e01b5f52601260045260245ffd5b500490565b60ff82811682821603908111156102635761026361029c565b600181815b8085111561034c57815f19048211156103325761033261029c565b8085161561033f57918102915b93841c9390800290610317565b509250929050565b5f8261036257506001610263565b8161036e57505f610263565b8160018114610384576002811461038e576103aa565b6001915050610263565b60ff84111561039f5761039f61029c565b50506001821b610263565b5060208310610133831016604e8410600b84101617156103cd575081810a610263565b6103d78383610312565b805f19048211156103ea576103ea61029c565b029392505050565b5f61040060ff841683610354565b9392505050565b808201808211156102635761026361029c56fea26469706673582212203719368b7cef04b20a7353eccb97ec13a3d2f9ae03760354a0005b8c368ef78064736f6c63430008180033",
  "devdoc": {
    "kind": "dev",
    "methods": {},
    "version": 1
  },
  "userdoc": {
    "kind": "user",
    "methods": {},
    "version": 1
  },
  "storageLayout": {
    "storage": [],
    "types": null
  }
}