{
  "address": "0x87034ac9C10348784f9dBa44c4A76a7B97654Fd6",
  "abi": [
    {
      "inputs": [
        {
          "internalType": "address",
          "name": "_layerZeroEndpoint",
          "type": "address"
        },
        {
          "internalType": "address",
          "name": "_feeCollector",
          "type": "address"
        }
      ],
      "stateMutability": "nonpayable",
      "type": "constructor"
    },
    {
      "inputs": [],
      "name": "AccessControlBadConfirmation",
      "type": "error"
    },
    {
      "inputs": [
        {
          "internalType": "address",
          "name": "account",
          "type": "address"
        },
        {
          "internalType": "bytes32",
          "name": "neededRole",
          "type": "bytes32"
        }
      ],
      "name": "AccessControlUnauthorizedAccount",
      "type": "error"
    },
    {
      "inputs": [],
      "name": "InvalidDelegate",
      "type": "error"
    },
    {
      "inputs": [],
      "name": "InvalidEndpointCall",
      "type": "error"
    },
    {
      "inputs": [],
      "name": "LzAltTokenUnavailable",
      "type": "error"
    },
    {
      "inputs": [],
      "name": "LzTokenUnavailable",
      "type": "error"
    },
    {
      "inputs": [
        {
          "internalType": "uint32",
          "name": "eid",
          "type": "uint32"
        }
      ],
      "name": "NoPeer",
      "type": "error"
    },
    {
      "inputs": [
        {
          "internalType": "uint256",
          "name": "msgValue",
          "type": "uint256"
        }
      ],
      "name": "NotEnoughNative",
      "type": "error"
    },
    {
      "inputs": [
        {
          "internalType": "address",
          "name": "addr",
          "type": "address"
        }
      ],
      "name": "OnlyEndpoint",
      "type": "error"
    },
    {
      "inputs": [
        {
          "internalType": "uint32",
          "name": "eid",
          "type": "uint32"
        },
        {
          "internalType": "bytes32",
          "name": "sender",
          "type": "bytes32"
        }
      ],
      "name": "OnlyPeer",
      "type": "error"
    },
    {
      "inputs": [
        {
          "internalType": "address",
          "name": "owner",
          "type": "address"
        }
      ],
      "name": "OwnableInvalidOwner",
      "type": "error"
    },
    {
      "inputs": [
        {
          "internalType": "address",
          "name": "account",
          "type": "address"
        }
      ],
      "name": "OwnableUnauthorizedAccount",
      "type": "error"
    },
    {
      "inputs": [],
      "name": "ReentrancyGuardReentrantCall",
      "type": "error"
    },
    {
      "inputs": [
        {
          "internalType": "address",
          "name": "token",
          "type": "address"
        }
      ],
      "name": "SafeERC20FailedOperation",
      "type": "error"
    },
    {
      "anonymous": false,
      "inputs": [
        {
          "indexed": true,
          "internalType": "uint32",
          "name": "layerZeroEndpointId",
          "type": "uint32"
        },
        {
          "indexed": true,
          "internalType": "address",
          "name": "originTokenAddress",
          "type": "address"
        },
        {
          "indexed": true,
          "internalType": "address",
          "name": "localTokenAddress",
          "type": "address"
        }
      ],
      "name": "AddToken",
      "type": "event"
    },
    {
      "anonymous": false,
      "inputs": [
        {
          "indexed": true,
          "internalType": "address",
          "name": "token",
          "type": "address"
        },
        {
          "indexed": true,
          "internalType": "address",
          "name": "to",
          "type": "address"
        },
        {
          "indexed": true,
          "internalType": "uint256",
          "name": "amount",
          "type": "uint256"
        }
      ],
      "name": "BridgeReceived",
      "type": "event"
    },
    {
      "anonymous": false,
      "inputs": [
        {
          "indexed": true,
          "internalType": "address",
          "name": "previousOwner",
          "type": "address"
        },
        {
          "indexed": true,
          "internalType": "address",
          "name": "newOwner",
          "type": "address"
        }
      ],
      "name": "OwnershipTransferred",
      "type": "event"
    },
    {
      "anonymous": false,
      "inputs": [
        {
          "indexed": false,
          "internalType": "uint32",
          "name": "eid",
          "type": "uint32"
        },
        {
          "indexed": false,
          "internalType": "bytes32",
          "name": "peer",
          "type": "bytes32"
        }
      ],
      "name": "PeerSet",
      "type": "event"
    },
    {
      "anonymous": false,
      "inputs": [
        {
          "indexed": true,
          "internalType": "bytes32",
          "name": "role",
          "type": "bytes32"
        },
        {
          "indexed": true,
          "internalType": "bytes32",
          "name": "previousAdminRole",
          "type": "bytes32"
        },
        {
          "indexed": true,
          "internalType": "bytes32",
          "name": "newAdminRole",
          "type": "bytes32"
        }
      ],
      "name": "RoleAdminChanged",
      "type": "event"
    },
    {
      "anonymous": false,
      "inputs": [
        {
          "indexed": true,
          "internalType": "bytes32",
          "name": "role",
          "type": "bytes32"
        },
        {
          "indexed": true,
          "internalType": "address",
          "name": "account",
          "type": "address"
        },
        {
          "indexed": true,
          "internalType": "address",
          "name": "sender",
          "type": "address"
        }
      ],
      "name": "RoleGranted",
      "type": "event"
    },
    {
      "anonymous": false,
      "inputs": [
        {
          "indexed": true,
          "internalType": "bytes32",
          "name": "role",
          "type": "bytes32"
        },
        {
          "indexed": true,
          "internalType": "address",
          "name": "account",
          "type": "address"
        },
        {
          "indexed": true,
          "internalType": "address",
          "name": "sender",
          "type": "address"
        }
      ],
      "name": "RoleRevoked",
      "type": "event"
    },
    {
      "anonymous": false,
      "inputs": [
        {
          "indexed": true,
          "internalType": "address",
          "name": "withdrawer",
          "type": "address"
        },
        {
          "indexed": true,
          "internalType": "uint256",
          "name": "amount",
          "type": "uint256"
        }
      ],
      "name": "Withdrawal",
      "type": "event"
    },
    {
      "inputs": [],
      "name": "DEFAULT_ADMIN_ROLE",
      "outputs": [
        {
          "internalType": "bytes32",
          "name": "",
          "type": "bytes32"
        }
      ],
      "stateMutability": "view",
      "type": "function"
    },
    {
      "inputs": [],
      "name": "MANAGER_ROLE",
      "outputs": [
        {
          "internalType": "bytes32",
          "name": "",
          "type": "bytes32"
        }
      ],
      "stateMutability": "view",
      "type": "function"
    },
    {
      "inputs": [],
      "name": "WITHDRAW_ROLE",
      "outputs": [
        {
          "internalType": "bytes32",
          "name": "",
          "type": "bytes32"
        }
      ],
      "stateMutability": "view",
      "type": "function"
    },
    {
      "inputs": [
        {
          "internalType": "uint32",
          "name": "layerZeroEndpointId",
          "type": "uint32"
        },
        {
          "internalType": "address",
          "name": "originTokenAddress",
          "type": "address"
        },
        {
          "internalType": "address",
          "name": "localTokenAddress",
          "type": "address"
        }
      ],
      "name": "addToken",
      "outputs": [],
      "stateMutability": "nonpayable",
      "type": "function"
    },
    {
      "inputs": [
        {
          "components": [
            {
              "internalType": "uint32",
              "name": "srcEid",
              "type": "uint32"
            },
            {
              "internalType": "bytes32",
              "name": "sender",
              "type": "bytes32"
            },
            {
              "internalType": "uint64",
              "name": "nonce",
              "type": "uint64"
            }
          ],
          "internalType": "struct Origin",
          "name": "origin",
          "type": "tuple"
        }
      ],
      "name": "allowInitializePath",
      "outputs": [
        {
          "internalType": "bool",
          "name": "",
          "type": "bool"
        }
      ],
      "stateMutability": "view",
      "type": "function"
    },
    {
      "inputs": [
        {
          "internalType": "uint32",
          "name": "destinationLayerZeroEndpointId",
          "type": "uint32"
        },
        {
          "internalType": "enum LibTypesV1.TokenType",
          "name": "tokenType",
          "type": "uint8"
        },
        {
          "components": [
            {
              "internalType": "address",
              "name": "token",
              "type": "address"
            },
            {
              "internalType": "address",
              "name": "to",
              "type": "address"
            },
            {
              "internalType": "uint256",
              "name": "amount",
              "type": "uint256"
            }
          ],
          "internalType": "struct LibTypesV1.TripDetails",
          "name": "details",
          "type": "tuple"
        },
        {
          "components": [
            {
              "internalType": "uint256",
              "name": "nativeFee",
              "type": "uint256"
            },
            {
              "internalType": "uint256",
              "name": "lzTokenFee",
              "type": "uint256"
            }
          ],
          "internalType": "struct MessagingFee",
          "name": "fee",
          "type": "tuple"
        },
        {
          "internalType": "bytes",
          "name": "options",
          "type": "bytes"
        }
      ],
      "name": "bridge",
      "outputs": [
        {
          "components": [
            {
              "internalType": "bytes32",
              "name": "guid",
              "type": "bytes32"
            },
            {
              "internalType": "uint64",
              "name": "nonce",
              "type": "uint64"
            },
            {
              "components": [
                {
                  "internalType": "uint256",
                  "name": "nativeFee",
                  "type": "uint256"
                },
                {
                  "internalType": "uint256",
                  "name": "lzTokenFee",
                  "type": "uint256"
                }
              ],
              "internalType": "struct MessagingFee",
              "name": "fee",
              "type": "tuple"
            }
          ],
          "internalType": "struct MessagingReceipt",
          "name": "receipt",
          "type": "tuple"
        }
      ],
      "stateMutability": "nonpayable",
      "type": "function"
    },
    {
      "inputs": [],
      "name": "endpoint",
      "outputs": [
        {
          "internalType": "contract ILayerZeroEndpointV2",
          "name": "",
          "type": "address"
        }
      ],
      "stateMutability": "view",
      "type": "function"
    },
    {
      "inputs": [
        {
          "internalType": "bytes32",
          "name": "role",
          "type": "bytes32"
        }
      ],
      "name": "getRoleAdmin",
      "outputs": [
        {
          "internalType": "bytes32",
          "name": "",
          "type": "bytes32"
        }
      ],
      "stateMutability": "view",
      "type": "function"
    },
    {
      "inputs": [
        {
          "internalType": "bytes32",
          "name": "role",
          "type": "bytes32"
        },
        {
          "internalType": "address",
          "name": "account",
          "type": "address"
        }
      ],
      "name": "grantRole",
      "outputs": [],
      "stateMutability": "nonpayable",
      "type": "function"
    },
    {
      "inputs": [
        {
          "internalType": "bytes32",
          "name": "role",
          "type": "bytes32"
        },
        {
          "internalType": "address",
          "name": "account",
          "type": "address"
        }
      ],
      "name": "hasRole",
      "outputs": [
        {
          "internalType": "bool",
          "name": "",
          "type": "bool"
        }
      ],
      "stateMutability": "view",
      "type": "function"
    },
    {
      "inputs": [
        {
          "components": [
            {
              "internalType": "uint32",
              "name": "srcEid",
              "type": "uint32"
            },
            {
              "internalType": "bytes32",
              "name": "sender",
              "type": "bytes32"
            },
            {
              "internalType": "uint64",
              "name": "nonce",
              "type": "uint64"
            }
          ],
          "internalType": "struct Origin",
          "name": "",
          "type": "tuple"
        },
        {
          "internalType": "bytes",
          "name": "",
          "type": "bytes"
        },
        {
          "internalType": "address",
          "name": "_sender",
          "type": "address"
        }
      ],
      "name": "isComposeMsgSender",
      "outputs": [
        {
          "internalType": "bool",
          "name": "",
          "type": "bool"
        }
      ],
      "stateMutability": "view",
      "type": "function"
    },
    {
      "inputs": [
        {
          "components": [
            {
              "internalType": "uint32",
              "name": "srcEid",
              "type": "uint32"
            },
            {
              "internalType": "bytes32",
              "name": "sender",
              "type": "bytes32"
            },
            {
              "internalType": "uint64",
              "name": "nonce",
              "type": "uint64"
            }
          ],
          "internalType": "struct Origin",
          "name": "_origin",
          "type": "tuple"
        },
        {
          "internalType": "bytes32",
          "name": "_guid",
          "type": "bytes32"
        },
        {
          "internalType": "bytes",
          "name": "_message",
          "type": "bytes"
        },
        {
          "internalType": "address",
          "name": "_executor",
          "type": "address"
        },
        {
          "internalType": "bytes",
          "name": "_extraData",
          "type": "bytes"
        }
      ],
      "name": "lzReceive",
      "outputs": [],
      "stateMutability": "payable",
      "type": "function"
    },
    {
      "inputs": [
        {
          "internalType": "uint32",
          "name": "",
          "type": "uint32"
        },
        {
          "internalType": "bytes32",
          "name": "",
          "type": "bytes32"
        }
      ],
      "name": "nextNonce",
      "outputs": [
        {
          "internalType": "uint64",
          "name": "nonce",
          "type": "uint64"
        }
      ],
      "stateMutability": "view",
      "type": "function"
    },
    {
      "inputs": [],
      "name": "oAppVersion",
      "outputs": [
        {
          "internalType": "uint64",
          "name": "senderVersion",
          "type": "uint64"
        },
        {
          "internalType": "uint64",
          "name": "receiverVersion",
          "type": "uint64"
        }
      ],
      "stateMutability": "pure",
      "type": "function"
    },
    {
      "inputs": [],
      "name": "owner",
      "outputs": [
        {
          "internalType": "address",
          "name": "",
          "type": "address"
        }
      ],
      "stateMutability": "view",
      "type": "function"
    },
    {
      "inputs": [
        {
          "internalType": "uint32",
          "name": "eid",
          "type": "uint32"
        }
      ],
      "name": "peers",
      "outputs": [
        {
          "internalType": "bytes32",
          "name": "peer",
          "type": "bytes32"
        }
      ],
      "stateMutability": "view",
      "type": "function"
    },
    {
      "inputs": [
        {
          "internalType": "uint32",
          "name": "dstEid",
          "type": "uint32"
        },
        {
          "components": [
            {
              "internalType": "address",
              "name": "token",
              "type": "address"
            },
            {
              "internalType": "address",
              "name": "to",
              "type": "address"
            },
            {
              "internalType": "uint256",
              "name": "amount",
              "type": "uint256"
            }
          ],
          "internalType": "struct LibTypesV1.TripDetails",
          "name": "tripDetails",
          "type": "tuple"
        },
        {
          "internalType": "bytes",
          "name": "options",
          "type": "bytes"
        },
        {
          "internalType": "bool",
          "name": "payInLzToken",
          "type": "bool"
        }
      ],
      "name": "quote",
      "outputs": [
        {
          "components": [
            {
              "internalType": "uint256",
              "name": "nativeFee",
              "type": "uint256"
            },
            {
              "internalType": "uint256",
              "name": "lzTokenFee",
              "type": "uint256"
            }
          ],
          "internalType": "struct MessagingFee",
          "name": "fee",
          "type": "tuple"
        }
      ],
      "stateMutability": "view",
      "type": "function"
    },
    {
      "inputs": [],
      "name": "renounceOwnership",
      "outputs": [],
      "stateMutability": "nonpayable",
      "type": "function"
    },
    {
      "inputs": [
        {
          "internalType": "bytes32",
          "name": "role",
          "type": "bytes32"
        },
        {
          "internalType": "address",
          "name": "callerConfirmation",
          "type": "address"
        }
      ],
      "name": "renounceRole",
      "outputs": [],
      "stateMutability": "nonpayable",
      "type": "function"
    },
    {
      "inputs": [
        {
          "internalType": "bytes32",
          "name": "role",
          "type": "bytes32"
        },
        {
          "internalType": "address",
          "name": "account",
          "type": "address"
        }
      ],
      "name": "revokeRole",
      "outputs": [],
      "stateMutability": "nonpayable",
      "type": "function"
    },
    {
      "inputs": [
        {
          "internalType": "address",
          "name": "_delegate",
          "type": "address"
        }
      ],
      "name": "setDelegate",
      "outputs": [],
      "stateMutability": "nonpayable",
      "type": "function"
    },
    {
      "inputs": [
        {
          "internalType": "uint32",
          "name": "_eid",
          "type": "uint32"
        },
        {
          "internalType": "bytes32",
          "name": "_peer",
          "type": "bytes32"
        }
      ],
      "name": "setPeer",
      "outputs": [],
      "stateMutability": "nonpayable",
      "type": "function"
    },
    {
      "inputs": [
        {
          "internalType": "contract IMonorailNativeToken",
          "name": "",
          "type": "address"
        }
      ],
      "name": "supplyAvailable",
      "outputs": [
        {
          "internalType": "uint256",
          "name": "",
          "type": "uint256"
        }
      ],
      "stateMutability": "view",
      "type": "function"
    },
    {
      "inputs": [
        {
          "internalType": "contract IMonorailNativeToken",
          "name": "",
          "type": "address"
        },
        {
          "internalType": "uint32",
          "name": "",
          "type": "uint32"
        }
      ],
      "name": "supported",
      "outputs": [
        {
          "internalType": "bool",
          "name": "",
          "type": "bool"
        }
      ],
      "stateMutability": "view",
      "type": "function"
    },
    {
      "inputs": [
        {
          "internalType": "bytes4",
          "name": "interfaceId",
          "type": "bytes4"
        }
      ],
      "name": "supportsInterface",
      "outputs": [
        {
          "internalType": "bool",
          "name": "",
          "type": "bool"
        }
      ],
      "stateMutability": "view",
      "type": "function"
    },
    {
      "inputs": [
        {
          "internalType": "uint32",
          "name": "",
          "type": "uint32"
        },
        {
          "internalType": "address",
          "name": "",
          "type": "address"
        }
      ],
      "name": "tokens",
      "outputs": [
        {
          "internalType": "contract IMonorailNativeToken",
          "name": "",
          "type": "address"
        }
      ],
      "stateMutability": "view",
      "type": "function"
    },
    {
      "inputs": [
        {
          "internalType": "address",
          "name": "newOwner",
          "type": "address"
        }
      ],
      "name": "transferOwnership",
      "outputs": [],
      "stateMutability": "nonpayable",
      "type": "function"
    },
    {
      "inputs": [
        {
          "internalType": "uint256",
          "name": "amount",
          "type": "uint256"
        }
      ],
      "name": "withdraw",
      "outputs": [],
      "stateMutability": "nonpayable",
      "type": "function"
    },
    {
      "stateMutability": "payable",
      "type": "receive"
    }
  ],
  "transactionHash": "0x0a04ba41a770773acef2051c51241dcd566fddfc7389906a50fb0e4526e1e99b",
  "args": [
    "0x82b7dc04A4ABCF2b4aE570F317dcab49f5a10f24",
    "0x8965fc7537747Ff60FE141298Bc76563DF976030"
  ],
  "numDeployments": 1,
  "solcInputHash": "d7aa400711a176a4a7277d21ed0ecd0b",
  "bytecode": "0x60a060405234801562000010575f80fd5b50604051620024613803806200246183398101604081905262000033916200031b565b8133818180806200005e57604051631e4fbdf760e01b81525f60048201526024015b60405180910390fd5b620000698162000200565b506001600160a01b0380831660805281166200009857604051632d618d8160e21b815260040160405180910390fd5b60805160405163ca5eb5e160e01b81526001600160a01b0383811660048301529091169063ca5eb5e1906024015f604051808303815f87803b158015620000dd575f80fd5b505af1158015620000f0573d5f803e3d5ffd5b50506001600355506200011694505f935062000110925050620001fc9050565b6200024f565b50620001437f241ecf16d79d0f8dbfb92cbc07fe17840425976cf0667f022fe9877caa831b08336200024f565b50620001707f5d8e12c39142ff96d79d04d15d1ba1269e4fe57bb9d26f43523628b34ba108ec336200024f565b506001600160a01b038116620001d55760405162461bcd60e51b815260206004820152602360248201527f46656520436f6c6c6563746f722041646472657373204d757374204e6f74204260448201526206520360ec1b606482015260840162000055565b600480546001600160a01b0319166001600160a01b03929092169190911790555062000351565b3390565b5f80546001600160a01b038381166001600160a01b0319831681178455604051919092169283917f8be0079c531659141344cd1fd0a4f28419497f9722a3daafe3b4186f6b6457e09190a35050565b5f8281526002602090815260408083206001600160a01b038516845290915281205460ff16620002f6575f8381526002602090815260408083206001600160a01b03861684529091529020805460ff19166001179055620002ad3390565b6001600160a01b0316826001600160a01b0316847f2f8788117e7eff1d82e926ec794901d17c78024a50270940304540a733656f0d60405160405180910390a4506001620002f9565b505f5b92915050565b80516001600160a01b038116811462000316575f80fd5b919050565b5f80604083850312156200032d575f80fd5b6200033883620002ff565b91506200034860208401620002ff565b90509250929050565b6080516120bf620003a25f395f81816103be0152818161065301528181610ded01528181611283015281816114e60152818161166e0152818161172501528181611755015261180c01526120bf5ff3fe6080604052600436106101b2575f3560e01c8063715018a6116100e7578063c949803511610087578063e02023a111610062578063e02023a114610577578063ec87621c146105aa578063f2fde38b146105dd578063ff7bd03d146105fc575f80fd5b8063c949803514610500578063ca5eb5e114610539578063d547741f14610558575f80fd5b80638da5cb5b116100c25780638da5cb5b1461048757806391d14854146104a3578063a217fddf146104c2578063bb0b6a53146104d5575f80fd5b8063715018a61461040b5780637d25a05e1461041f57806382413eac14610459575f80fd5b80633400288b11610152578063485c5bd21161012d578063485c5bd21461032a5780634f4266b8146103815780635e280f11146103ad57806360647d6b146103e0575f80fd5b80633400288b146102cd57806336568abe146102ec578063376cca5f1461030b575f80fd5b8063248a9ca31161018d578063248a9ca3146102275780632950aa82146102635780632e1a7d4d1461028f5780632f2ff15d146102ae575f80fd5b806301ffc9a7146101bd57806313137d65146101f157806317442b7014610206575f80fd5b366101b957005b5f80fd5b3480156101c8575f80fd5b506101dc6101d73660046118ae565b61061b565b60405190151581526020015b60405180910390f35b6102046101ff36600461194b565b610651565b005b348015610211575f80fd5b50604080516001815260026020820152016101e8565b348015610232575f80fd5b506102556102413660046119e4565b5f9081526002602052604090206001015490565b6040519081526020016101e8565b34801561026e575f80fd5b5061028261027d366004611af0565b610711565b6040516101e89190611b98565b34801561029a575f80fd5b506102046102a93660046119e4565b610a91565b3480156102b9575f80fd5b506102046102c8366004611bda565b610b84565b3480156102d8575f80fd5b506102046102e7366004611c08565b610bae565b3480156102f7575f80fd5b50610204610306366004611bda565b610bc4565b348015610316575f80fd5b50610204610325366004611c30565b610bf7565b348015610335575f80fd5b50610369610344366004611c76565b600860209081525f92835260408084209091529082529020546001600160a01b031681565b6040516001600160a01b0390911681526020016101e8565b34801561038c575f80fd5b506103a061039b366004611caf565b610d29565b6040516101e89190611d70565b3480156103b8575f80fd5b506103697f000000000000000000000000000000000000000000000000000000000000000081565b3480156103eb575f80fd5b506102556103fa366004611d87565b60076020525f908152604090205481565b348015610416575f80fd5b50610204610d89565b34801561042a575f80fd5b50610440610439366004611c08565b5f92915050565b60405167ffffffffffffffff90911681526020016101e8565b348015610464575f80fd5b506101dc610473366004611da2565b6001600160a01b0381163014949350505050565b348015610492575f80fd5b505f546001600160a01b0316610369565b3480156104ae575f80fd5b506101dc6104bd366004611bda565b610d9c565b3480156104cd575f80fd5b506102555f81565b3480156104e0575f80fd5b506102556104ef366004611e05565b60016020525f908152604090205481565b34801561050b575f80fd5b506101dc61051a366004611e1e565b600960209081525f928352604080842090915290825290205460ff1681565b348015610544575f80fd5b50610204610553366004611d87565b610dc6565b348015610563575f80fd5b50610204610572366004611bda565b610e47565b348015610582575f80fd5b506102557f5d8e12c39142ff96d79d04d15d1ba1269e4fe57bb9d26f43523628b34ba108ec81565b3480156105b5575f80fd5b506102557f241ecf16d79d0f8dbfb92cbc07fe17840425976cf0667f022fe9877caa831b0881565b3480156105e8575f80fd5b506102046105f7366004611d87565b610e6b565b348015610607575f80fd5b506101dc610616366004611e51565b610ea8565b5f6001600160e01b03198216637965db0b60e01b148061064b57506301ffc9a760e01b6001600160e01b03198316145b92915050565b7f00000000000000000000000000000000000000000000000000000000000000006001600160a01b031633146106a1576040516391ac5e4f60e01b81523360048201526024015b60405180910390fd5b602087018035906106bb906106b6908a611e05565b610edc565b146106f9576106cd6020880188611e05565b60405163309afaf360e21b815263ffffffff909116600482015260208801356024820152604401610698565b61070887878787878787610f17565b50505050505050565b61071961186a565b610721611194565b5f86600181111561073457610734611e6b565b036109e35784516001600160a01b0381165f90815260096020908152604080832063ffffffff8c16845290915290205460ff166107a95760405162461bcd60e51b8152602060048201526013602482015272151bdad95b88139bdd0814dd5c1c1bdc9d1959606a1b6044820152606401610698565b5f734301612d9B86FA97d447F1D5b2FFd4cb72C8C3DA63dc03d9328860400151846001600160a01b031663313ce5676040518163ffffffff1660e01b8152600401602060405180830381865afa158015610805573d5f803e3d5ffd5b505050506040513d601f19601f820116820180604052508101906108299190611e7f565b6040516001600160e01b031960e085901b168152600481019290925260ff1660248201526044016040805180830381865af415801561086a573d5f803e3d5ffd5b505050506040513d601f19601f8201168201806040525081019061088e9190611ecd565b90506108ac3360408901516001600160a01b038516919030906111be565b80516001600160a01b0383165f90815260076020526040812080549091906108d5908490611efb565b909155505060045460208201516108fa916001600160a01b0385811692911690611225565b86516020808901516040808b015181516001600160a01b039586168186015294909216848201526060808501929092528051808503909201825260a0601f890184900490930284018301905260808301878152909261097b928d92859290918b918b918291018382808284375f920191909152508d92503391506112569050565b8251604051630852cd8d60e31b81529195506001600160a01b038516916342966c68916109ae9160040190815260200190565b5f604051808303815f87803b1580156109c5575f80fd5b505af11580156109d7573d5f803e3d5ffd5b50505050505050610a7d565b60018660018111156109f7576109f7611e6b565b03610a3d5760405162461bcd60e51b815260206004820152601660248201527513d19508151e5c1948139bdd0814dd5c1c1bdc9d195960521b6044820152606401610698565b60405162461bcd60e51b8152602060048201526015602482015274496e76616c6964205472616e73666572205479706560581b6044820152606401610698565b610a876001600355565b9695505050505050565b7f5d8e12c39142ff96d79d04d15d1ba1269e4fe57bb9d26f43523628b34ba108ec610abb8161134b565b47821115610b025760405162461bcd60e51b8152602060048201526014602482015273496e73756666696369656e742062616c616e636560601b6044820152606401610698565b81610b145f546001600160a01b031690565b6001600160a01b03167f7fcf532c15f0a6db0bd6d0e038bea71d30d808c7d98cb3bf7268a95bf5081b6560405160405180910390a35f80546040516001600160a01b039091169184156108fc02918591818181858888f19350505050158015610b7f573d5f803e3d5ffd5b505050565b5f82815260026020526040902060010154610b9e8161134b565b610ba88383611355565b50505050565b610bb66113e6565b610bc08282611412565b5050565b6001600160a01b0381163314610bed5760405163334bd91960e11b815260040160405180910390fd5b610b7f8282611466565b7f241ecf16d79d0f8dbfb92cbc07fe17840425976cf0667f022fe9877caa831b08610c218161134b565b63ffffffff84165f9081526008602090815260408083206001600160a01b0387811685529252909120541615610c995760405162461bcd60e51b815260206004820152601c60248201527f546f6b656e20416c7265616479204164646564202b20416374697665000000006044820152606401610698565b63ffffffff84165f8181526008602090815260408083206001600160a01b0388811680865291845282852080546001600160a01b031916918916918217905580855260098452828520868652909352818420805460ff191660011790559051869492939192917f7b25eb7450c68f3276a7dd977100efb7675200aabea4acdf35bb05fd8905940891a45050505050565b604080518082019091525f80825260208201526040805185516001600160a01b0390811660208084019190915287015116818301529085015160608201525f906080016040516020818303038152906040529050610a87868286866114d1565b610d916113e6565b610d9a5f6115af565b565b5f9182526002602090815260408084206001600160a01b0393909316845291905290205460ff1690565b610dce6113e6565b60405163ca5eb5e160e01b81526001600160a01b0382811660048301527f0000000000000000000000000000000000000000000000000000000000000000169063ca5eb5e1906024015f604051808303815f87803b158015610e2e575f80fd5b505af1158015610e40573d5f803e3d5ffd5b5050505050565b5f82815260026020526040902060010154610e618161134b565b610ba88383611466565b610e736113e6565b6001600160a01b038116610e9c57604051631e4fbdf760e01b81525f6004820152602401610698565b610ea5816115af565b50565b5f602082018035906001908390610ebf9086611e05565b63ffffffff16815260208101919091526040015f20541492915050565b63ffffffff81165f908152600160205260408120548061064b5760405163f6ff4fb760e01b815263ffffffff84166004820152602401610698565b5f8080610f2687890189611f0e565b919450925090505f600881610f3e60208e018e611e05565b63ffffffff16815260208082019290925260409081015f9081206001600160a01b03808916835290845282822054835163313ce56760e01b81529351911694509092734301612d9B86FA97d447F1D5b2FFd4cb72C8C3DA9263dc03d932928792879263313ce56792600480830193928290030181865afa158015610fc4573d5f803e3d5ffd5b505050506040513d601f19601f82011682018060405250810190610fe89190611e7f565b6040516001600160e01b031960e085901b168152600481019290925260ff1660248201526044016040805180830381865af4158015611029573d5f803e3d5ffd5b505050506040513d601f19601f8201168201806040525081019061104d9190611ecd565b9050805f0151846001600160a01b0316836001600160a01b03167f2b4dfcf6979a5be540753cff4a1659978fe221d7917e1eb53fa02435eda739ce60405160405180910390a46001600160a01b0382165f90815260076020526040812080548592906110ba908490611f4c565b909155505080516040516340c10f1960e01b81526001600160a01b0386811660048301526024820192909252908316906340c10f19906044015f604051808303815f87803b15801561110a575f80fd5b505af115801561111c573d5f803e3d5ffd5b50506004805460208501516040516340c10f1960e01b81526001600160a01b03928316938101939093526024830152851692506340c10f1991506044015f604051808303815f87803b158015611170575f80fd5b505af1158015611182573d5f803e3d5ffd5b50505050505050505050505050505050565b6002600354036111b757604051633ee5aeb560e01b815260040160405180910390fd5b6002600355565b6040516001600160a01b038481166024830152838116604483015260648201839052610ba89186918216906323b872dd906084015b604051602081830303815290604052915060e01b6020820180516001600160e01b0383818316178352505050506115fe565b6040516001600160a01b03838116602483015260448201839052610b7f91859182169063a9059cbb906064016111f3565b61125e61186a565b82516112699061166a565b50602083015115611281576112818360200151611752565b7f00000000000000000000000000000000000000000000000000000000000000006001600160a01b0316632637a4506040518060a001604052808963ffffffff1681526020016112d08a610edc565b81526020018881526020018781526020015f8760200151111515815250846040518363ffffffff1660e01b815260040161130b929190611fa2565b6080604051808303815f875af1158015611327573d5f803e3d5ffd5b505050506040513d601f19601f82011682018060405250810190610a87919061201a565b610ea58133611831565b5f6113608383610d9c565b6113df575f8381526002602090815260408083206001600160a01b03861684529091529020805460ff191660011790556113973390565b6001600160a01b0316826001600160a01b0316847f2f8788117e7eff1d82e926ec794901d17c78024a50270940304540a733656f0d60405160405180910390a450600161064b565b505f61064b565b5f546001600160a01b03163314610d9a5760405163118cdaa760e01b8152336004820152602401610698565b63ffffffff82165f81815260016020908152604091829020849055815192835282018390527f238399d427b947898edb290f5ff0f9109849b1c3ba196a42e35f00c50a54b98b910160405180910390a15050565b5f6114718383610d9c565b156113df575f8381526002602090815260408083206001600160a01b0386168085529252808320805460ff1916905551339286917ff6391f5c32d9c69d2a47ea670b442974b53935d1edc7fd64eb21e047a839171b9190a450600161064b565b604080518082019091525f80825260208201527f00000000000000000000000000000000000000000000000000000000000000006001600160a01b031663ddc28c586040518060a001604052808863ffffffff16815260200161153389610edc565b8152602001878152602001868152602001851515815250306040518363ffffffff1660e01b8152600401611568929190611fa2565b6040805180830381865afa158015611582573d5f803e3d5ffd5b505050506040513d601f19601f820116820180604052508101906115a69190611ecd565b95945050505050565b5f80546001600160a01b038381166001600160a01b0319831681178455604051919092169283917f8be0079c531659141344cd1fd0a4f28419497f9722a3daafe3b4186f6b6457e09190a35050565b5f8060205f8451602086015f885af18061161d576040513d5f823e3d81fd5b50505f513d91508115611634578060011415611641565b6001600160a01b0384163b155b15610ba857604051635274afe760e01b81526001600160a01b0385166004820152602401610698565b5f807f00000000000000000000000000000000000000000000000000000000000000006001600160a01b031663e1758bd86040518163ffffffff1660e01b8152600401602060405180830381865afa1580156116c8573d5f803e3d5ffd5b505050506040513d601f19601f820116820180604052508101906116ec919061206e565b90506001600160a01b03811661171557604051631f41d79160e01b815260040160405180910390fd5b61174a6001600160a01b038216337f0000000000000000000000000000000000000000000000000000000000000000866111be565b505f92915050565b5f7f00000000000000000000000000000000000000000000000000000000000000006001600160a01b031663e4fe1d946040518163ffffffff1660e01b8152600401602060405180830381865afa1580156117af573d5f803e3d5ffd5b505050506040513d601f19601f820116820180604052508101906117d3919061206e565b90506001600160a01b0381166117fc576040516329b99a9560e11b815260040160405180910390fd5b610bc06001600160a01b038216337f0000000000000000000000000000000000000000000000000000000000000000856111be565b61183b8282610d9c565b610bc05760405163e2517d3f60e01b81526001600160a01b038216600482015260248101839052604401610698565b60405180606001604052805f80191681526020015f67ffffffffffffffff1681526020016118a960405180604001604052805f81526020015f81525090565b905290565b5f602082840312156118be575f80fd5b81356001600160e01b0319811681146118d5575f80fd5b9392505050565b5f606082840312156118ec575f80fd5b50919050565b5f8083601f840112611902575f80fd5b50813567ffffffffffffffff811115611919575f80fd5b602083019150836020828501011115611930575f80fd5b9250929050565b6001600160a01b0381168114610ea5575f80fd5b5f805f805f805f60e0888a031215611961575f80fd5b61196b89896118dc565b965060608801359550608088013567ffffffffffffffff8082111561198e575f80fd5b61199a8b838c016118f2565b909750955060a08a013591506119af82611937565b90935060c089013590808211156119c4575f80fd5b506119d18a828b016118f2565b989b979a50959850939692959293505050565b5f602082840312156119f4575f80fd5b5035919050565b803563ffffffff81168114611a0e575f80fd5b919050565b634e487b7160e01b5f52604160045260245ffd5b6040516060810167ffffffffffffffff81118282101715611a4a57611a4a611a13565b60405290565b6040805190810167ffffffffffffffff81118282101715611a4a57611a4a611a13565b604051601f8201601f1916810167ffffffffffffffff81118282101715611a9c57611a9c611a13565b604052919050565b5f60608284031215611ab4575f80fd5b611abc611a27565b90508135611ac981611937565b81526020820135611ad981611937565b806020830152506040820135604082015292915050565b5f805f805f80868803610100811215611b07575f80fd5b611b10886119fb565b9650602088013560028110611b23575f80fd5b9550611b328960408a01611aa4565b94506040609f1982011215611b45575f80fd5b50611b4e611a50565b60a0880135815260c08801356020820152925060e087013567ffffffffffffffff811115611b7a575f80fd5b611b8689828a016118f2565b979a9699509497509295939492505050565b5f6080820190508251825267ffffffffffffffff60208401511660208301526040830151611bd3604084018280518252602090810151910152565b5092915050565b5f8060408385031215611beb575f80fd5b823591506020830135611bfd81611937565b809150509250929050565b5f8060408385031215611c19575f80fd5b611c22836119fb565b946020939093013593505050565b5f805f60608486031215611c42575f80fd5b611c4b846119fb565b92506020840135611c5b81611937565b91506040840135611c6b81611937565b809150509250925092565b5f8060408385031215611c87575f80fd5b611c90836119fb565b91506020830135611bfd81611937565b80358015158114611a0e575f80fd5b5f805f8060c08587031215611cc2575f80fd5b611ccb856119fb565b93506020611cdb87828801611aa4565b9350608086013567ffffffffffffffff80821115611cf7575f80fd5b818801915088601f830112611d0a575f80fd5b813581811115611d1c57611d1c611a13565b611d2e601f8201601f19168501611a73565b91508082528984828501011115611d43575f80fd5b80848401858401375f84828401015250809450505050611d6560a08601611ca0565b905092959194509250565b81518152602080830151908201526040810161064b565b5f60208284031215611d97575f80fd5b81356118d581611937565b5f805f8060a08587031215611db5575f80fd5b611dbf86866118dc565b9350606085013567ffffffffffffffff811115611dda575f80fd5b611de6878288016118f2565b9094509250506080850135611dfa81611937565b939692955090935050565b5f60208284031215611e15575f80fd5b6118d5826119fb565b5f8060408385031215611e2f575f80fd5b8235611e3a81611937565b9150611e48602084016119fb565b90509250929050565b5f60608284031215611e61575f80fd5b6118d583836118dc565b634e487b7160e01b5f52602160045260245ffd5b5f60208284031215611e8f575f80fd5b815160ff811681146118d5575f80fd5b5f60408284031215611eaf575f80fd5b611eb7611a50565b9050815181526020820151602082015292915050565b5f60408284031215611edd575f80fd5b6118d58383611e9f565b634e487b7160e01b5f52601160045260245ffd5b8181038181111561064b5761064b611ee7565b5f805f60608486031215611f20575f80fd5b8335611f2b81611937565b92506020840135611f3b81611937565b929592945050506040919091013590565b8082018082111561064b5761064b611ee7565b5f81518084525f5b81811015611f8357602081850181015186830182015201611f67565b505f602082860101526020601f19601f83011685010191505092915050565b6040815263ffffffff8351166040820152602083015160608201525f604084015160a06080840152611fd760e0840182611f5f565b90506060850151603f198483030160a0850152611ff48282611f5f565b60809690960151151560c08501525050506001600160a01b039190911660209091015290565b5f6080828403121561202a575f80fd5b612032611a27565b82518152602083015167ffffffffffffffff81168114612050575f80fd5b60208201526120628460408501611e9f565b60408201529392505050565b5f6020828403121561207e575f80fd5b81516118d58161193756fea2646970667358221220d005e4c8fb8e37107d571ca2dc39aeb9640921a8c4d28636e2c54d08268eea0d64736f6c63430008180033",
  "deployedBytecode": "0x6080604052600436106101b2575f3560e01c8063715018a6116100e7578063c949803511610087578063e02023a111610062578063e02023a114610577578063ec87621c146105aa578063f2fde38b146105dd578063ff7bd03d146105fc575f80fd5b8063c949803514610500578063ca5eb5e114610539578063d547741f14610558575f80fd5b80638da5cb5b116100c25780638da5cb5b1461048757806391d14854146104a3578063a217fddf146104c2578063bb0b6a53146104d5575f80fd5b8063715018a61461040b5780637d25a05e1461041f57806382413eac14610459575f80fd5b80633400288b11610152578063485c5bd21161012d578063485c5bd21461032a5780634f4266b8146103815780635e280f11146103ad57806360647d6b146103e0575f80fd5b80633400288b146102cd57806336568abe146102ec578063376cca5f1461030b575f80fd5b8063248a9ca31161018d578063248a9ca3146102275780632950aa82146102635780632e1a7d4d1461028f5780632f2ff15d146102ae575f80fd5b806301ffc9a7146101bd57806313137d65146101f157806317442b7014610206575f80fd5b366101b957005b5f80fd5b3480156101c8575f80fd5b506101dc6101d73660046118ae565b61061b565b60405190151581526020015b60405180910390f35b6102046101ff36600461194b565b610651565b005b348015610211575f80fd5b50604080516001815260026020820152016101e8565b348015610232575f80fd5b506102556102413660046119e4565b5f9081526002602052604090206001015490565b6040519081526020016101e8565b34801561026e575f80fd5b5061028261027d366004611af0565b610711565b6040516101e89190611b98565b34801561029a575f80fd5b506102046102a93660046119e4565b610a91565b3480156102b9575f80fd5b506102046102c8366004611bda565b610b84565b3480156102d8575f80fd5b506102046102e7366004611c08565b610bae565b3480156102f7575f80fd5b50610204610306366004611bda565b610bc4565b348015610316575f80fd5b50610204610325366004611c30565b610bf7565b348015610335575f80fd5b50610369610344366004611c76565b600860209081525f92835260408084209091529082529020546001600160a01b031681565b6040516001600160a01b0390911681526020016101e8565b34801561038c575f80fd5b506103a061039b366004611caf565b610d29565b6040516101e89190611d70565b3480156103b8575f80fd5b506103697f000000000000000000000000000000000000000000000000000000000000000081565b3480156103eb575f80fd5b506102556103fa366004611d87565b60076020525f908152604090205481565b348015610416575f80fd5b50610204610d89565b34801561042a575f80fd5b50610440610439366004611c08565b5f92915050565b60405167ffffffffffffffff90911681526020016101e8565b348015610464575f80fd5b506101dc610473366004611da2565b6001600160a01b0381163014949350505050565b348015610492575f80fd5b505f546001600160a01b0316610369565b3480156104ae575f80fd5b506101dc6104bd366004611bda565b610d9c565b3480156104cd575f80fd5b506102555f81565b3480156104e0575f80fd5b506102556104ef366004611e05565b60016020525f908152604090205481565b34801561050b575f80fd5b506101dc61051a366004611e1e565b600960209081525f928352604080842090915290825290205460ff1681565b348015610544575f80fd5b50610204610553366004611d87565b610dc6565b348015610563575f80fd5b50610204610572366004611bda565b610e47565b348015610582575f80fd5b506102557f5d8e12c39142ff96d79d04d15d1ba1269e4fe57bb9d26f43523628b34ba108ec81565b3480156105b5575f80fd5b506102557f241ecf16d79d0f8dbfb92cbc07fe17840425976cf0667f022fe9877caa831b0881565b3480156105e8575f80fd5b506102046105f7366004611d87565b610e6b565b348015610607575f80fd5b506101dc610616366004611e51565b610ea8565b5f6001600160e01b03198216637965db0b60e01b148061064b57506301ffc9a760e01b6001600160e01b03198316145b92915050565b7f00000000000000000000000000000000000000000000000000000000000000006001600160a01b031633146106a1576040516391ac5e4f60e01b81523360048201526024015b60405180910390fd5b602087018035906106bb906106b6908a611e05565b610edc565b146106f9576106cd6020880188611e05565b60405163309afaf360e21b815263ffffffff909116600482015260208801356024820152604401610698565b61070887878787878787610f17565b50505050505050565b61071961186a565b610721611194565b5f86600181111561073457610734611e6b565b036109e35784516001600160a01b0381165f90815260096020908152604080832063ffffffff8c16845290915290205460ff166107a95760405162461bcd60e51b8152602060048201526013602482015272151bdad95b88139bdd0814dd5c1c1bdc9d1959606a1b6044820152606401610698565b5f73__$f8efa28339233e4b52f9b42ef8127a5105$__63dc03d9328860400151846001600160a01b031663313ce5676040518163ffffffff1660e01b8152600401602060405180830381865afa158015610805573d5f803e3d5ffd5b505050506040513d601f19601f820116820180604052508101906108299190611e7f565b6040516001600160e01b031960e085901b168152600481019290925260ff1660248201526044016040805180830381865af415801561086a573d5f803e3d5ffd5b505050506040513d601f19601f8201168201806040525081019061088e9190611ecd565b90506108ac3360408901516001600160a01b038516919030906111be565b80516001600160a01b0383165f90815260076020526040812080549091906108d5908490611efb565b909155505060045460208201516108fa916001600160a01b0385811692911690611225565b86516020808901516040808b015181516001600160a01b039586168186015294909216848201526060808501929092528051808503909201825260a0601f890184900490930284018301905260808301878152909261097b928d92859290918b918b918291018382808284375f920191909152508d92503391506112569050565b8251604051630852cd8d60e31b81529195506001600160a01b038516916342966c68916109ae9160040190815260200190565b5f604051808303815f87803b1580156109c5575f80fd5b505af11580156109d7573d5f803e3d5ffd5b50505050505050610a7d565b60018660018111156109f7576109f7611e6b565b03610a3d5760405162461bcd60e51b815260206004820152601660248201527513d19508151e5c1948139bdd0814dd5c1c1bdc9d195960521b6044820152606401610698565b60405162461bcd60e51b8152602060048201526015602482015274496e76616c6964205472616e73666572205479706560581b6044820152606401610698565b610a876001600355565b9695505050505050565b7f5d8e12c39142ff96d79d04d15d1ba1269e4fe57bb9d26f43523628b34ba108ec610abb8161134b565b47821115610b025760405162461bcd60e51b8152602060048201526014602482015273496e73756666696369656e742062616c616e636560601b6044820152606401610698565b81610b145f546001600160a01b031690565b6001600160a01b03167f7fcf532c15f0a6db0bd6d0e038bea71d30d808c7d98cb3bf7268a95bf5081b6560405160405180910390a35f80546040516001600160a01b039091169184156108fc02918591818181858888f19350505050158015610b7f573d5f803e3d5ffd5b505050565b5f82815260026020526040902060010154610b9e8161134b565b610ba88383611355565b50505050565b610bb66113e6565b610bc08282611412565b5050565b6001600160a01b0381163314610bed5760405163334bd91960e11b815260040160405180910390fd5b610b7f8282611466565b7f241ecf16d79d0f8dbfb92cbc07fe17840425976cf0667f022fe9877caa831b08610c218161134b565b63ffffffff84165f9081526008602090815260408083206001600160a01b0387811685529252909120541615610c995760405162461bcd60e51b815260206004820152601c60248201527f546f6b656e20416c7265616479204164646564202b20416374697665000000006044820152606401610698565b63ffffffff84165f8181526008602090815260408083206001600160a01b0388811680865291845282852080546001600160a01b031916918916918217905580855260098452828520868652909352818420805460ff191660011790559051869492939192917f7b25eb7450c68f3276a7dd977100efb7675200aabea4acdf35bb05fd8905940891a45050505050565b604080518082019091525f80825260208201526040805185516001600160a01b0390811660208084019190915287015116818301529085015160608201525f906080016040516020818303038152906040529050610a87868286866114d1565b610d916113e6565b610d9a5f6115af565b565b5f9182526002602090815260408084206001600160a01b0393909316845291905290205460ff1690565b610dce6113e6565b60405163ca5eb5e160e01b81526001600160a01b0382811660048301527f0000000000000000000000000000000000000000000000000000000000000000169063ca5eb5e1906024015f604051808303815f87803b158015610e2e575f80fd5b505af1158015610e40573d5f803e3d5ffd5b5050505050565b5f82815260026020526040902060010154610e618161134b565b610ba88383611466565b610e736113e6565b6001600160a01b038116610e9c57604051631e4fbdf760e01b81525f6004820152602401610698565b610ea5816115af565b50565b5f602082018035906001908390610ebf9086611e05565b63ffffffff16815260208101919091526040015f20541492915050565b63ffffffff81165f908152600160205260408120548061064b5760405163f6ff4fb760e01b815263ffffffff84166004820152602401610698565b5f8080610f2687890189611f0e565b919450925090505f600881610f3e60208e018e611e05565b63ffffffff16815260208082019290925260409081015f9081206001600160a01b03808916835290845282822054835163313ce56760e01b8152935191169450909273__$f8efa28339233e4b52f9b42ef8127a5105$__9263dc03d932928792879263313ce56792600480830193928290030181865afa158015610fc4573d5f803e3d5ffd5b505050506040513d601f19601f82011682018060405250810190610fe89190611e7f565b6040516001600160e01b031960e085901b168152600481019290925260ff1660248201526044016040805180830381865af4158015611029573d5f803e3d5ffd5b505050506040513d601f19601f8201168201806040525081019061104d9190611ecd565b9050805f0151846001600160a01b0316836001600160a01b03167f2b4dfcf6979a5be540753cff4a1659978fe221d7917e1eb53fa02435eda739ce60405160405180910390a46001600160a01b0382165f90815260076020526040812080548592906110ba908490611f4c565b909155505080516040516340c10f1960e01b81526001600160a01b0386811660048301526024820192909252908316906340c10f19906044015f604051808303815f87803b15801561110a575f80fd5b505af115801561111c573d5f803e3d5ffd5b50506004805460208501516040516340c10f1960e01b81526001600160a01b03928316938101939093526024830152851692506340c10f1991506044015f604051808303815f87803b158015611170575f80fd5b505af1158015611182573d5f803e3d5ffd5b50505050505050505050505050505050565b6002600354036111b757604051633ee5aeb560e01b815260040160405180910390fd5b6002600355565b6040516001600160a01b038481166024830152838116604483015260648201839052610ba89186918216906323b872dd906084015b604051602081830303815290604052915060e01b6020820180516001600160e01b0383818316178352505050506115fe565b6040516001600160a01b03838116602483015260448201839052610b7f91859182169063a9059cbb906064016111f3565b61125e61186a565b82516112699061166a565b50602083015115611281576112818360200151611752565b7f00000000000000000000000000000000000000000000000000000000000000006001600160a01b0316632637a4506040518060a001604052808963ffffffff1681526020016112d08a610edc565b81526020018881526020018781526020015f8760200151111515815250846040518363ffffffff1660e01b815260040161130b929190611fa2565b6080604051808303815f875af1158015611327573d5f803e3d5ffd5b505050506040513d601f19601f82011682018060405250810190610a87919061201a565b610ea58133611831565b5f6113608383610d9c565b6113df575f8381526002602090815260408083206001600160a01b03861684529091529020805460ff191660011790556113973390565b6001600160a01b0316826001600160a01b0316847f2f8788117e7eff1d82e926ec794901d17c78024a50270940304540a733656f0d60405160405180910390a450600161064b565b505f61064b565b5f546001600160a01b03163314610d9a5760405163118cdaa760e01b8152336004820152602401610698565b63ffffffff82165f81815260016020908152604091829020849055815192835282018390527f238399d427b947898edb290f5ff0f9109849b1c3ba196a42e35f00c50a54b98b910160405180910390a15050565b5f6114718383610d9c565b156113df575f8381526002602090815260408083206001600160a01b0386168085529252808320805460ff1916905551339286917ff6391f5c32d9c69d2a47ea670b442974b53935d1edc7fd64eb21e047a839171b9190a450600161064b565b604080518082019091525f80825260208201527f00000000000000000000000000000000000000000000000000000000000000006001600160a01b031663ddc28c586040518060a001604052808863ffffffff16815260200161153389610edc565b8152602001878152602001868152602001851515815250306040518363ffffffff1660e01b8152600401611568929190611fa2565b6040805180830381865afa158015611582573d5f803e3d5ffd5b505050506040513d601f19601f820116820180604052508101906115a69190611ecd565b95945050505050565b5f80546001600160a01b038381166001600160a01b0319831681178455604051919092169283917f8be0079c531659141344cd1fd0a4f28419497f9722a3daafe3b4186f6b6457e09190a35050565b5f8060205f8451602086015f885af18061161d576040513d5f823e3d81fd5b50505f513d91508115611634578060011415611641565b6001600160a01b0384163b155b15610ba857604051635274afe760e01b81526001600160a01b0385166004820152602401610698565b5f807f00000000000000000000000000000000000000000000000000000000000000006001600160a01b031663e1758bd86040518163ffffffff1660e01b8152600401602060405180830381865afa1580156116c8573d5f803e3d5ffd5b505050506040513d601f19601f820116820180604052508101906116ec919061206e565b90506001600160a01b03811661171557604051631f41d79160e01b815260040160405180910390fd5b61174a6001600160a01b038216337f0000000000000000000000000000000000000000000000000000000000000000866111be565b505f92915050565b5f7f00000000000000000000000000000000000000000000000000000000000000006001600160a01b031663e4fe1d946040518163ffffffff1660e01b8152600401602060405180830381865afa1580156117af573d5f803e3d5ffd5b505050506040513d601f19601f820116820180604052508101906117d3919061206e565b90506001600160a01b0381166117fc576040516329b99a9560e11b815260040160405180910390fd5b610bc06001600160a01b038216337f0000000000000000000000000000000000000000000000000000000000000000856111be565b61183b8282610d9c565b610bc05760405163e2517d3f60e01b81526001600160a01b038216600482015260248101839052604401610698565b60405180606001604052805f80191681526020015f67ffffffffffffffff1681526020016118a960405180604001604052805f81526020015f81525090565b905290565b5f602082840312156118be575f80fd5b81356001600160e01b0319811681146118d5575f80fd5b9392505050565b5f606082840312156118ec575f80fd5b50919050565b5f8083601f840112611902575f80fd5b50813567ffffffffffffffff811115611919575f80fd5b602083019150836020828501011115611930575f80fd5b9250929050565b6001600160a01b0381168114610ea5575f80fd5b5f805f805f805f60e0888a031215611961575f80fd5b61196b89896118dc565b965060608801359550608088013567ffffffffffffffff8082111561198e575f80fd5b61199a8b838c016118f2565b909750955060a08a013591506119af82611937565b90935060c089013590808211156119c4575f80fd5b506119d18a828b016118f2565b989b979a50959850939692959293505050565b5f602082840312156119f4575f80fd5b5035919050565b803563ffffffff81168114611a0e575f80fd5b919050565b634e487b7160e01b5f52604160045260245ffd5b6040516060810167ffffffffffffffff81118282101715611a4a57611a4a611a13565b60405290565b6040805190810167ffffffffffffffff81118282101715611a4a57611a4a611a13565b604051601f8201601f1916810167ffffffffffffffff81118282101715611a9c57611a9c611a13565b604052919050565b5f60608284031215611ab4575f80fd5b611abc611a27565b90508135611ac981611937565b81526020820135611ad981611937565b806020830152506040820135604082015292915050565b5f805f805f80868803610100811215611b07575f80fd5b611b10886119fb565b9650602088013560028110611b23575f80fd5b9550611b328960408a01611aa4565b94506040609f1982011215611b45575f80fd5b50611b4e611a50565b60a0880135815260c08801356020820152925060e087013567ffffffffffffffff811115611b7a575f80fd5b611b8689828a016118f2565b979a9699509497509295939492505050565b5f6080820190508251825267ffffffffffffffff60208401511660208301526040830151611bd3604084018280518252602090810151910152565b5092915050565b5f8060408385031215611beb575f80fd5b823591506020830135611bfd81611937565b809150509250929050565b5f8060408385031215611c19575f80fd5b611c22836119fb565b946020939093013593505050565b5f805f60608486031215611c42575f80fd5b611c4b846119fb565b92506020840135611c5b81611937565b91506040840135611c6b81611937565b809150509250925092565b5f8060408385031215611c87575f80fd5b611c90836119fb565b91506020830135611bfd81611937565b80358015158114611a0e575f80fd5b5f805f8060c08587031215611cc2575f80fd5b611ccb856119fb565b93506020611cdb87828801611aa4565b9350608086013567ffffffffffffffff80821115611cf7575f80fd5b818801915088601f830112611d0a575f80fd5b813581811115611d1c57611d1c611a13565b611d2e601f8201601f19168501611a73565b91508082528984828501011115611d43575f80fd5b80848401858401375f84828401015250809450505050611d6560a08601611ca0565b905092959194509250565b81518152602080830151908201526040810161064b565b5f60208284031215611d97575f80fd5b81356118d581611937565b5f805f8060a08587031215611db5575f80fd5b611dbf86866118dc565b9350606085013567ffffffffffffffff811115611dda575f80fd5b611de6878288016118f2565b9094509250506080850135611dfa81611937565b939692955090935050565b5f60208284031215611e15575f80fd5b6118d5826119fb565b5f8060408385031215611e2f575f80fd5b8235611e3a81611937565b9150611e48602084016119fb565b90509250929050565b5f60608284031215611e61575f80fd5b6118d583836118dc565b634e487b7160e01b5f52602160045260245ffd5b5f60208284031215611e8f575f80fd5b815160ff811681146118d5575f80fd5b5f60408284031215611eaf575f80fd5b611eb7611a50565b9050815181526020820151602082015292915050565b5f60408284031215611edd575f80fd5b6118d58383611e9f565b634e487b7160e01b5f52601160045260245ffd5b8181038181111561064b5761064b611ee7565b5f805f60608486031215611f20575f80fd5b8335611f2b81611937565b92506020840135611f3b81611937565b929592945050506040919091013590565b8082018082111561064b5761064b611ee7565b5f81518084525f5b81811015611f8357602081850181015186830182015201611f67565b505f602082860101526020601f19601f83011685010191505092915050565b6040815263ffffffff8351166040820152602083015160608201525f604084015160a06080840152611fd760e0840182611f5f565b90506060850151603f198483030160a0850152611ff48282611f5f565b60809690960151151560c08501525050506001600160a01b039190911660209091015290565b5f6080828403121561202a575f80fd5b612032611a27565b82518152602083015167ffffffffffffffff81168114612050575f80fd5b60208201526120628460408501611e9f565b60408201529392505050565b5f6020828403121561207e575f80fd5b81516118d58161193756fea2646970667358221220d005e4c8fb8e37107d571ca2dc39aeb9640921a8c4d28636e2c54d08268eea0d64736f6c63430008180033",
  "libraries": {
    "LibFeeCalculatorV1": "0x4301612d9B86FA97d447F1D5b2FFd4cb72C8C3DA",
    "LibTypesV1": "0x47de000b63576f3AFbBCC3A9fF139890223e9ef8"
  },
  "devdoc": {
    "errors": {
      "AccessControlBadConfirmation()": [
        {
          "details": "The caller of a function is not the expected one. NOTE: Don't confuse with {AccessControlUnauthorizedAccount}."
        }
      ],
      "AccessControlUnauthorizedAccount(address,bytes32)": [
        {
          "details": "The `account` is missing a role."
        }
      ],
      "OwnableInvalidOwner(address)": [
        {
          "details": "The owner is not a valid owner account. (eg. `address(0)`)"
        }
      ],
      "OwnableUnauthorizedAccount(address)": [
        {
          "details": "The caller account is not authorized to perform an operation."
        }
      ],
      "ReentrancyGuardReentrantCall()": [
        {
          "details": "Unauthorized reentrant call."
        }
      ],
      "SafeERC20FailedOperation(address)": [
        {
          "details": "An operation with an ERC-20 token failed."
        }
      ]
    },
    "events": {
      "RoleAdminChanged(bytes32,bytes32,bytes32)": {
        "details": "Emitted when `newAdminRole` is set as ``role``'s admin role, replacing `previousAdminRole` `DEFAULT_ADMIN_ROLE` is the starting admin for all roles, despite {RoleAdminChanged} not being emitted signaling this."
      },
      "RoleGranted(bytes32,address,address)": {
        "details": "Emitted when `account` is granted `role`. `sender` is the account that originated the contract call. This account bears the admin role (for the granted role). Expected in cases where the role was granted using the internal {AccessControl-_grantRole}."
      },
      "RoleRevoked(bytes32,address,address)": {
        "details": "Emitted when `account` is revoked `role`. `sender` is the account that originated the contract call:   - if using `revokeRole`, it is the admin role bearer   - if using `renounceRole`, it is the role bearer (i.e. `account`)"
      }
    },
    "kind": "dev",
    "methods": {
      "allowInitializePath((uint32,bytes32,uint64))": {
        "details": "This indicates to the endpoint that the OApp has enabled msgs for this particular path to be received.This defaults to assuming if a peer has been set, its initialized. Can be overridden by the OApp if there is other logic to determine this.",
        "params": {
          "origin": "The origin information containing the source endpoint and sender address."
        },
        "returns": {
          "_0": "Whether the path has been initialized."
        }
      },
      "getRoleAdmin(bytes32)": {
        "details": "Returns the admin role that controls `role`. See {grantRole} and {revokeRole}. To change a role's admin, use {_setRoleAdmin}."
      },
      "grantRole(bytes32,address)": {
        "details": "Grants `role` to `account`. If `account` had not been already granted `role`, emits a {RoleGranted} event. Requirements: - the caller must have ``role``'s admin role. May emit a {RoleGranted} event."
      },
      "hasRole(bytes32,address)": {
        "details": "Returns `true` if `account` has been granted `role`."
      },
      "isComposeMsgSender((uint32,bytes32,uint64),bytes,address)": {
        "details": "_origin The origin information containing the source endpoint and sender address.  - srcEid: The source chain endpoint ID.  - sender: The sender address on the src chain.  - nonce: The nonce of the message._message The lzReceive payload.Applications can optionally choose to implement separate composeMsg senders that are NOT the bridging layer.The default sender IS the OAppReceiver implementer.",
        "params": {
          "_sender": "The sender address."
        },
        "returns": {
          "_0": "isSender Is a valid sender."
        }
      },
      "lzReceive((uint32,bytes32,uint64),bytes32,bytes,address,bytes)": {
        "details": "Entry point for receiving messages or packets from the endpoint.Entry point for receiving msg/packet from the LayerZero endpoint.",
        "params": {
          "_executor": "The address of the executor for the received message.",
          "_extraData": "Additional arbitrary data provided by the corresponding executor.",
          "_guid": "The unique identifier for the received LayerZero message.",
          "_message": "The payload of the received message.",
          "_origin": "The origin information containing the source endpoint and sender address.  - srcEid: The source chain endpoint ID.  - sender: The sender address on the src chain.  - nonce: The nonce of the message."
        }
      },
      "nextNonce(uint32,bytes32)": {
        "details": "_srcEid The source endpoint ID._sender The sender address.The path nonce starts from 1. If 0 is returned it means that there is NO nonce ordered enforcement.Is required by the off-chain executor to determine the OApp expects msg execution is ordered.This is also enforced by the OApp.By default this is NOT enabled. ie. nextNonce is hardcoded to return 0.",
        "returns": {
          "nonce": "The next nonce."
        }
      },
      "oAppVersion()": {
        "returns": {
          "receiverVersion": "The version of the OAppReceiver.sol implementation.",
          "senderVersion": "The version of the OAppSender.sol implementation."
        }
      },
      "owner()": {
        "details": "Returns the address of the current owner."
      },
      "renounceOwnership()": {
        "details": "Leaves the contract without owner. It will not be possible to call `onlyOwner` functions. Can only be called by the current owner. NOTE: Renouncing ownership will leave the contract without an owner, thereby disabling any functionality that is only available to the owner."
      },
      "renounceRole(bytes32,address)": {
        "details": "Revokes `role` from the calling account. Roles are often managed via {grantRole} and {revokeRole}: this function's purpose is to provide a mechanism for accounts to lose their privileges if they are compromised (such as when a trusted device is misplaced). If the calling account had been revoked `role`, emits a {RoleRevoked} event. Requirements: - the caller must be `callerConfirmation`. May emit a {RoleRevoked} event."
      },
      "revokeRole(bytes32,address)": {
        "details": "Revokes `role` from `account`. If `account` had been granted `role`, emits a {RoleRevoked} event. Requirements: - the caller must have ``role``'s admin role. May emit a {RoleRevoked} event."
      },
      "setDelegate(address)": {
        "details": "Only the owner/admin of the OApp can call this function.Provides the ability for a delegate to set configs, on behalf of the OApp, directly on the Endpoint contract.",
        "params": {
          "_delegate": "The address of the delegate to be set."
        }
      },
      "setPeer(uint32,bytes32)": {
        "details": "Only the owner/admin of the OApp can call this function.Indicates that the peer is trusted to send LayerZero messages to this OApp.Set this to bytes32(0) to remove the peer address.Peer is a bytes32 to accommodate non-evm chains.",
        "params": {
          "_eid": "The endpoint ID.",
          "_peer": "The address of the peer to be associated with the corresponding endpoint."
        }
      },
      "supportsInterface(bytes4)": {
        "details": "See {IERC165-supportsInterface}."
      },
      "transferOwnership(address)": {
        "details": "Transfers ownership of the contract to a new account (`newOwner`). Can only be called by the current owner."
      }
    },
    "version": 1
  },
  "userdoc": {
    "kind": "user",
    "methods": {
      "allowInitializePath((uint32,bytes32,uint64))": {
        "notice": "Checks if the path initialization is allowed based on the provided origin."
      },
      "endpoint()": {
        "notice": "Retrieves the LayerZero endpoint associated with the OApp."
      },
      "isComposeMsgSender((uint32,bytes32,uint64),bytes,address)": {
        "notice": "Indicates whether an address is an approved composeMsg sender to the Endpoint."
      },
      "nextNonce(uint32,bytes32)": {
        "notice": "Retrieves the next nonce for a given source endpoint and sender address."
      },
      "oAppVersion()": {
        "notice": "Retrieves the OApp version information."
      },
      "peers(uint32)": {
        "notice": "Retrieves the peer (OApp) associated with a corresponding endpoint."
      },
      "setDelegate(address)": {
        "notice": "Sets the delegate address for the OApp."
      },
      "setPeer(uint32,bytes32)": {
        "notice": "Sets the peer address (OApp instance) for a corresponding endpoint."
      }
    },
    "version": 1
  },
  "storageLayout": {
    "storage": [
      {
        "astId": 1706,
        "contract": "contracts/evm/SKALEStation.sol:SKALEStation",
        "label": "_owner",
        "offset": 0,
        "slot": "0",
        "type": "t_address"
      },
      {
        "astId": 785,
        "contract": "contracts/evm/SKALEStation.sol:SKALEStation",
        "label": "peers",
        "offset": 0,
        "slot": "1",
        "type": "t_mapping(t_uint32,t_bytes32)"
      },
      {
        "astId": 1345,
        "contract": "contracts/evm/SKALEStation.sol:SKALEStation",
        "label": "_roles",
        "offset": 0,
        "slot": "2",
        "type": "t_mapping(t_bytes32,t_struct(RoleData)1340_storage)"
      },
      {
        "astId": 2772,
        "contract": "contracts/evm/SKALEStation.sol:SKALEStation",
        "label": "_status",
        "offset": 0,
        "slot": "3",
        "type": "t_uint256"
      },
      {
        "astId": 2919,
        "contract": "contracts/evm/SKALEStation.sol:SKALEStation",
        "label": "feeCollector",
        "offset": 0,
        "slot": "4",
        "type": "t_address"
      },
      {
        "astId": 2921,
        "contract": "contracts/evm/SKALEStation.sol:SKALEStation",
        "label": "liquidityCollector",
        "offset": 0,
        "slot": "5",
        "type": "t_address"
      },
      {
        "astId": 2923,
        "contract": "contracts/evm/SKALEStation.sol:SKALEStation",
        "label": "withdrawlAccount",
        "offset": 0,
        "slot": "6",
        "type": "t_address"
      },
      {
        "astId": 2928,
        "contract": "contracts/evm/SKALEStation.sol:SKALEStation",
        "label": "supplyAvailable",
        "offset": 0,
        "slot": "7",
        "type": "t_mapping(t_contract(IMonorailNativeToken)3492,t_uint256)"
      },
      {
        "astId": 2935,
        "contract": "contracts/evm/SKALEStation.sol:SKALEStation",
        "label": "tokens",
        "offset": 0,
        "slot": "8",
        "type": "t_mapping(t_uint32,t_mapping(t_address,t_contract(IMonorailNativeToken)3492))"
      },
      {
        "astId": 2942,
        "contract": "contracts/evm/SKALEStation.sol:SKALEStation",
        "label": "supported",
        "offset": 0,
        "slot": "9",
        "type": "t_mapping(t_contract(IMonorailNativeToken)3492,t_mapping(t_uint32,t_bool))"
      }
    ],
    "types": {
      "t_address": {
        "encoding": "inplace",
        "label": "address",
        "numberOfBytes": "20"
      },
      "t_bool": {
        "encoding": "inplace",
        "label": "bool",
        "numberOfBytes": "1"
      },
      "t_bytes32": {
        "encoding": "inplace",
        "label": "bytes32",
        "numberOfBytes": "32"
      },
      "t_contract(IMonorailNativeToken)3492": {
        "encoding": "inplace",
        "label": "contract IMonorailNativeToken",
        "numberOfBytes": "20"
      },
      "t_mapping(t_address,t_bool)": {
        "encoding": "mapping",
        "key": "t_address",
        "label": "mapping(address => bool)",
        "numberOfBytes": "32",
        "value": "t_bool"
      },
      "t_mapping(t_address,t_contract(IMonorailNativeToken)3492)": {
        "encoding": "mapping",
        "key": "t_address",
        "label": "mapping(address => contract IMonorailNativeToken)",
        "numberOfBytes": "32",
        "value": "t_contract(IMonorailNativeToken)3492"
      },
      "t_mapping(t_bytes32,t_struct(RoleData)1340_storage)": {
        "encoding": "mapping",
        "key": "t_bytes32",
        "label": "mapping(bytes32 => struct AccessControl.RoleData)",
        "numberOfBytes": "32",
        "value": "t_struct(RoleData)1340_storage"
      },
      "t_mapping(t_contract(IMonorailNativeToken)3492,t_mapping(t_uint32,t_bool))": {
        "encoding": "mapping",
        "key": "t_contract(IMonorailNativeToken)3492",
        "label": "mapping(contract IMonorailNativeToken => mapping(uint32 => bool))",
        "numberOfBytes": "32",
        "value": "t_mapping(t_uint32,t_bool)"
      },
      "t_mapping(t_contract(IMonorailNativeToken)3492,t_uint256)": {
        "encoding": "mapping",
        "key": "t_contract(IMonorailNativeToken)3492",
        "label": "mapping(contract IMonorailNativeToken => uint256)",
        "numberOfBytes": "32",
        "value": "t_uint256"
      },
      "t_mapping(t_uint32,t_bool)": {
        "encoding": "mapping",
        "key": "t_uint32",
        "label": "mapping(uint32 => bool)",
        "numberOfBytes": "32",
        "value": "t_bool"
      },
      "t_mapping(t_uint32,t_bytes32)": {
        "encoding": "mapping",
        "key": "t_uint32",
        "label": "mapping(uint32 => bytes32)",
        "numberOfBytes": "32",
        "value": "t_bytes32"
      },
      "t_mapping(t_uint32,t_mapping(t_address,t_contract(IMonorailNativeToken)3492))": {
        "encoding": "mapping",
        "key": "t_uint32",
        "label": "mapping(uint32 => mapping(address => contract IMonorailNativeToken))",
        "numberOfBytes": "32",
        "value": "t_mapping(t_address,t_contract(IMonorailNativeToken)3492)"
      },
      "t_struct(RoleData)1340_storage": {
        "encoding": "inplace",
        "label": "struct AccessControl.RoleData",
        "members": [
          {
            "astId": 1337,
            "contract": "contracts/evm/SKALEStation.sol:SKALEStation",
            "label": "hasRole",
            "offset": 0,
            "slot": "0",
            "type": "t_mapping(t_address,t_bool)"
          },
          {
            "astId": 1339,
            "contract": "contracts/evm/SKALEStation.sol:SKALEStation",
            "label": "adminRole",
            "offset": 0,
            "slot": "1",
            "type": "t_bytes32"
          }
        ],
        "numberOfBytes": "64"
      },
      "t_uint256": {
        "encoding": "inplace",
        "label": "uint256",
        "numberOfBytes": "32"
      },
      "t_uint32": {
        "encoding": "inplace",
        "label": "uint32",
        "numberOfBytes": "4"
      }
    }
  }
}