{
  "address": "0xa76e910971f45f803c11bF9FBbd611eBa89A05d8",
  "abi": [
    {
      "inputs": [
        {
          "internalType": "address",
          "name": "_layerZeroEndpoint",
          "type": "address"
        },
        {
          "internalType": "address",
          "name": "_feeCollector",
          "type": "address"
        },
        {
          "internalType": "address",
          "name": "owner",
          "type": "address"
        }
      ],
      "stateMutability": "nonpayable",
      "type": "constructor"
    },
    {
      "inputs": [],
      "name": "AccessControlBadConfirmation",
      "type": "error"
    },
    {
      "inputs": [
        {
          "internalType": "address",
          "name": "account",
          "type": "address"
        },
        {
          "internalType": "bytes32",
          "name": "neededRole",
          "type": "bytes32"
        }
      ],
      "name": "AccessControlUnauthorizedAccount",
      "type": "error"
    },
    {
      "inputs": [],
      "name": "InvalidDelegate",
      "type": "error"
    },
    {
      "inputs": [],
      "name": "InvalidEndpointCall",
      "type": "error"
    },
    {
      "inputs": [],
      "name": "LzTokenUnavailable",
      "type": "error"
    },
    {
      "inputs": [
        {
          "internalType": "uint32",
          "name": "eid",
          "type": "uint32"
        }
      ],
      "name": "NoPeer",
      "type": "error"
    },
    {
      "inputs": [
        {
          "internalType": "uint256",
          "name": "msgValue",
          "type": "uint256"
        }
      ],
      "name": "NotEnoughNative",
      "type": "error"
    },
    {
      "inputs": [
        {
          "internalType": "address",
          "name": "addr",
          "type": "address"
        }
      ],
      "name": "OnlyEndpoint",
      "type": "error"
    },
    {
      "inputs": [
        {
          "internalType": "uint32",
          "name": "eid",
          "type": "uint32"
        },
        {
          "internalType": "bytes32",
          "name": "sender",
          "type": "bytes32"
        }
      ],
      "name": "OnlyPeer",
      "type": "error"
    },
    {
      "inputs": [
        {
          "internalType": "address",
          "name": "owner",
          "type": "address"
        }
      ],
      "name": "OwnableInvalidOwner",
      "type": "error"
    },
    {
      "inputs": [
        {
          "internalType": "address",
          "name": "account",
          "type": "address"
        }
      ],
      "name": "OwnableUnauthorizedAccount",
      "type": "error"
    },
    {
      "anonymous": false,
      "inputs": [
        {
          "indexed": true,
          "internalType": "uint32",
          "name": "layerZeroEndpointId",
          "type": "uint32"
        },
        {
          "indexed": true,
          "internalType": "address",
          "name": "originTokenAddress",
          "type": "address"
        },
        {
          "indexed": true,
          "internalType": "address",
          "name": "localTokenAddress",
          "type": "address"
        }
      ],
      "name": "AddToken",
      "type": "event"
    },
    {
      "anonymous": false,
      "inputs": [
        {
          "indexed": true,
          "internalType": "address",
          "name": "previousOwner",
          "type": "address"
        },
        {
          "indexed": true,
          "internalType": "address",
          "name": "newOwner",
          "type": "address"
        }
      ],
      "name": "OwnershipTransferred",
      "type": "event"
    },
    {
      "anonymous": false,
      "inputs": [
        {
          "indexed": false,
          "internalType": "uint32",
          "name": "eid",
          "type": "uint32"
        },
        {
          "indexed": false,
          "internalType": "bytes32",
          "name": "peer",
          "type": "bytes32"
        }
      ],
      "name": "PeerSet",
      "type": "event"
    },
    {
      "anonymous": false,
      "inputs": [
        {
          "indexed": true,
          "internalType": "bytes32",
          "name": "role",
          "type": "bytes32"
        },
        {
          "indexed": true,
          "internalType": "bytes32",
          "name": "previousAdminRole",
          "type": "bytes32"
        },
        {
          "indexed": true,
          "internalType": "bytes32",
          "name": "newAdminRole",
          "type": "bytes32"
        }
      ],
      "name": "RoleAdminChanged",
      "type": "event"
    },
    {
      "anonymous": false,
      "inputs": [
        {
          "indexed": true,
          "internalType": "bytes32",
          "name": "role",
          "type": "bytes32"
        },
        {
          "indexed": true,
          "internalType": "address",
          "name": "account",
          "type": "address"
        },
        {
          "indexed": true,
          "internalType": "address",
          "name": "sender",
          "type": "address"
        }
      ],
      "name": "RoleGranted",
      "type": "event"
    },
    {
      "anonymous": false,
      "inputs": [
        {
          "indexed": true,
          "internalType": "bytes32",
          "name": "role",
          "type": "bytes32"
        },
        {
          "indexed": true,
          "internalType": "address",
          "name": "account",
          "type": "address"
        },
        {
          "indexed": true,
          "internalType": "address",
          "name": "sender",
          "type": "address"
        }
      ],
      "name": "RoleRevoked",
      "type": "event"
    },
    {
      "inputs": [],
      "name": "DEFAULT_ADMIN_ROLE",
      "outputs": [
        {
          "internalType": "bytes32",
          "name": "",
          "type": "bytes32"
        }
      ],
      "stateMutability": "view",
      "type": "function"
    },
    {
      "inputs": [],
      "name": "FEE_MANAGER_ROLE",
      "outputs": [
        {
          "internalType": "bytes32",
          "name": "",
          "type": "bytes32"
        }
      ],
      "stateMutability": "view",
      "type": "function"
    },
    {
      "inputs": [],
      "name": "MANAGER_ROLE",
      "outputs": [
        {
          "internalType": "bytes32",
          "name": "",
          "type": "bytes32"
        }
      ],
      "stateMutability": "view",
      "type": "function"
    },
    {
      "inputs": [
        {
          "internalType": "uint32",
          "name": "layerZeroEndpointId",
          "type": "uint32"
        },
        {
          "internalType": "address",
          "name": "originTokenAddress",
          "type": "address"
        },
        {
          "internalType": "address",
          "name": "localTokenAddress",
          "type": "address"
        },
        {
          "internalType": "bool",
          "name": "isStable",
          "type": "bool"
        }
      ],
      "name": "addToken",
      "outputs": [],
      "stateMutability": "nonpayable",
      "type": "function"
    },
    {
      "inputs": [
        {
          "components": [
            {
              "internalType": "uint32",
              "name": "srcEid",
              "type": "uint32"
            },
            {
              "internalType": "bytes32",
              "name": "sender",
              "type": "bytes32"
            },
            {
              "internalType": "uint64",
              "name": "nonce",
              "type": "uint64"
            }
          ],
          "internalType": "struct Origin",
          "name": "origin",
          "type": "tuple"
        }
      ],
      "name": "allowInitializePath",
      "outputs": [
        {
          "internalType": "bool",
          "name": "",
          "type": "bool"
        }
      ],
      "stateMutability": "view",
      "type": "function"
    },
    {
      "inputs": [
        {
          "internalType": "uint256",
          "name": "amount",
          "type": "uint256"
        }
      ],
      "name": "calculateNonStableTokenFees",
      "outputs": [
        {
          "components": [
            {
              "internalType": "uint256",
              "name": "baseFee",
              "type": "uint256"
            },
            {
              "internalType": "uint256",
              "name": "variableFee",
              "type": "uint256"
            },
            {
              "internalType": "uint256",
              "name": "liquidityFee",
              "type": "uint256"
            },
            {
              "internalType": "uint256",
              "name": "totalFee",
              "type": "uint256"
            }
          ],
          "internalType": "struct FeeManager.Fees",
          "name": "",
          "type": "tuple"
        }
      ],
      "stateMutability": "view",
      "type": "function"
    },
    {
      "inputs": [
        {
          "internalType": "uint256",
          "name": "amount",
          "type": "uint256"
        }
      ],
      "name": "calculateStablecoinFees",
      "outputs": [
        {
          "components": [
            {
              "internalType": "uint256",
              "name": "baseFee",
              "type": "uint256"
            },
            {
              "internalType": "uint256",
              "name": "variableFee",
              "type": "uint256"
            },
            {
              "internalType": "uint256",
              "name": "liquidityFee",
              "type": "uint256"
            },
            {
              "internalType": "uint256",
              "name": "totalFee",
              "type": "uint256"
            }
          ],
          "internalType": "struct FeeManager.Fees",
          "name": "",
          "type": "tuple"
        }
      ],
      "stateMutability": "view",
      "type": "function"
    },
    {
      "inputs": [],
      "name": "endpoint",
      "outputs": [
        {
          "internalType": "contract ILayerZeroEndpointV2",
          "name": "",
          "type": "address"
        }
      ],
      "stateMutability": "view",
      "type": "function"
    },
    {
      "inputs": [
        {
          "internalType": "uint256",
          "name": "",
          "type": "uint256"
        }
      ],
      "name": "feeThresholds",
      "outputs": [
        {
          "internalType": "uint256",
          "name": "",
          "type": "uint256"
        }
      ],
      "stateMutability": "view",
      "type": "function"
    },
    {
      "inputs": [
        {
          "internalType": "bytes32",
          "name": "role",
          "type": "bytes32"
        }
      ],
      "name": "getRoleAdmin",
      "outputs": [
        {
          "internalType": "bytes32",
          "name": "",
          "type": "bytes32"
        }
      ],
      "stateMutability": "view",
      "type": "function"
    },
    {
      "inputs": [
        {
          "internalType": "uint256",
          "name": "amount",
          "type": "uint256"
        }
      ],
      "name": "getStablecoinFeeRates",
      "outputs": [
        {
          "components": [
            {
              "internalType": "uint256",
              "name": "baseFee",
              "type": "uint256"
            },
            {
              "internalType": "uint256",
              "name": "variableRate",
              "type": "uint256"
            },
            {
              "internalType": "uint256",
              "name": "liquidityRate",
              "type": "uint256"
            }
          ],
          "internalType": "struct FeeManager.FeeRates",
          "name": "",
          "type": "tuple"
        }
      ],
      "stateMutability": "view",
      "type": "function"
    },
    {
      "inputs": [],
      "name": "getThresholds",
      "outputs": [
        {
          "internalType": "uint256[]",
          "name": "",
          "type": "uint256[]"
        }
      ],
      "stateMutability": "view",
      "type": "function"
    },
    {
      "inputs": [
        {
          "internalType": "bytes32",
          "name": "role",
          "type": "bytes32"
        },
        {
          "internalType": "address",
          "name": "account",
          "type": "address"
        }
      ],
      "name": "grantRole",
      "outputs": [],
      "stateMutability": "nonpayable",
      "type": "function"
    },
    {
      "inputs": [
        {
          "internalType": "bytes32",
          "name": "role",
          "type": "bytes32"
        },
        {
          "internalType": "address",
          "name": "account",
          "type": "address"
        }
      ],
      "name": "hasRole",
      "outputs": [
        {
          "internalType": "bool",
          "name": "",
          "type": "bool"
        }
      ],
      "stateMutability": "view",
      "type": "function"
    },
    {
      "inputs": [
        {
          "components": [
            {
              "internalType": "uint32",
              "name": "srcEid",
              "type": "uint32"
            },
            {
              "internalType": "bytes32",
              "name": "sender",
              "type": "bytes32"
            },
            {
              "internalType": "uint64",
              "name": "nonce",
              "type": "uint64"
            }
          ],
          "internalType": "struct Origin",
          "name": "",
          "type": "tuple"
        },
        {
          "internalType": "bytes",
          "name": "",
          "type": "bytes"
        },
        {
          "internalType": "address",
          "name": "_sender",
          "type": "address"
        }
      ],
      "name": "isComposeMsgSender",
      "outputs": [
        {
          "internalType": "bool",
          "name": "",
          "type": "bool"
        }
      ],
      "stateMutability": "view",
      "type": "function"
    },
    {
      "inputs": [
        {
          "components": [
            {
              "internalType": "uint32",
              "name": "srcEid",
              "type": "uint32"
            },
            {
              "internalType": "bytes32",
              "name": "sender",
              "type": "bytes32"
            },
            {
              "internalType": "uint64",
              "name": "nonce",
              "type": "uint64"
            }
          ],
          "internalType": "struct Origin",
          "name": "_origin",
          "type": "tuple"
        },
        {
          "internalType": "bytes32",
          "name": "_guid",
          "type": "bytes32"
        },
        {
          "internalType": "bytes",
          "name": "_message",
          "type": "bytes"
        },
        {
          "internalType": "address",
          "name": "_executor",
          "type": "address"
        },
        {
          "internalType": "bytes",
          "name": "_extraData",
          "type": "bytes"
        }
      ],
      "name": "lzReceive",
      "outputs": [],
      "stateMutability": "payable",
      "type": "function"
    },
    {
      "inputs": [
        {
          "internalType": "uint32",
          "name": "",
          "type": "uint32"
        },
        {
          "internalType": "bytes32",
          "name": "",
          "type": "bytes32"
        }
      ],
      "name": "nextNonce",
      "outputs": [
        {
          "internalType": "uint64",
          "name": "nonce",
          "type": "uint64"
        }
      ],
      "stateMutability": "view",
      "type": "function"
    },
    {
      "inputs": [],
      "name": "nonStableTokenFees",
      "outputs": [
        {
          "internalType": "uint256",
          "name": "baseFee",
          "type": "uint256"
        },
        {
          "internalType": "uint256",
          "name": "variableRate",
          "type": "uint256"
        },
        {
          "internalType": "uint256",
          "name": "liquidityRate",
          "type": "uint256"
        }
      ],
      "stateMutability": "view",
      "type": "function"
    },
    {
      "inputs": [],
      "name": "oAppVersion",
      "outputs": [
        {
          "internalType": "uint64",
          "name": "senderVersion",
          "type": "uint64"
        },
        {
          "internalType": "uint64",
          "name": "receiverVersion",
          "type": "uint64"
        }
      ],
      "stateMutability": "pure",
      "type": "function"
    },
    {
      "inputs": [],
      "name": "owner",
      "outputs": [
        {
          "internalType": "address",
          "name": "",
          "type": "address"
        }
      ],
      "stateMutability": "view",
      "type": "function"
    },
    {
      "inputs": [
        {
          "internalType": "uint32",
          "name": "eid",
          "type": "uint32"
        }
      ],
      "name": "peers",
      "outputs": [
        {
          "internalType": "bytes32",
          "name": "peer",
          "type": "bytes32"
        }
      ],
      "stateMutability": "view",
      "type": "function"
    },
    {
      "inputs": [
        {
          "internalType": "uint256",
          "name": "threshold",
          "type": "uint256"
        }
      ],
      "name": "removeFeeTier",
      "outputs": [],
      "stateMutability": "nonpayable",
      "type": "function"
    },
    {
      "inputs": [],
      "name": "renounceOwnership",
      "outputs": [],
      "stateMutability": "nonpayable",
      "type": "function"
    },
    {
      "inputs": [
        {
          "internalType": "bytes32",
          "name": "role",
          "type": "bytes32"
        },
        {
          "internalType": "address",
          "name": "callerConfirmation",
          "type": "address"
        }
      ],
      "name": "renounceRole",
      "outputs": [],
      "stateMutability": "nonpayable",
      "type": "function"
    },
    {
      "inputs": [
        {
          "internalType": "bytes32",
          "name": "role",
          "type": "bytes32"
        },
        {
          "internalType": "address",
          "name": "account",
          "type": "address"
        }
      ],
      "name": "revokeRole",
      "outputs": [],
      "stateMutability": "nonpayable",
      "type": "function"
    },
    {
      "inputs": [
        {
          "internalType": "address",
          "name": "_delegate",
          "type": "address"
        }
      ],
      "name": "setDelegate",
      "outputs": [],
      "stateMutability": "nonpayable",
      "type": "function"
    },
    {
      "inputs": [
        {
          "internalType": "uint32",
          "name": "_eid",
          "type": "uint32"
        },
        {
          "internalType": "bytes32",
          "name": "_peer",
          "type": "bytes32"
        }
      ],
      "name": "setPeer",
      "outputs": [],
      "stateMutability": "nonpayable",
      "type": "function"
    },
    {
      "inputs": [
        {
          "internalType": "contract IMonorailNativeToken",
          "name": "",
          "type": "address"
        }
      ],
      "name": "stable",
      "outputs": [
        {
          "internalType": "bool",
          "name": "",
          "type": "bool"
        }
      ],
      "stateMutability": "view",
      "type": "function"
    },
    {
      "inputs": [
        {
          "internalType": "uint256",
          "name": "",
          "type": "uint256"
        }
      ],
      "name": "stablecoinFeeTiers",
      "outputs": [
        {
          "internalType": "uint256",
          "name": "baseFee",
          "type": "uint256"
        },
        {
          "internalType": "uint256",
          "name": "variableRate",
          "type": "uint256"
        },
        {
          "internalType": "uint256",
          "name": "liquidityRate",
          "type": "uint256"
        }
      ],
      "stateMutability": "view",
      "type": "function"
    },
    {
      "inputs": [
        {
          "internalType": "address",
          "name": "",
          "type": "address"
        }
      ],
      "name": "supplyAvailable",
      "outputs": [
        {
          "internalType": "uint256",
          "name": "",
          "type": "uint256"
        }
      ],
      "stateMutability": "view",
      "type": "function"
    },
    {
      "inputs": [
        {
          "internalType": "bytes4",
          "name": "interfaceId",
          "type": "bytes4"
        }
      ],
      "name": "supportsInterface",
      "outputs": [
        {
          "internalType": "bool",
          "name": "",
          "type": "bool"
        }
      ],
      "stateMutability": "view",
      "type": "function"
    },
    {
      "inputs": [
        {
          "internalType": "address",
          "name": "",
          "type": "address"
        },
        {
          "internalType": "uint32",
          "name": "",
          "type": "uint32"
        }
      ],
      "name": "tokens",
      "outputs": [
        {
          "internalType": "contract IMonorailNativeToken",
          "name": "",
          "type": "address"
        }
      ],
      "stateMutability": "view",
      "type": "function"
    },
    {
      "inputs": [
        {
          "internalType": "address",
          "name": "newOwner",
          "type": "address"
        }
      ],
      "name": "transferOwnership",
      "outputs": [],
      "stateMutability": "nonpayable",
      "type": "function"
    },
    {
      "inputs": [
        {
          "internalType": "uint256",
          "name": "threshold",
          "type": "uint256"
        },
        {
          "components": [
            {
              "internalType": "uint256",
              "name": "baseFee",
              "type": "uint256"
            },
            {
              "internalType": "uint256",
              "name": "variableRate",
              "type": "uint256"
            },
            {
              "internalType": "uint256",
              "name": "liquidityRate",
              "type": "uint256"
            }
          ],
          "internalType": "struct FeeManager.FeeRates",
          "name": "rates",
          "type": "tuple"
        }
      ],
      "name": "updateFeeTier",
      "outputs": [],
      "stateMutability": "nonpayable",
      "type": "function"
    },
    {
      "inputs": [
        {
          "components": [
            {
              "internalType": "uint256",
              "name": "baseFee",
              "type": "uint256"
            },
            {
              "internalType": "uint256",
              "name": "variableRate",
              "type": "uint256"
            },
            {
              "internalType": "uint256",
              "name": "liquidityRate",
              "type": "uint256"
            }
          ],
          "internalType": "struct FeeManager.FeeRates",
          "name": "rates",
          "type": "tuple"
        }
      ],
      "name": "updateNonStableTokenFees",
      "outputs": [],
      "stateMutability": "nonpayable",
      "type": "function"
    }
  ],
  "transactionHash": "0x546e864b0dd54f38ae8f50ce6aaf90e719921fd3d4834cf0f948369f01c04675",
  "args": [
    "0x82b7dc04A4ABCF2b4aE570F317dcab49f5a10f24",
    "0x49b30E1e0CaecF2D573d40AEFbb7f42Af2786b4a",
    "0x49b30E1e0CaecF2D573d40AEFbb7f42Af2786b4a"
  ],
  "numDeployments": 1,
  "solcInputHash": "803bc0c776f7c8ae65260cbfbacd68e6",
  "bytecode": "0x60a06040527f241ecf16d79d0f8dbfb92cbc07fe17840425976cf0667f022fe9877caa831b0860085534801562000034575f80fd5b5060405162002188380380620021888339810160408190526200005791620005b3565b82338181846001600160a01b0381166200008a57604051631e4fbdf760e01b81525f600482015260240160405180910390fd5b620000958162000434565b506001600160a01b038083166080528116620000c457604051632d618d8160e21b815260040160405180910390fd5b60805160405163ca5eb5e160e01b81526001600160a01b0383811660048301529091169063ca5eb5e1906024015f604051808303815f87803b15801562000109575f80fd5b505af11580156200011c573d5f803e3d5ffd5b5050505050505050620001415f801b6200013b6200043060201b60201c565b62000483565b506200016e7f6c0757dc3e6b28b2580c03fd9e96c274acf4f99d91fbec9b418fa1d70604ff1c3362000483565b506040518060a001604052806103e881526020016127108152602001620186a08152602001620f424081526020015f198152506004906005620001b392919062000533565b506040518060600160405280620f4240815260200160328152602001603281525060035f60045f81548110620001ed57620001ed620005fa565b905f5260205f20015481526020019081526020015f205f820151815f015560208201518160010155604082015181600201559050506040518060600160405280624c4b40815260200160328152602001602881525060035f60046001815481106200025c576200025c620005fa565b905f5260205f20015481526020019081526020015f205f820151815f0155602082015181600101556040820151816002015590505060405180606001604052806302faf080815260200160288152602001602881525060035f6004600281548110620002cc57620002cc620005fa565b905f5260205f20015481526020019081526020015f205f820151815f0155602082015181600101556040820151816002015590505060405180606001604052806305f5e100815260200160238152602001601e81525060035f60046003815481106200033c576200033c620005fa565b905f5260205f20015481526020019081526020015f205f820151815f015560208201518160010155604082015181600201559050506040518060600160405280631dcd65008152602001601e8152602001601481525060035f60048081548110620003ab57620003ab620005fa565b5f9182526020808320909101548352828101939093526040918201812084518155848401516001820155938201516002909401939093558051606081018252838152606492810183905260329101819052600583905560069190915560075562000416908262000483565b5060085462000426903362000483565b505050506200060e565b3390565b5f80546001600160a01b038381166001600160a01b0319831681178455604051919092169283917f8be0079c531659141344cd1fd0a4f28419497f9722a3daafe3b4186f6b6457e09190a35050565b5f8281526002602090815260408083206001600160a01b038516845290915281205460ff166200052a575f8381526002602090815260408083206001600160a01b03861684529091529020805460ff19166001179055620004e13390565b6001600160a01b0316826001600160a01b0316847f2f8788117e7eff1d82e926ec794901d17c78024a50270940304540a733656f0d60405160405180910390a45060016200052d565b505f5b92915050565b828054828255905f5260205f209081019282156200056f579160200282015b828111156200056f57825182559160200191906001019062000552565b506200057d92915062000581565b5090565b5b808211156200057d575f815560010162000582565b80516001600160a01b0381168114620005ae575f80fd5b919050565b5f805f60608486031215620005c6575f80fd5b620005d18462000597565b9250620005e16020850162000597565b9150620005f16040850162000597565b90509250925092565b634e487b7160e01b5f52603260045260245ffd5b608051611b53620006355f395f81816103ec015281816107a50152610e570152611b535ff3fe6080604052600436106101fc575f3560e01c8063715018a611610113578063bb0b6a531161009d578063ec87621c1161006d578063ec87621c146106ad578063f2fde38b146106c2578063f47c2042146106e1578063fa4ef6dd14610720578063ff7bd03d1461074e575f80fd5b8063bb0b6a5314610625578063ca5eb5e114610650578063d547741f1461066f578063e1a4444b1461068e575f80fd5b80638da5cb5b116100e35780638da5cb5b1461059757806390293d34146105b357806391d14854146105d25780639c3977b5146105f1578063a217fddf14610612575f80fd5b8063715018a6146104c95780637d25a05e146104dd57806382413eac146105175780638288018014610545575f80fd5b806336568abe116101945780635e280f11116101645780635e280f11146103db57806360647d6b1461042657806362059163146104515780636570721e1461047057806369c5b5e6146104aa575f80fd5b806336568abe1461034557806342b53e5f146103645780635a242378146103835780635c7b043d146103a2575f80fd5b8063248a9ca3116101cf578063248a9ca3146102985780632af8ba48146102c65780632f2ff15d146103075780633400288b14610326575f80fd5b806301ffc9a71461020057806305db2f411461023457806313137d651461026257806317442b7014610277575b5f80fd5b34801561020b575f80fd5b5061021f61021a366004611646565b61076d565b60405190151581526020015b60405180910390f35b34801561023f575f80fd5b506102545f80516020611afe83398151915281565b60405190815260200161022b565b6102756102703660046116dc565b6107a3565b005b348015610282575f80fd5b506040805160018152600260208201520161022b565b3480156102a3575f80fd5b506102546102b2366004611775565b5f9081526002602052604090206001015490565b3480156102d1575f80fd5b506102e56102e0366004611775565b610863565b604080518251815260208084015190820152918101519082015260600161022b565b348015610312575f80fd5b5061027561032136600461178c565b610970565b348015610331575f80fd5b506102756103403660046117d2565b61099a565b348015610350575f80fd5b5061027561035f36600461178c565b6109b0565b34801561036f575f80fd5b5061027561037e366004611775565b6109e8565b34801561038e575f80fd5b5061027561039d3660046117fa565b610b1f565b3480156103ad575f80fd5b506005546006546007546103c092919083565b6040805193845260208401929092529082015260600161022b565b3480156103e6575f80fd5b5061040e7f000000000000000000000000000000000000000000000000000000000000000081565b6040516001600160a01b03909116815260200161022b565b348015610431575f80fd5b50610254610440366004611855565b600a6020525f908152604090205481565b34801561045c575f80fd5b5061027561046b3660046118dd565b610c29565b34801561047b575f80fd5b506103c061048a366004611775565b60036020525f908152604090208054600182015460029092015490919083565b3480156104b5575f80fd5b506102546104c4366004611775565b610d0c565b3480156104d4575f80fd5b50610275610d2b565b3480156104e8575f80fd5b506104fe6104f73660046117d2565b5f92915050565b60405167ffffffffffffffff909116815260200161022b565b348015610522575f80fd5b5061021f610531366004611908565b6001600160a01b0381163014949350505050565b348015610550575f80fd5b5061056461055f366004611775565b610d3e565b60405161022b91908151815260208083015190820152604080830151908201526060918201519181019190915260800190565b3480156105a2575f80fd5b505f546001600160a01b031661040e565b3480156105be575f80fd5b506102756105cd366004611960565b610d82565b3480156105dd575f80fd5b5061021f6105ec36600461178c565b610db0565b3480156105fc575f80fd5b50610605610dda565b60405161022b919061197a565b34801561061d575f80fd5b506102545f81565b348015610630575f80fd5b5061025461063f3660046119bd565b60016020525f908152604090205481565b34801561065b575f80fd5b5061027561066a366004611855565b610e30565b34801561067a575f80fd5b5061027561068936600461178c565b610eb1565b348015610699575f80fd5b506105646106a8366004611775565b610ed5565b3480156106b8575f80fd5b5061025460085481565b3480156106cd575f80fd5b506102756106dc366004611855565b610f28565b3480156106ec575f80fd5b5061040e6106fb3660046119d6565b600b60209081525f92835260408084209091529082529020546001600160a01b031681565b34801561072b575f80fd5b5061021f61073a366004611855565b600c6020525f908152604090205460ff1681565b348015610759575f80fd5b5061021f610768366004611a00565b610f65565b5f6001600160e01b03198216637965db0b60e01b148061079d57506301ffc9a760e01b6001600160e01b03198316145b92915050565b7f00000000000000000000000000000000000000000000000000000000000000006001600160a01b031633146107f3576040516391ac5e4f60e01b81523360048201526024015b60405180910390fd5b6020870180359061080d90610808908a6119bd565b610f99565b1461084b5761081f60208801886119bd565b60405163309afaf360e21b815263ffffffff9091166004820152602088013560248201526044016107ea565b61085a87878787878787610fd4565b50505050505050565b61088460405180606001604052805f81526020015f81526020015f81525090565b5f5b60045481101561091657600481815481106108a3576108a3611a1a565b905f5260205f200154831161090e5760035f600483815481106108c8576108c8611a1a565b905f5260205f20015481526020019081526020015f206040518060600160405290815f820154815260200160018201548152602001600282015481525050915050919050565b600101610886565b5060405162461bcd60e51b815260206004820152602860248201527f466565207261746573206e6f7420666f756e6420666f722074686520676976656044820152671b88185b5bdd5b9d60c21b60648201526084016107ea565b5f8281526002602052604090206001015461098a81611258565b6109948383611262565b50505050565b6109a26112f3565b6109ac828261131f565b5050565b6001600160a01b03811633146109d95760405163334bd91960e11b815260040160405180910390fd5b6109e38282611373565b505050565b5f80516020611afe8339815191526109ff81611258565b610a08826113de565b610a545760405162461bcd60e51b815260206004820152601860248201527f5468726573686f6c6420646f6573206e6f74206578697374000000000000000060448201526064016107ea565b5f828152600360205260408120818155600181018290556002018190555b600454811015610b16578260048281548110610a9057610a90611a1a565b905f5260205f20015403610b0e5760048054610aae90600190611a42565b81548110610abe57610abe611a1a565b905f5260205f20015460048281548110610ada57610ada611a1a565b5f918252602090912001556004805480610af657610af6611a55565b600190038181905f5260205f20015f90559055610b16565b600101610a72565b506109ac611426565b600854610b2b81611258565b6001600160a01b038481165f908152600b6020908152604080832063ffffffff8a1684529091529020541615610ba35760405162461bcd60e51b815260206004820152601c60248201527f546f6b656e20416c7265616479204164646564202b204163746976650000000060448201526064016107ea565b6001600160a01b038481165f818152600b6020908152604080832063ffffffff8b1680855290835281842080546001600160a01b031916968a169687179055858452600c909252808320805460ff191688151517905551879493927f7b25eb7450c68f3276a7dd977100efb7675200aabea4acdf35bb05fd8905940891a4505050505050565b5f80516020611afe833981519152610c4081611258565b5f8311610c9b5760405162461bcd60e51b815260206004820152602360248201527f5468726573686f6c64206d7573742062652067726561746572207468616e207a60448201526265726f60e81b60648201526084016107ea565b5f838152600360209081526040918290208451815590840151600182015590830151600290910155610ccc836113de565b6109e357600480546001810182555f919091527f8a35acfbc15ff81a39ae7d344fd709f28e8600b4aa8c65c6b64bfe7fe36bd19b018390556109e3611426565b60048181548110610d1b575f80fd5b5f91825260209091200154905081565b610d336112f3565b610d3c5f611515565b565b610d6560405180608001604052805f81526020015f81526020015f81526020015f81525090565b5f610d6f83610863565b9050610d7b8382611564565b9392505050565b5f80516020611afe833981519152610d9981611258565b508051600555602081015160065560400151600755565b5f9182526002602090815260408084206001600160a01b0393909316845291905290205460ff1690565b60606004805480602002602001604051908101604052809291908181526020018280548015610e2657602002820191905f5260205f20905b815481526020019060010190808311610e12575b5050505050905090565b610e386112f3565b60405163ca5eb5e160e01b81526001600160a01b0382811660048301527f0000000000000000000000000000000000000000000000000000000000000000169063ca5eb5e1906024015f604051808303815f87803b158015610e98575f80fd5b505af1158015610eaa573d5f803e3d5ffd5b5050505050565b5f82815260026020526040902060010154610ecb81611258565b6109948383611373565b610efc60405180608001604052805f81526020015f81526020015f81526020015f81525090565b60408051606081018252600554815260065460208201526007549181019190915261079d908390611564565b610f306112f3565b6001600160a01b038116610f5957604051631e4fbdf760e01b81525f60048201526024016107ea565b610f6281611515565b50565b5f602082018035906001908390610f7c90866119bd565b63ffffffff16815260208101919091526040015f20541492915050565b63ffffffff81165f908152600160205260408120548061079d5760405163f6ff4fb760e01b815263ffffffff841660048201526024016107ea565b5f610fe185870187611a69565b80516001600160a01b03165f908152600b6020908152604082209293509091600c918391908290611014908e018e6119bd565b63ffffffff16815260208082019290925260409081015f908120546001600160a01b0316845291830193909352910190205460ff1661105f5761105a8260400151610ed5565b61106c565b61106c8260400151610d3e565b82516001600160a01b03165f908152600b602090815260408220929350611095908c018c6119bd565b63ffffffff16815260208082019290925260409081015f2054918401516060840151918501516001600160a01b03909316926340c10f19926110d691611a42565b6040516001600160e01b031960e085901b1681526001600160a01b03909216600483015260248201526044015f604051808303815f87803b158015611119575f80fd5b505af115801561112b573d5f803e3d5ffd5b505083516001600160a01b03165f908152600b6020908152604082209350909150611158908c018c6119bd565b63ffffffff168152602081019190915260409081015f2054600954606084015192516340c10f1960e01b81526001600160a01b039182166004820152602481019390935216906340c10f19906044015f604051808303815f87803b1580156111be575f80fd5b505af11580156111d0573d5f803e3d5ffd5b5050505060408281015183516001600160a01b03165f908152600b60209081529281209192600a92908290611207908f018f6119bd565b63ffffffff16815260208082019290925260409081015f908120546001600160a01b0316845291830193909352910181208054909190611248908490611ab4565b9091555050505050505050505050565b610f62813361160d565b5f61126d8383610db0565b6112ec575f8381526002602090815260408083206001600160a01b03861684529091529020805460ff191660011790556112a43390565b6001600160a01b0316826001600160a01b0316847f2f8788117e7eff1d82e926ec794901d17c78024a50270940304540a733656f0d60405160405180910390a450600161079d565b505f61079d565b5f546001600160a01b03163314610d3c5760405163118cdaa760e01b81523360048201526024016107ea565b63ffffffff82165f81815260016020908152604091829020849055815192835282018390527f238399d427b947898edb290f5ff0f9109849b1c3ba196a42e35f00c50a54b98b910160405180910390a15050565b5f61137e8383610db0565b156112ec575f8381526002602090815260408083206001600160a01b0386168085529252808320805460ff1916905551339286917ff6391f5c32d9c69d2a47ea670b442974b53935d1edc7fd64eb21e047a839171b9190a450600161079d565b5f805b60045481101561141e5782600482815481106113ff576113ff611a1a565b905f5260205f200154036114165750600192915050565b6001016113e1565b505f92915050565b5f5b600454811015610f62575f61143e826001611ab4565b90505b60045481101561150c576004818154811061145e5761145e611a1a565b905f5260205f2001546004838154811061147a5761147a611a1a565b905f5260205f2001541115611504575f6004838154811061149d5761149d611a1a565b905f5260205f2001549050600482815481106114bb576114bb611a1a565b905f5260205f200154600484815481106114d7576114d7611a1a565b905f5260205f20018190555080600483815481106114f7576114f7611a1a565b5f91825260209091200155505b600101611441565b50600101611428565b5f80546001600160a01b038381166001600160a01b0319831681178455604051919092169283917f8be0079c531659141344cd1fd0a4f28419497f9722a3daafe3b4186f6b6457e09190a35050565b61158b60405180608001604052805f81526020015f81526020015f81526020015f81525090565b815160208301515f90612710906115a29087611ac7565b6115ac9190611ade565b90505f6127108560400151876115c29190611ac7565b6115cc9190611ade565b90505f816115da8486611ab4565b6115e49190611ab4565b604080516080810182529586526020860194909452928401919091525060608201529392505050565b6116178282610db0565b6109ac5760405163e2517d3f60e01b81526001600160a01b0382166004820152602481018390526044016107ea565b5f60208284031215611656575f80fd5b81356001600160e01b031981168114610d7b575f80fd5b5f6060828403121561167d575f80fd5b50919050565b5f8083601f840112611693575f80fd5b50813567ffffffffffffffff8111156116aa575f80fd5b6020830191508360208285010111156116c1575f80fd5b9250929050565b6001600160a01b0381168114610f62575f80fd5b5f805f805f805f60e0888a0312156116f2575f80fd5b6116fc898961166d565b965060608801359550608088013567ffffffffffffffff8082111561171f575f80fd5b61172b8b838c01611683565b909750955060a08a01359150611740826116c8565b90935060c08901359080821115611755575f80fd5b506117628a828b01611683565b989b979a50959850939692959293505050565b5f60208284031215611785575f80fd5b5035919050565b5f806040838503121561179d575f80fd5b8235915060208301356117af816116c8565b809150509250929050565b803563ffffffff811681146117cd575f80fd5b919050565b5f80604083850312156117e3575f80fd5b6117ec836117ba565b946020939093013593505050565b5f805f806080858703121561180d575f80fd5b611816856117ba565b93506020850135611826816116c8565b92506040850135611836816116c8565b91506060850135801515811461184a575f80fd5b939692955090935050565b5f60208284031215611865575f80fd5b8135610d7b816116c8565b6040516060810167ffffffffffffffff8111828210171561189f57634e487b7160e01b5f52604160045260245ffd5b60405290565b5f606082840312156118b5575f80fd5b6118bd611870565b905081358152602082013560208201526040820135604082015292915050565b5f80608083850312156118ee575f80fd5b823591506118ff84602085016118a5565b90509250929050565b5f805f8060a0858703121561191b575f80fd5b611925868661166d565b9350606085013567ffffffffffffffff811115611940575f80fd5b61194c87828801611683565b909450925050608085013561184a816116c8565b5f60608284031215611970575f80fd5b610d7b83836118a5565b602080825282518282018190525f9190848201906040850190845b818110156119b157835183529284019291840191600101611995565b50909695505050505050565b5f602082840312156119cd575f80fd5b610d7b826117ba565b5f80604083850312156119e7575f80fd5b82356119f2816116c8565b91506118ff602084016117ba565b5f60608284031215611a10575f80fd5b610d7b838361166d565b634e487b7160e01b5f52603260045260245ffd5b634e487b7160e01b5f52601160045260245ffd5b8181038181111561079d5761079d611a2e565b634e487b7160e01b5f52603160045260245ffd5b5f60608284031215611a79575f80fd5b611a81611870565b8235611a8c816116c8565b81526020830135611a9c816116c8565b60208201526040928301359281019290925250919050565b8082018082111561079d5761079d611a2e565b808202811582820484141761079d5761079d611a2e565b5f82611af857634e487b7160e01b5f52601260045260245ffd5b50049056fe6c0757dc3e6b28b2580c03fd9e96c274acf4f99d91fbec9b418fa1d70604ff1ca26469706673582212202200f49e00b6b5c91d9a81e2c80c50d38fb3164589961eda3b3fc90f5a7daed664736f6c63430008180033",
  "devdoc": {
    "errors": {
      "AccessControlBadConfirmation()": [
        {
          "details": "The caller of a function is not the expected one. NOTE: Don't confuse with {AccessControlUnauthorizedAccount}."
        }
      ],
      "AccessControlUnauthorizedAccount(address,bytes32)": [
        {
          "details": "The `account` is missing a role."
        }
      ],
      "OwnableInvalidOwner(address)": [
        {
          "details": "The owner is not a valid owner account. (eg. `address(0)`)"
        }
      ],
      "OwnableUnauthorizedAccount(address)": [
        {
          "details": "The caller account is not authorized to perform an operation."
        }
      ]
    },
    "events": {
      "RoleAdminChanged(bytes32,bytes32,bytes32)": {
        "details": "Emitted when `newAdminRole` is set as ``role``'s admin role, replacing `previousAdminRole` `DEFAULT_ADMIN_ROLE` is the starting admin for all roles, despite {RoleAdminChanged} not being emitted signaling this."
      },
      "RoleGranted(bytes32,address,address)": {
        "details": "Emitted when `account` is granted `role`. `sender` is the account that originated the contract call. This account bears the admin role (for the granted role). Expected in cases where the role was granted using the internal {AccessControl-_grantRole}."
      },
      "RoleRevoked(bytes32,address,address)": {
        "details": "Emitted when `account` is revoked `role`. `sender` is the account that originated the contract call:   - if using `revokeRole`, it is the admin role bearer   - if using `renounceRole`, it is the role bearer (i.e. `account`)"
      }
    },
    "kind": "dev",
    "methods": {
      "allowInitializePath((uint32,bytes32,uint64))": {
        "details": "This indicates to the endpoint that the OApp has enabled msgs for this particular path to be received.This defaults to assuming if a peer has been set, its initialized. Can be overridden by the OApp if there is other logic to determine this.",
        "params": {
          "origin": "The origin information containing the source endpoint and sender address."
        },
        "returns": {
          "_0": "Whether the path has been initialized."
        }
      },
      "getRoleAdmin(bytes32)": {
        "details": "Returns the admin role that controls `role`. See {grantRole} and {revokeRole}. To change a role's admin, use {_setRoleAdmin}."
      },
      "grantRole(bytes32,address)": {
        "details": "Grants `role` to `account`. If `account` had not been already granted `role`, emits a {RoleGranted} event. Requirements: - the caller must have ``role``'s admin role. May emit a {RoleGranted} event."
      },
      "hasRole(bytes32,address)": {
        "details": "Returns `true` if `account` has been granted `role`."
      },
      "isComposeMsgSender((uint32,bytes32,uint64),bytes,address)": {
        "details": "_origin The origin information containing the source endpoint and sender address.  - srcEid: The source chain endpoint ID.  - sender: The sender address on the src chain.  - nonce: The nonce of the message._message The lzReceive payload.Applications can optionally choose to implement separate composeMsg senders that are NOT the bridging layer.The default sender IS the OAppReceiver implementer.",
        "params": {
          "_sender": "The sender address."
        },
        "returns": {
          "_0": "isSender Is a valid sender."
        }
      },
      "lzReceive((uint32,bytes32,uint64),bytes32,bytes,address,bytes)": {
        "details": "Entry point for receiving messages or packets from the endpoint.Entry point for receiving msg/packet from the LayerZero endpoint.",
        "params": {
          "_executor": "The address of the executor for the received message.",
          "_extraData": "Additional arbitrary data provided by the corresponding executor.",
          "_guid": "The unique identifier for the received LayerZero message.",
          "_message": "The payload of the received message.",
          "_origin": "The origin information containing the source endpoint and sender address.  - srcEid: The source chain endpoint ID.  - sender: The sender address on the src chain.  - nonce: The nonce of the message."
        }
      },
      "nextNonce(uint32,bytes32)": {
        "details": "_srcEid The source endpoint ID._sender The sender address.The path nonce starts from 1. If 0 is returned it means that there is NO nonce ordered enforcement.Is required by the off-chain executor to determine the OApp expects msg execution is ordered.This is also enforced by the OApp.By default this is NOT enabled. ie. nextNonce is hardcoded to return 0.",
        "returns": {
          "nonce": "The next nonce."
        }
      },
      "oAppVersion()": {
        "returns": {
          "receiverVersion": "The version of the OAppReceiver.sol implementation.",
          "senderVersion": "The version of the OAppSender.sol implementation."
        }
      },
      "owner()": {
        "details": "Returns the address of the current owner."
      },
      "renounceOwnership()": {
        "details": "Leaves the contract without owner. It will not be possible to call `onlyOwner` functions. Can only be called by the current owner. NOTE: Renouncing ownership will leave the contract without an owner, thereby disabling any functionality that is only available to the owner."
      },
      "renounceRole(bytes32,address)": {
        "details": "Revokes `role` from the calling account. Roles are often managed via {grantRole} and {revokeRole}: this function's purpose is to provide a mechanism for accounts to lose their privileges if they are compromised (such as when a trusted device is misplaced). If the calling account had been revoked `role`, emits a {RoleRevoked} event. Requirements: - the caller must be `callerConfirmation`. May emit a {RoleRevoked} event."
      },
      "revokeRole(bytes32,address)": {
        "details": "Revokes `role` from `account`. If `account` had been granted `role`, emits a {RoleRevoked} event. Requirements: - the caller must have ``role``'s admin role. May emit a {RoleRevoked} event."
      },
      "setDelegate(address)": {
        "details": "Only the owner/admin of the OApp can call this function.Provides the ability for a delegate to set configs, on behalf of the OApp, directly on the Endpoint contract.",
        "params": {
          "_delegate": "The address of the delegate to be set."
        }
      },
      "setPeer(uint32,bytes32)": {
        "details": "Only the owner/admin of the OApp can call this function.Indicates that the peer is trusted to send LayerZero messages to this OApp.Set this to bytes32(0) to remove the peer address.Peer is a bytes32 to accommodate non-evm chains.",
        "params": {
          "_eid": "The endpoint ID.",
          "_peer": "The address of the peer to be associated with the corresponding endpoint."
        }
      },
      "supportsInterface(bytes4)": {
        "details": "See {IERC165-supportsInterface}."
      },
      "transferOwnership(address)": {
        "details": "Transfers ownership of the contract to a new account (`newOwner`). Can only be called by the current owner."
      }
    },
    "version": 1
  },
  "userdoc": {
    "kind": "user",
    "methods": {
      "allowInitializePath((uint32,bytes32,uint64))": {
        "notice": "Checks if the path initialization is allowed based on the provided origin."
      },
      "endpoint()": {
        "notice": "Retrieves the LayerZero endpoint associated with the OApp."
      },
      "isComposeMsgSender((uint32,bytes32,uint64),bytes,address)": {
        "notice": "Indicates whether an address is an approved composeMsg sender to the Endpoint."
      },
      "nextNonce(uint32,bytes32)": {
        "notice": "Retrieves the next nonce for a given source endpoint and sender address."
      },
      "oAppVersion()": {
        "notice": "Retrieves the OApp version information."
      },
      "peers(uint32)": {
        "notice": "Retrieves the peer (OApp) associated with a corresponding endpoint."
      },
      "setDelegate(address)": {
        "notice": "Sets the delegate address for the OApp."
      },
      "setPeer(uint32,bytes32)": {
        "notice": "Sets the peer address (OApp instance) for a corresponding endpoint."
      }
    },
    "version": 1
  },
  "storageLayout": {
    "storage": [
      {
        "astId": 4915,
        "contract": "contracts/skale/SKALEStation.sol:SKALEStation",
        "label": "_owner",
        "offset": 0,
        "slot": "0",
        "type": "t_address"
      },
      {
        "astId": 3994,
        "contract": "contracts/skale/SKALEStation.sol:SKALEStation",
        "label": "peers",
        "offset": 0,
        "slot": "1",
        "type": "t_mapping(t_uint32,t_bytes32)"
      },
      {
        "astId": 4554,
        "contract": "contracts/skale/SKALEStation.sol:SKALEStation",
        "label": "_roles",
        "offset": 0,
        "slot": "2",
        "type": "t_mapping(t_bytes32,t_struct(RoleData)4549_storage)"
      },
      {
        "astId": 7148,
        "contract": "contracts/skale/SKALEStation.sol:SKALEStation",
        "label": "stablecoinFeeTiers",
        "offset": 0,
        "slot": "3",
        "type": "t_mapping(t_uint256,t_struct(FeeRates)7134_storage)"
      },
      {
        "astId": 7151,
        "contract": "contracts/skale/SKALEStation.sol:SKALEStation",
        "label": "feeThresholds",
        "offset": 0,
        "slot": "4",
        "type": "t_array(t_uint256)dyn_storage"
      },
      {
        "astId": 7154,
        "contract": "contracts/skale/SKALEStation.sol:SKALEStation",
        "label": "nonStableTokenFees",
        "offset": 0,
        "slot": "5",
        "type": "t_struct(FeeRates)7134_storage"
      },
      {
        "astId": 7663,
        "contract": "contracts/skale/SKALEStation.sol:SKALEStation",
        "label": "MANAGER_ROLE",
        "offset": 0,
        "slot": "8",
        "type": "t_bytes32"
      },
      {
        "astId": 7665,
        "contract": "contracts/skale/SKALEStation.sol:SKALEStation",
        "label": "feeCollector",
        "offset": 0,
        "slot": "9",
        "type": "t_address"
      },
      {
        "astId": 7669,
        "contract": "contracts/skale/SKALEStation.sol:SKALEStation",
        "label": "supplyAvailable",
        "offset": 0,
        "slot": "10",
        "type": "t_mapping(t_address,t_uint256)"
      },
      {
        "astId": 7676,
        "contract": "contracts/skale/SKALEStation.sol:SKALEStation",
        "label": "tokens",
        "offset": 0,
        "slot": "11",
        "type": "t_mapping(t_address,t_mapping(t_uint32,t_contract(IMonorailNativeToken)7055))"
      },
      {
        "astId": 7681,
        "contract": "contracts/skale/SKALEStation.sol:SKALEStation",
        "label": "stable",
        "offset": 0,
        "slot": "12",
        "type": "t_mapping(t_contract(IMonorailNativeToken)7055,t_bool)"
      }
    ],
    "types": {
      "t_address": {
        "encoding": "inplace",
        "label": "address",
        "numberOfBytes": "20"
      },
      "t_array(t_uint256)dyn_storage": {
        "base": "t_uint256",
        "encoding": "dynamic_array",
        "label": "uint256[]",
        "numberOfBytes": "32"
      },
      "t_bool": {
        "encoding": "inplace",
        "label": "bool",
        "numberOfBytes": "1"
      },
      "t_bytes32": {
        "encoding": "inplace",
        "label": "bytes32",
        "numberOfBytes": "32"
      },
      "t_contract(IMonorailNativeToken)7055": {
        "encoding": "inplace",
        "label": "contract IMonorailNativeToken",
        "numberOfBytes": "20"
      },
      "t_mapping(t_address,t_bool)": {
        "encoding": "mapping",
        "key": "t_address",
        "label": "mapping(address => bool)",
        "numberOfBytes": "32",
        "value": "t_bool"
      },
      "t_mapping(t_address,t_mapping(t_uint32,t_contract(IMonorailNativeToken)7055))": {
        "encoding": "mapping",
        "key": "t_address",
        "label": "mapping(address => mapping(uint32 => contract IMonorailNativeToken))",
        "numberOfBytes": "32",
        "value": "t_mapping(t_uint32,t_contract(IMonorailNativeToken)7055)"
      },
      "t_mapping(t_address,t_uint256)": {
        "encoding": "mapping",
        "key": "t_address",
        "label": "mapping(address => uint256)",
        "numberOfBytes": "32",
        "value": "t_uint256"
      },
      "t_mapping(t_bytes32,t_struct(RoleData)4549_storage)": {
        "encoding": "mapping",
        "key": "t_bytes32",
        "label": "mapping(bytes32 => struct AccessControl.RoleData)",
        "numberOfBytes": "32",
        "value": "t_struct(RoleData)4549_storage"
      },
      "t_mapping(t_contract(IMonorailNativeToken)7055,t_bool)": {
        "encoding": "mapping",
        "key": "t_contract(IMonorailNativeToken)7055",
        "label": "mapping(contract IMonorailNativeToken => bool)",
        "numberOfBytes": "32",
        "value": "t_bool"
      },
      "t_mapping(t_uint256,t_struct(FeeRates)7134_storage)": {
        "encoding": "mapping",
        "key": "t_uint256",
        "label": "mapping(uint256 => struct FeeManager.FeeRates)",
        "numberOfBytes": "32",
        "value": "t_struct(FeeRates)7134_storage"
      },
      "t_mapping(t_uint32,t_bytes32)": {
        "encoding": "mapping",
        "key": "t_uint32",
        "label": "mapping(uint32 => bytes32)",
        "numberOfBytes": "32",
        "value": "t_bytes32"
      },
      "t_mapping(t_uint32,t_contract(IMonorailNativeToken)7055)": {
        "encoding": "mapping",
        "key": "t_uint32",
        "label": "mapping(uint32 => contract IMonorailNativeToken)",
        "numberOfBytes": "32",
        "value": "t_contract(IMonorailNativeToken)7055"
      },
      "t_struct(FeeRates)7134_storage": {
        "encoding": "inplace",
        "label": "struct FeeManager.FeeRates",
        "members": [
          {
            "astId": 7129,
            "contract": "contracts/skale/SKALEStation.sol:SKALEStation",
            "label": "baseFee",
            "offset": 0,
            "slot": "0",
            "type": "t_uint256"
          },
          {
            "astId": 7131,
            "contract": "contracts/skale/SKALEStation.sol:SKALEStation",
            "label": "variableRate",
            "offset": 0,
            "slot": "1",
            "type": "t_uint256"
          },
          {
            "astId": 7133,
            "contract": "contracts/skale/SKALEStation.sol:SKALEStation",
            "label": "liquidityRate",
            "offset": 0,
            "slot": "2",
            "type": "t_uint256"
          }
        ],
        "numberOfBytes": "96"
      },
      "t_struct(RoleData)4549_storage": {
        "encoding": "inplace",
        "label": "struct AccessControl.RoleData",
        "members": [
          {
            "astId": 4546,
            "contract": "contracts/skale/SKALEStation.sol:SKALEStation",
            "label": "hasRole",
            "offset": 0,
            "slot": "0",
            "type": "t_mapping(t_address,t_bool)"
          },
          {
            "astId": 4548,
            "contract": "contracts/skale/SKALEStation.sol:SKALEStation",
            "label": "adminRole",
            "offset": 0,
            "slot": "1",
            "type": "t_bytes32"
          }
        ],
        "numberOfBytes": "64"
      },
      "t_uint256": {
        "encoding": "inplace",
        "label": "uint256",
        "numberOfBytes": "32"
      },
      "t_uint32": {
        "encoding": "inplace",
        "label": "uint32",
        "numberOfBytes": "4"
      }
    }
  }
}